:1000000049C0000065C0000063C0000061C000007E
:100010005FC000005DC000005BC0000059C0000070
:1000200057C0000055C0000053C0000051C0000080
:100030000C947B134DC000004BC0000049C0000071
:1000400047C0000045C00000B5C4000041C000002A
:100050003FC000000C94D8153BC000000C949715CD
:1000600037C0000035C0000033C0000031C00000C0
:100070002FC000002DC000002BC0000029C00000D0
:100080000C94611625C000000C94201621C00000BD
:100090001FC0000011241FBECFEFD0E1DEBFCDBFD7
:1000A00011E0A0E0B1E0E8EDF3E300E00BBF02C037
:1000B00007900D92A038B107D9F712E0A0E8B1E09F
:1000C00001C01D92A23DB107E1F703D00C94EA19DB
:1000D00097CFDF93CF93CDB7DEB70E9470148FE038
:1000E0000E944509813019F40E941B0AF8CF0E9432
:1000F0005F0EF5CF0F931F93DF93CF9300D0CDB753
:10010000DEB79A838983ADE2B0E0EDE2F0E0808172
:1001100088638C93E4E9F0E011821082E8E9F0E072
:1001200011821082EAE9F0E011821082ECE9F0E03D
:1001300011821082E0E9F0E08EEB8083E1E9F0E0EB
:100140008AE18083E0E8F0E08EEA8083E1E8F0E095
:100150008AE1808306E910E089819A81CC01A0E0E0
:10016000B0E0BC01CD010E94AB17DC01CB01BC01AA
:10017000CD0120E030E040E051E40E946118DC0154
:10018000CB019C01AD0160E876E988E19BE40E9427
:100190001217DC01CB01BC01CD0120E030E040E0D2
:1001A0005FE30E94AA16DC01CB01BC01CD010E94D5
:1001B0007F17DC01CB01F8019183808306E810E012
:1001C00089819A81CC01A0E0B0E0BC01CD010E9400
:1001D000AB17DC01CB01BC01CD0120E030E040E0F9
:1001E00051E40E946118DC01CB019C01AD0160E883
:1001F00076E988E19BE40E941217DC01CB01BC0187
:10020000CD0120E030E040E05FE30E94AA16DC016F
:10021000CB01BC01CD010E947F17DC01CB01F801AD
:10022000918380830F900F90CF91DF911F910F9159
:100230000895EF92FF920F931F93DF93CF9300D017
:1002400000D0CDB7DEB79C838B83E6E9F0E08081F8
:100250009181CC01A0E0B0E0BC01CD010E94AB17C0
:10026000DC01CB01BC01CD0120E030E04FE753E4DD
:100270000E941217DC01CB017C018D018B819C81D6
:10028000AA2797FDA095BA2FBC01CD010E94AD17FA
:100290009B01AC01C801B7010E946118DC01CB01D0
:1002A000BC01CD0120E030E040E05FE30E94AA16EF
:1002B000DC01CB01BC01CD010E947F17DC01CB0129
:1002C0009A838983E9E9F0E089819A81892F9927C6
:1002D0008083E8E9F0E0898180830F900F900F9090
:1002E0000F90CF91DF911F910F91FF90EF900895A4
:1002F000EF92FF920F931F93DF93CF9300D000D024
:10030000CDB7DEB79C838B83E6E9F0E080819181F5
:10031000CC01A0E0B0E0BC01CD010E94AB17DC0134
:10032000CB01BC01CD0120E030E04FE753E40E9457
:100330001217DC01CB017C018D018B819C81AA27E6
:1003400097FDA095BA2FBC01CD010E94AD179B016E
:10035000AC01C801B7010E946118DC01CB01BC01EE
:10036000CD0120E030E040E05FE30E94AA16DC010E
:10037000CB01BC01CD010E947F17DC01CB019A8328
:100380008983EBE9F0E089819A81892F992780831D
:10039000EAE9F0E0898180830F900F900F900F9031
:1003A000CF91DF911F910F91FF90EF900895DF9310
:1003B000CF930F92CDB7DEB789838981992787FDC7
:1003C0009095A92FB92FBC01CD010E94AD17DC017A
:1003D000CB01BC01CD0120E030E044EB52E40E94AF
:1003E0001217DC01CB01BC01CD0126E636E646E35F
:1003F00051EC0E946118DC01CB01BC01CD0120E071
:1004000030E04CE653E40E94AA16DC01CB019C01CB
:10041000AD0160E070E08FE793E40E94A916DC0173
:10042000CB01BC01CD010E947A17DC01CB0101DFB9
:100430000F90CF91DF910895DF93CF930F92CDB7B7
:10044000DEB789838981992787FD9095A92FB92FD8
:10045000BC01CD010E94AD17DC01CB01BC01CD0177
:1004600020E030E044EB52E40E941217DC01CB01A3
:10047000BC01CD0126E636E646E351EC0E94611848
:10048000DC01CB01BC01CD0120E030E04CE653E4BF
:100490000E94AA16DC01CB019C01AD0160E070E076
:1004A0008FE793E40E94A916DC01CB01BC01CD01CA
:1004B0000E947A17DC01CB011BDF0F90CF91DF91F7
:1004C0000895DF93CF9300D0CDB7DEB79A838983A9
:1004D0000F900F90CF91DF910895DF93CF93CDB719
:1004E000DEB76C970FB6F894DEBF0FBECDBF8AEAB9
:1004F0005EDF80E090E0AAE7B4E4898F9A8FAB8F4B
:10050000BC8F698D7A8D8B8D9C8D20E030E44CE121
:1005100055E40E946118DC01CB018D8B9E8BAF8B63
:10052000B88F6D897E898F89988D20E030E040E812
:100530005FE30E940E1788232CF481E090E09C8BEF
:100540008B8B3FC06D897E898F89988D20E03FEF2E
:100550004FE757E40E945D1818164CF5698D7A8DA7
:100560008B8D9C8D20E030E040E251E40E946118C8
:10057000DC01CB01BC01CD010E947F17DC01CB0166
:100580009C8B8B8B0FC08AEF90E09A8B898B89892B
:100590009A890197F1F79A8B898B8B899C890197AE
:1005A0009C8B8B8B8B899C89009769F714C06D8914
:1005B0007E898F89988D0E947F17DC01CB019C8BEF
:1005C0008B8B8B899C89988B8F878F8598890197D6
:1005D000F1F7988B8F8780E02FDF80E090E0AAE72B
:1005E000B4E48B879C87AD87BE876B857C858D85C2
:1005F0009E8520E030E44CE155E40E946118DC0166
:10060000CB018F839887A987BA876F817885898581
:100610009A8520E030E040E85FE30E940E178823CF
:100620002CF481E090E09E838D833FC06F817885BC
:1006300089859A8520E03FEF4FE757E40E945D18D7
:1006400018164CF56B857C858D859E8520E030E005
:1006500040E251E40E946118DC01CB01BC01CD01F4
:100660000E947F17DC01CB019E838D830FC08AEF30
:1006700090E09C838B838B819C810197F1F79C8315
:100680008B838D819E8101979E838D838D819E8139
:10069000009769F714C06F81788589859A850E94D3
:1006A0007F17DC01CB019E838D838D819E819A8390
:1006B000898389819A810197F1F79A8389836C965E
:1006C0000FB6F894DEBF0FBECDBFCF91DF91089576
:1006D000DF93CF93CDB7DEB7AA970FB6F894DEBFFE
:1006E0000FBECDBF8AE5A8DE80E090E0AAE7B4E4C3
:1006F0008FA398A7A9A7BAA76FA178A589A59AA53E
:1007000020E030E44CE155E40E946118DC01CB01AB
:100710008BA39CA3ADA3BEA36BA17CA18DA19EA125
:1007200020E030E040E85FE30E940E1788232CF4BD
:1007300081E090E09AA389A33FC06BA17CA18DA129
:100740009EA120E03FEF4FE757E40E945D18181686
:100750004CF56FA178A589A59AA520E030E040E28C
:1007600051E40E946118DC01CB01BC01CD010E9463
:100770007F17DC01CB019AA389A30FC08AEF90E019
:1007800098A38F8F8F8D98A10197F1F798A38F8FE2
:1007900089A19AA101979AA389A389A19AA10097F7
:1007A00069F714C06BA17CA18DA19EA10E947F1747
:1007B000DC01CB019AA389A389A19AA19E8F8D8F79
:1007C0008D8D9E8D0197F1F79E8F8D8F85E5EFDDE5
:1007D00080E090E0AAE7B4E4898F9A8FAB8FBC8F5A
:1007E000698D7A8D8B8D9C8D20E030E44CE155E451
:1007F0000E946118DC01CB018D8B9E8BAF8BB88F73
:100800006D897E898F89988D20E030E040E85FE334
:100810000E940E1788232CF481E090E09C8B8B8B38
:100820003FC06D897E898F89988D20E03FEF4FE72B
:1008300057E40E945D1818164CF5698D7A8D8B8DE2
:100840009C8D20E030E040E251E40E946118DC0120
:10085000CB01BC01CD010E947F17DC01CB019C8B39
:100860008B8B0FC08AEF90E09A8B898B89899A894C
:100870000197F1F79A8B898B8B899C8901979C8BC7
:100880008B8B8B899C89009769F714C06D897E8951
:100890008F89988D0E947F17DC01CB019C8B8B8BFD
:1008A0008B899C89988B8F878F8598890197F1F721
:1008B000988B8F8780E0C0DD80E090E0AAEFB3E402
:1008C0008B879C87AD87BE876B857C858D859E8554
:1008D00020E030E44CE155E40E946118DC01CB01DA
:1008E0008F839887A987BA876F81788589859A854C
:1008F00020E030E040E85FE30E940E1788232CF4EC
:1009000081E090E09E838D833FC06F8178858985EB
:100910009A8520E03FEF4FE757E40E945D181816D4
:100920004CF56B857C858D859E8520E030E040E22E
:1009300051E40E946118DC01CB01BC01CD010E9491
:100940007F17DC01CB019E838D830FC08AEF90E07F
:100950009C838B838B819C810197F1F79C838B8394
:100960008D819E8101979E838D838D819E810097CD
:1009700069F714C06F81788589859A850E947F17F1
:10098000DC01CB019E838D838D819E819A83898337
:1009900089819A810197F1F79A83898381E090E0B8
:1009A00090DDAA960FB6F894DEBF0FBECDBFCF91F3
:1009B000DF9108951F920F920FB60F9200905B0087
:1009C0000F9211242F933F934F935F938F939F9395
:1009D000AF93BF93EF93FF93DF93CF9300D000D0FB
:1009E000CDB7DEB7EDEEF0E080818C831B829CC03A
:1009F000EDEEF0E08B818295807F8083EEEEF0E07B
:100A00008081829586958770882F90E081709070A4
:100A1000882309F46EC0EFEEF0E080E88083AEEE4C
:100A2000B0E0EEEEF0E080818F7D8C93E2EFF0E0BD
:100A30008081829586958770282FE3EFF0E0808192
:100A4000882F90E0880F991F880F991F880F991F92
:100A5000822B8A8319822AC08A81282F30E081E084
:100A600090E0821B930B880F991F909581959F4F63
:100A7000FC01E058FE4F408151818A81882F90E02F
:100A80000197FC01EC56FE4F8081282F30E08981D0
:100A9000882F90E0820F931FDA01A80FB91FEAEFA9
:100AA000F0E080818C9389818F5F89838981883090
:100AB00098F28A81882F90E00197FC01EC56FE4F56
:100AC00080818F5F80838081853041F48A81882F87
:100AD00090E00197FC01EC56FE4F10828A81882F2E
:100AE00090E00197FC01E855FE4F80818F5F808385
:100AF0001FC0EEEEF0E0808182958695869583702A
:100B0000882F90E081709070882359F0EFEEF0E02C
:100B10001082AEEEB0E0EEEEF0E080818F7B8C9341
:100B200007C08B818F5F8B838B818F3008F460CF00
:100B3000EDEEF0E08C818083AAEDB0E0EAEDF0E02C
:100B400080818C930F900F900F900F90CF91DF9139
:100B5000FF91EF91BF91AF919F918F915F914F91D5
:100B60003F912F910F9000925B000F900FBE0F905E
:100B70001F901895DF93CF9300D0CDB7DEB7E8ED87
:100B8000F0E081E080831A8232C0EDEEF0E08A81ED
:100B90008295807F8083EEEEF0E01082EFEEF0E051
:100BA0001082E3EFF0E01082E2EFF0E01082E1EF7C
:100BB000F0E01082E0EFF0E01082E7EFF0E010826A
:100BC000E6EFF0E01082E5EFF0E01082E4EFF0E015
:100BD0001082198206C0EAEFF0E0108289818F5FEF
:100BE000898389818830B8F38A818F5F8A838A817B
:100BF0008F3058F2E8EDF0E082E08083E2EEF0E042
:100C000081E08083E3EEF0E088E08083E4EEF0E0D2
:100C10008EE58083E5EEF0E01082EBEDF0E080EB16
:100C20008083EFEDF0E08FE78083EEEDF0E08FEF73
:100C3000808378940F900F90CF91DF910895DF9388
:100C4000CF9300D000D00F92CDB7DEB79C838B83BB
:100C5000EDEEF0E080818983E9EDF0E0808182951E
:100C60008F70882F90E0817090708823A9F7E9ED4C
:100C7000F0E08081869586958695882F90E081703A
:100C80009070882349F71A823FC0EDEEF0E08A8128
:100C90008295807F8083EFEEF0E08081829586955B
:100CA00086958370882369F5EFEEF0E08FE080830E
:100CB000E3EFF0E08B819C819070969587959695F7
:100CC0008795969587958083E2EFF0E08B818295FA
:100CD000880F807E8083E6EFF0E080EE8083E7EF90
:100CE000F0E08FEF8083AFEEB0E0EFEEF0E08081D8
:100CF00080688C93EDEEF0E08981808381E08D83C4
:100D00000CC08A818F5F8A838A818F3008F4BDCFBF
:100D1000EDEEF0E0898180831D828D810F900F9030
:100D20000F900F900F90CF91DF9108950F931F9325
:100D3000DF93CF9300D0CDB7DEB78A831BDF198254
:100D400036C08981882F90E0019679DF8981882FCC
:100D500090E0880F991F8C0100581E4F85E090E0AD
:100D600061E070E00E94C418F8019183808389815A
:100D7000482F50E08981282F30E08981882F90E02A
:100D8000FC01E855FE4F1082FC01E855FE4F8081C2
:100D9000F901E256FE4F8083F901E256FE4F808151
:100DA000FA01EC56FE4F808389818F5F8983998198
:100DB0008A81981730F20F900F90CF91DF911F9199
:100DC0000F910895DF93CF9300D000D0CDB7DEB759
:100DD0009B838A836C838C81882F90E00197FC0130
:100DE000E855FE4F80818823B1F3198230C0898194
:100DF000282F30E08A819B81DC01A20FB31F8C81F8
:100E0000282F30E081E090E0821B930B880F991F20
:100E1000909581959F4FFC01E058FE4F4081518194
:100E20008C81882F90E00197FC01E256FE4F808173
:100E3000282F30E08981882F90E0820F931FFA01DC
:100E4000E80FF91F80818C9389818F5F8983898165
:100E5000883068F28C81882F90E00197FC01E2567F
:100E6000FE4F80818F5F80838081853041F48C814B
:100E7000882F90E00197FC01E256FE4F10828C8192
:100E8000882F90E09C0121503040F901E855FE4F39
:100E900080818150F901E855FE4F808380E00F90FA
:100EA0000F900F900F90CF91DF910895DF93CF9324
:100EB000CDB7DEB727970FB6F894DEBF0FBECDBF14
:100EC0009D838C836E83E9EDF0E0808182958F7045
:100ED000882F90E0817090708823A9F7E9EDF0E009
:100EE0008081869586958695882F90E08170907098
:100EF000882349F7EDEEF0E0808189831A8212C0E1
:100F0000EDEEF0E08A818295807F8083EFEEF0E065
:100F100080818295869586958370882331F08A81B9
:100F20008F5F8A838A818F3058F38A818F3019F4DA
:100F30008FEF8F8332C0E2EFF0E08E818295880FD1
:100F4000807E8083E3EFF0E08E818695869586959E
:100F50008083EFEEF0E088E080831B820FC0AAEF71
:100F6000B0E08B81282F30E08C819D81FC01E20F65
:100F7000F31F80818C938B818F5F8B838B81883073
:100F800070F3AFEEB0E0EFEEF0E0808180648C9320
:100F9000EDEEF0E0898180831F828F8127960FB666
:100FA000F894DEBF0FBECDBFCF91DF910895DF93E0
:100FB000CF93CDB7DEB72C970FB6F894DEBF0FBE38
:100FC000CDBF89876A874B8780910801909109017D
:100FD0009C838B838B819C81069798878F8314C019
:100FE000EF81F88590818985981719F421E02C8785
:100FF000C9C0EF81F885808591859A83898389812D
:101000009A81069798878F838F819885069621E02D
:101010008630920729F789858695869586958F5F14
:101020008E83898587708D838A85813009F048C0D9
:101030008E81282F30E0C901880F991F820F931FDE
:101040004E96DC018E81282F30E0C901880F991F50
:10105000820F931F4E96FC018081482F8D81282F8F
:1010600030E081E090E002C0880F991F2A95E2F7F6
:10107000842B8C938E81282F30E0C901880F991F13
:10108000820F931F4F96DC018E81282F30E0C9011B
:10109000880F991F820F931F4F96FC018081482F64
:1010A0008D81282F30E081E090E0022E02C0880F71
:1010B000991F0A94E2F7809584238C931C8662C062
:1010C0008E81282F30E0C901880F991F820F931F4E
:1010D0004E96DC018E81282F30E0C901880F991FC0
:1010E000820F931F4E96FC018081482F8D81282FFF
:1010F00030E081E090E002C0880F991F2A95E2F766
:10110000809584238C938E81282F30E0C901880F2D
:10111000991F820F931F4F96DC018E81282F30E09C
:10112000C901880F991F820F931F4F96FC01808180
:10113000482F8D81282F30E081E090E002C0880F99
:10114000991F2A95E2F7842B8C938AE090E00E9405
:10115000DE1898878F838F819885009719F481E036
:101160008C8710C0EF81F88589858083EF81F885B1
:101170008B8581838F819885069626E031E0B901C1
:101180000BD01C868C852C960FB6F894DEBF0FBE54
:10119000CDBFCF91DF910895DF93CF9300D000D0E2
:1011A000CDB7DEB79A8389837C836B83EB81FC8127
:1011B0004281538189819A812B813C81B90107D079
:1011C0000F900F900F900F90CF91DF910895DF93C4
:1011D000CF9300D000D000D0CDB7DEB79A838983FB
:1011E0007C836B835E834D83ED81FE8189819A814F
:1011F00091838083E981FA818D819E8193838283AB
:10120000E981FA818B819C8191838083EB81FC81D0
:1012100089819A819383828326960FB6F894DEBFE4
:101220000FBECDBFCF91DF910895DF93CF9300D054
:101230000F92CDB7DEB78B838B8186958695869589
:101240008F5F8A838B8187708B838A81282F30E020
:10125000C901880F991F820F931F4D96FC01808151
:1012600089838981282F30E08B81882F90E0A90124
:1012700002C0559547958A95E2F7CA0181700F9093
:101280000F900F90CF91DF910895DF93CF93CDB75B
:10129000DEB72B970FB6F894DEBF0FBECDBF8987A0
:1012A00080910801909109019E838D838D819E819B
:1012B000069798878F8355C0EF81F885908189853F
:1012C000981709F043C01C8221C08C81282F30E080
:1012D0008F819885820F931FFC01329640818C810B
:1012E000882F90E09C012F5F3F4F8F819885820F60
:1012F000931FFC0132968081481729F0EF81F88511
:1013000025812B8738C08C818F5F8C838C818230C4
:10131000E0F2EF81F885918181E08927882329F027
:10132000EF81F88582818A8708C0EF81F885828104
:101330001A86882311F421E02A878A858B83EF811E
:10134000F8858B8185832B812B8715C0EF81F885EC
:10135000808591859A83898389819A810697988768
:101360008F838F819885069621E08630920709F059
:10137000A3CF81E08B878B852B960FB6F894DEBFC9
:101380000FBECDBFCF91DF9108950F931F93DF93D1
:10139000CF9300D000D000D0CDB7DEB78091080148
:1013A000909109019C838B838B819C8106979E83FE
:1013B0008D831BC00091B2011091B301ED81FE81BC
:1013C000808133DF282F8D819E81800F911FFC014A
:1013D00032962083ED81FE81808591859A83898371
:1013E00089819A8106979E838D838D819E81069641
:1013F00021E086309207F1F68091B2019091B3011D
:1014000001969093B3018093B2018091B2019091C3
:10141000B3018330910521F41092B3011092B2010F
:1014200026960FB6F894DEBF0FBECDBFCF91DF91E9
:101430001F910F910895DF93CF93CDB7DEB72B9710
:101440000FB6F894DEBF0FBECDBF1C821B8282E0B8
:10145000898385E590E09E838D838EE992E098876D
:101460008F8386EA9FEF9A878987CE010596B7D248
:101470008981882F90E082309105D1F78B818C8310
:101480005CC08C81482F50E0CA01880F991F9C01D5
:10149000220F331F220F331F820F931F840F951FBC
:1014A0008F5E9E4FBC018C81482F50E0CA01880F8F
:1014B000991F9C01220F331F220F331F820F931F8E
:1014C000840F951FFC01E85EFE4FA0818C81482FA0
:1014D00050E0CA01880F991F9C01220F331F220F71
:1014E000331F820F931F840F951FFC01E75EFE4F91
:1014F000B0818C81482F50E0CA01880F991F9C0150
:10150000220F331F220F331F820F931F840F951F4B
:10151000FC01E65EFE4F20813181CB016A2F4B2F0B
:10152000A7D18A838A81813009F4A2CF8C81882354
:1015300009F4FFCF8C818F5F8C838C81882309F421
:10154000A0CF96CFDF93CF93CDB7DEB767970FB617
:10155000F894DEBF0FBECDBF8F8B9091B4018F8901
:10156000891709F481C086E58F878F89888B72C0BF
:1015700080E090E0A8E4B2E48B879C87AD87BE87CB
:101580006B857C858D859E8520E030E44CE155E4BB
:101590000E946118DC01CB018F839887A987BA87E5
:1015A0006F81788589859A8520E030E040E85FE3A7
:1015B0000E940E1788232CF481E090E09E838D8397
:1015C0003FC06F81788589859A8520E03FEF4FE79E
:1015D00057E40E945D1818164CF56B857C858D8547
:1015E0009E8520E030E040E251E40E946118DC0179
:1015F000CB01BC01CD010E947F17DC01CB019E8392
:101600008D830FC08AEF90E09C838B838B819C81BC
:101610000197F1F79C838B838D819E8101979E8337
:101620008D838D819E81009769F714C06F817885C5
:1016300089859A850E947F17DC01CB019E838D836B
:101640008D819E819A83898389819A810197F1F79F
:101650009A838983CE010F9663EC28DC882309F0F6
:1016600087CF8F898093B40167960FB6F894DEBF59
:101670000FBECDBFCF91DF910895DF93CF93CDB74C
:10168000DEB766970FB6F894DEBF0FBECDBF80E51C
:101690008F8772C080E090E0A8E4B2E48B879C87DB
:1016A000AD87BE876B857C858D859E8520E030E487
:1016B0004CE155E40E946118DC01CB018F839887CF
:1016C000A987BA876F81788589859A8520E030E07F
:1016D00040E85FE30E940E1788232CF481E090E03D
:1016E0009E838D833FC06F81788589859A8520E0B0
:1016F0003FEF4FE757E40E945D1818164CF56B85D5
:101700007C858D859E8520E030E040E251E40E949A
:101710006118DC01CB01BC01CD010E947F17DC0107
:10172000CB019E838D830FC08AEF90E09C838B83D7
:101730008B819C810197F1F79C838B838D819E81A6
:1017400001979E838D838D819E81009769F714C0D8
:101750006F81788589859A850E947F17DC01CB018E
:101760009E838D838D819E819A83898389819A81CD
:101770000197F1F79A838983CE010F9663EC96DB8C
:10178000882309F087CFCE010F9661E01BDB8F85A0
:10179000809310018889882F90E0382F222789892B
:1017A000882F90E0822B932B90930B0180930A015A
:1017B0008A89882F90E0382F22278B89882F90E004
:1017C000822B932B90930D0180930C018C89882F91
:1017D00090E0382F22278D89882F90E0822B932B41
:1017E00090930F0180930E0166960FB6F894DEBFBA
:1017F0000FBECDBFCF91DF910895DF93CF93CDB7CB
:10180000DEB727970FB6F894DEBF0FBECDBF9E831D
:101810008D83E8D7AA2797FDA095BA2F89839A834D
:10182000AB83BC832ADF8D819E81009771F0898113
:101830009A81AB81BC81ED81FE81BC01CD0109950E
:10184000813019F481E08F8309C0809110018D34BB
:1018500049F380911001823529F31F828F812796E9
:101860000FB6F894DEBF0FBECDBFCF91DF910895C4
:10187000DF93CF93CDB7DEB76C970FB6F894DEBF8A
:101880000FBECDBF988F8F8B698F4A8F3C8F2B8F68
:10189000898D58DE87E48F87EF89F88D808191816B
:1018A000892F990F990B888BEF89F88D8081918111
:1018B000898BEF89F88D82819381892F990F990BFC
:1018C0008A8BEF89F88D828193818B8B1C8A8A8D1C
:1018D0008D8B72C080E090E0A8E4B2E48B879C8797
:1018E000AD87BE876B857C858D859E8520E030E445
:1018F0004CE155E40E946118DC01CB018F8398878D
:10190000A987BA876F81788589859A8520E030E03C
:1019100040E85FE30E940E1788232CF481E090E0FA
:101920009E838D833FC06F81788589859A8520E06D
:101930003FEF4FE757E40E945D1818164CF56B8592
:101940007C858D859E8520E030E040E251E40E9458
:101950006118DC01CB01BC01CD010E947F17DC01C5
:10196000CB019E838D830FC08AEF90E09C838B8395
:101970008B819C810197F1F79C838B838D819E8164
:1019800001979E838D838D819E81009769F714C096
:101990006F81788589859A850E947F17DC01CB014C
:1019A0009E838D838D819E819A83898389819A818B
:1019B0000197F1F79A838983CE010F9663EC76DA6B
:1019C000882309F087CF8B8D9C8D17DF6C960FB61F
:1019D000F894DEBF0FBECDBFCF91DF910895DF93A6
:1019E000CF93CDB7DEB768970FB6F894DEBF0FBEC2
:1019F000CDBF988F8F8B89E48F87EF89F88D808199
:101A00009181892F990F990B888BEF89F88D8081AF
:101A10009181898BEF89F88D82819381892F990F2C
:101A2000990B8A8BEF89F88D828193818B8BEF895B
:101A3000F88D84819581892F990F990B8C8BEF8973
:101A4000F88D848195818D8BEF89F88D80819181CE
:101A500090930B0180930A01EF89F88D8281938125
:101A600090930D0180930C01EF89F88D848195810D
:101A700090930F0180930E0172C080E090E0A8E483
:101A8000B2E48B879C87AD87BE876B857C858D850F
:101A90009E8520E030E44CE155E40E946118DC01B1
:101AA000CB018F839887A987BA876F8178858985CD
:101AB0009A8520E030E040E85FE30E940E1788231B
:101AC0002CF481E090E09E838D833FC06F81788508
:101AD00089859A8520E03FEF4FE757E40E945D1823
:101AE00018164CF56B857C858D859E8520E030E051
:101AF00040E251E40E946118DC01CB01BC01CD0140
:101B00000E947F17DC01CB019E838D830FC08AEF7B
:101B100090E09C838B838B819C810197F1F79C8360
:101B20008B838D819E8101979E838D838D819E8184
:101B3000009769F714C06F81788589859A850E941E
:101B40007F17DC01CB019E838D838D819E819A83DB
:101B5000898389819A810197F1F79A838983CE01DC
:101B60000F9663ECA3D9882309F087CF68960FB648
:101B7000F894DEBF0FBECDBFCF91DF910895DF9304
:101B8000CF93CDB7DEB76B970FB6F894DEBF0FBE1D
:101B9000CDBF988F8F8B698F5B8F4A8F898DD2DCF9
:101BA00084E58F878F89988D892F9927888B8F89D6
:101BB000898B72C080E090E0A8E4B2E48B879C87B8
:101BC000AD87BE876B857C858D859E8520E030E462
:101BD0004CE155E40E946118DC01CB018F839887AA
:101BE000A987BA876F81788589859A8520E030E05A
:101BF00040E85FE30E940E1788232CF481E090E018
:101C00009E838D833FC06F81788589859A8520E08A
:101C10003FEF4FE757E40E945D1818164CF56B85AF
:101C20007C858D859E8520E030E040E251E40E9475
:101C30006118DC01CB01BC01CD010E947F17DC01E2
:101C4000CB019E838D830FC08AEF90E09C838B83B2
:101C50008B819C810197F1F79C838B838D819E8181
:101C600001979E838D838D819E81009769F714C0B3
:101C70006F81788589859A850E947F17DC01CB0169
:101C80009E838D838D819E819A83898389819A81A8
:101C90000197F1F79A838983CE010F9663EC06D9F9
:101CA000882309F087CF8A8D9B8DA7DD6B960FB6B1
:101CB000F894DEBF0FBECDBFCF91DF910895DF93C3
:101CC000CF93CDB7DEB76B970FB6F894DEBF0FBEDC
:101CD000CDBF1A8A198A85E590E09C8B8B8B8CEF9F
:101CE00093E09E8B8D8B8AE590E0988F8F8BCE0151
:101CF000439675DE89898A8BD5C08A89482F50E042
:101D0000CA01880F991F9C01220F331F220F331F16
:101D1000820F931F840F951F845E9E4FBC018A899A
:101D2000482F50E0CA01880F991F9C01220F331FD2
:101D3000220F331F820F931F840F951FFC01ED5D4F
:101D4000FE4FA0818A89482F50E0CA01880F991F51
:101D50009C01220F331F220F331F820F931F840F0A
:101D6000951FFC01EC5DFE4FB0818A89482F50E041
:101D7000CA01880F991F9C01220F331F220F331FA6
:101D8000820F931F840F951FFC01EB5DFE4F208196
:101D90003181CB016A2F4B2F6BDD888B8889813095
:101DA00009F484C08A89833009F079C08BEA9FEFF7
:101DB00061E440E050E0E3DE80E090E0A8E4B3E4DA
:101DC0008B879C87AD87BE876B857C858D859E853F
:101DD00020E030E44CE155E40E946118DC01CB01C5
:101DE0008F839887A987BA876F81788589859A8537
:101DF00020E030E040E85FE30E940E1788232CF4D7
:101E000081E090E09E838D833FC06F8178858985D6
:101E10009A8520E03FEF4FE757E40E945D181816BF
:101E20004CF56B857C858D859E8520E030E040E219
:101E300051E40E946118DC01CB01BC01CD010E947C
:101E40007F17DC01CB019E838D830FC08AEF90E06A
:101E50009C838B838B819C810197F1F79C838B837F
:101E60008D819E8101979E838D838D819E810097B8
:101E700069F714C06F81788589859A850E947F17DC
:101E8000DC01CB019E838D838D819E819A83898322
:101E900089819A810197F1F79A838983BFD48A89CE
:101EA0008F5F8A8B8A89843008F427CFACD48F87E0
:101EB0008F85282F30E03B8F2A8F8A8D9B8D843031
:101EC000910509F4E2C02A8D3B8D2530310564F47B
:101ED0008A8D9B8D82309105A1F02A8D3B8D233018
:101EE000310509F470C0E4CF8A8D9B8D8530910552
:101EF00009F42DC12A8D3B8D2630310509F489C1A5
:101F0000D7CF89898A8B5BC08A89482F50E0CA0164
:101F1000880F991F9C01220F331F220F331F820F3E
:101F2000931F840F951F885B9E4FBC018A89482FA1
:101F300050E0CA01880F991F9C01220F331F220F06
:101F4000331F820F931F840F951FFC01E15BFE4F2F
:101F5000A0818A89482F50E0CA01880F991F9C01EF
:101F6000220F331F220F331F820F931F840F951FE1
:101F7000FC01E05BFE4FB0818A89482F50E0CA0126
:101F8000880F991F9C01220F331F220F331F820FCE
:101F9000931F840F951FFC01EF5AFE4F2081318162
:101FA000CB016A2F4B2F64DC888B8889813059F0F4
:101FB0008A89882309F4FFCF8A898F5F8A8B8A896F
:101FC000882309F4A1CF89898A8B5BC08A89482F2D
:101FD00050E0CA01880F991F9C01220F331F220F66
:101FE000331F820F931F840F951F8D5A9E4FBC0184
:101FF0008A89482F50E0CA01880F991F9C01220F3F
:10200000331F220F331F820F931F840F951FFC0174
:10201000E65AFE4FA0818A89482F50E0CA01880FF6
:10202000991F9C01220F331F220F331F820F931F12
:10203000840F951FFC01E55AFE4FB0818A89482F15
:1020400050E0CA01880F991F9C01220F331F220FF5
:10205000331F820F931F840F951FFC01E45AFE4F1C
:1020600020813181CB016A2F4B2F02DC888B88893C
:10207000813059F08A89882309F4FFCF8A898F5FDC
:102080008A8B8A89882309F4A1CF89898A8B5BC0CE
:102090008A89482F50E0CA01880F991F9C01220F9E
:1020A000331F220F331F820F931F840F951F825AF5
:1020B0009E4FBC018A89482F50E0CA01880F991FA2
:1020C0009C01220F331F220F331F820F931F840F97
:1020D000951FFC01EB59FE4FA0818A89482F50E0E3
:1020E000CA01880F991F9C01220F331F220F331F33
:1020F000820F931F840F951FFC01EA59FE4FB08198
:102100008A89482F50E0CA01880F991F9C01220F2D
:10211000331F220F331F820F931F840F951FFC0163
:10212000E959FE4F20813181CB016A2F4B2FA0DB73
:10213000888B8889813059F08A89882309F4FFCFF8
:102140008A898F5F8A8B8A89882309F4A1CF89893C
:102150008A8B5BC08A89482F50E0CA01880F991F7B
:102160009C01220F331F220F331F820F931F840FF6
:10217000951F87599E4FBC018A89482F50E0CA019C
:10218000880F991F9C01220F331F220F331F820FCC
:10219000931F840F951FFC01E059FE4FA0818A898F
:1021A000482F50E0CA01880F991F9C01220F331F4E
:1021B000220F331F820F931F840F951FFC01EF58CE
:1021C000FE4FB0818A89482F50E0CA01880F991FBD
:1021D0009C01220F331F220F331F820F931F840F86
:1021E000951FFC01EE58FE4F20813181CB016A2FF3
:1021F0004B2F3EDB888B8889813059F08A89882370
:1022000009F4FFCF8A898F5F8A8B8A89882309F432
:10221000A1CF89898A8B5CC08A89482F50E0CA0186
:10222000880F991F9C01220F331F220F331F820F2B
:10223000931F840F951F8C589E4FBC018A89482F8D
:1022400050E0CA01880F991F9C01220F331F220FF3
:10225000331F820F931F840F951FFC01E558FE4F1B
:10226000A0818A89482F50E0CA01880F991F9C01DC
:10227000220F331F220F331F820F931F840F951FCE
:10228000FC01E458FE4FB0818A89482F50E0CA0112
:10229000880F991F9C01220F331F220F331F820FBB
:1022A000931F840F951FFC01E358FE4F208131815D
:1022B000CB016A2F4B2FDCDA888B8889813009F4B7
:1022C000F7CD8A89882309F4FFCF8A898F5F8A8BAB
:1022D0008A89882309F4A0CFEBCDDF93CF9300D078
:1022E000CDB7DEB79A83898389819A819093B601AD
:1022F0008093B5010F900F90CF91DF910895DF93F8
:10230000CF9300D0CDB7DEB78091BE019091BF01D1
:102310008130910589F48091C0019091C1010097AD
:1023200059F48091C2019091C301009729F481E092
:1023300090E09A83898379C08091BE019091BF011A
:10234000009791F48091C0019091C1018130910575
:1023500059F48091C2019091C301009729F482E061
:1023600090E09A83898361C08091BE019091BF0102
:10237000009791F48091C0019091C101009761F4A0
:102380008091C2019091C3018130910529F483E0CD
:1023900090E09A83898349C08091BE019091BF01EA
:1023A0008130910591F48091C0019091C1018130FB
:1023B000910559F48091C2019091C301009729F4CD
:1023C00084E090E09A83898330C08091BE0190912F
:1023D000BF01009799F48091C0019091C1018130B3
:1023E000910561F48091C2019091C3018130910502
:1023F00029F485E090E09A83898317C08091BE011B
:102400009091BF01009779F48091C0019091C10132
:10241000009749F48091C2019091C301009719F48B
:102420001A82198202C01A82198289819A810F90B8
:102430000F90CF91DF910895DF93CF93CDB7DEB7A3
:10244000A0970FB6F894DEBF0FBECDBF80E090E03E
:10245000A8ECB2E4898F9A8FAB8FBC8F698D7A8D8F
:102460008B8D9C8D20E030E44CE155E42AD6DC01D4
:10247000CB018D8B9E8BAF8BB88F6D897E898F89B9
:10248000988D20E030E040E85FE3C8D488232CF446
:1024900081E090E09C8B8B8B3BC06D897E898F891E
:1024A000988D20E03FEF4FE757E407D618163CF52C
:1024B000698D7A8D8B8D9C8D20E030E040E251E477
:1024C00000D6DC01CB01BC01CD0119D5DC01CB016B
:1024D0009C8B8B8B0FC08AEF90E09A8B898B8989BC
:1024E0009A890197F1F79A8B898B8B899C8901973F
:1024F0009C8B8B8B8B899C89009769F713C06D89A6
:102500007E898F89988DFBD4DC01CB019C8B8B8BD2
:102510008B899C89988B8F878F8598890197F1F794
:10252000988B8F871E8E1D8E8FC087E00E94450975
:10253000882F90E09093BF018093BE0186E00E94B7
:102540004509882F90E09093C1018093C00185E0F8
:102550000E944509882F90E09093C3018093C201A7
:10256000CEDE98A38F8F80E090E0A8ECB2E48B875A
:102570009C87AD87BE876B857C858D859E8520E099
:1025800030E44CE155E49DD5DC01CB018F83988785
:10259000A987BA876F81788589859A8520E030E0A0
:1025A00040E85FE33BD488232CF481E090E09E83F5
:1025B0008D833BC06F81788589859A8520E03FEFC8
:1025C0004FE757E47AD518163CF56B857C858D85E9
:1025D0009E8520E030E040E251E473D5DC01CB0180
:1025E000BC01CD018CD4DC01CB019E838D830FC057
:1025F0008AEF90E09C838B838B819C810197F1F71C
:102600009C838B838D819E8101979E838D838D8199
:102610009E81009769F713C06F81788589859A85B7
:102620006ED4DC01CB019E838D838D819E819A8344
:10263000898389819A810197F1F79A8389838D8DA6
:102640009E8D01969E8F8D8F8D8D9E8D85309105EF
:102650000CF46BCF8F8D98A1A0960FB6F894DEBFC7
:102660000FBECDBFCF91DF9108950F931F93DF93DE
:10267000CF9300D0CDB7DEB79A838983E0E8F0E04E
:102680001082E1E8F0E089E0808308E810E08981C9
:102690009A81CC01A0E0B0E0BC01CD015CD49B01EB
:1026A000AC0160E876E988E19BE4BCD3DC01CB01B6
:1026B000BC01CD0120E030E040E05FE34BD3DC0122
:1026C000CB01BC01CD011BD4DC01CB01F80191830E
:1026D0008083EFE6F0E082E08083AFE5B0E0EFE5F5
:1026E000F0E0808180688C930F900F90CF91DF9104
:1026F0001F910F9108951F920F920FB60F920090A5
:102700005B000F9211242F933F934F935F936F932E
:102710007F938F939F93AF93BF93EF93FF93DF9339
:10272000CF93CDB7DEB78091B5019091B6010097F8
:1027300029F0E091B501F091B60109958091B901B8
:102740009091BA01A091BB01B091BC01803828E3FF
:10275000920721E0A20720E0B20710F00E946D026C
:102760008091B9019091BA01A091BB01B091BC01D7
:102770000196A11DB11D8093B9019093BA01A09358
:10278000BB01B093BC01CF91DF91FF91EF91BF915D
:10279000AF919F918F917F916F915F914F913F91F9
:1027A0002F910F9000925B000F900FBE0F901F9023
:1027B0001895DF93CF93CDB7DEB71092B901109281
:1027C000BA011092BB011092BC01CF91DF91089524
:1027D000DF93CF93CDB7DEB781E08093BD01CF917A
:1027E000DF910895DF93CF93CDB7DEB78091B90124
:1027F0009091BA01A091BB01B091BC01BC01CD0187
:10280000CF91DF910895DF93CF93CDB7DEB780915D
:10281000CB029091CC02CF91DF910895DF93CF93BB
:1028200000D0CDB7DEB708DE9093B8018093B70132
:102830008091B7019091B8019A83898389819A81A7
:102840008230910531F189819A818330910554F468
:1028500089819A810097C9F189819A818130910596
:1028600089F039C089819A818430910501F189818B
:102870009A8184309105A4F089819A8185309105EF
:10288000E9F029C082E090E09093CC028093CB02E3
:1028900022C083E090E09093CC028093CB021BC0D7
:1028A00084E090E09093CC028093CB0214C085E04A
:1028B00090E09093CC028093CB020DC086E090E034
:1028C0009093CC028093CB0206C085E090E0909379
:1028D000CC028093CB020F900F90CF91DF9108959F
:1028E000DF93CF93CDB7DEB76C970FB6F894DEBF0A
:1028F0000FBECDBF85EC99E0F0DC80E090E0A8EC65
:10290000B2E4898F9A8FAB8FBC8F698D7A8D8B8D56
:102910009C8D20E030E44CE155E4D3D3DC01CB01C5
:102920008D8B9E8BAF8BB88F6D897E898F89988DAB
:1029300020E030E040E85FE371D288232CF481E0AE
:1029400090E09C8B8B8B3BC06D897E898F89988DA5
:1029500020E03FEF4FE757E4B0D318163CF5698D00
:102960007A8D8B8D9C8D20E030E040E251E4A9D33C
:10297000DC01CB01BC01CD01C2D2DC01CB019C8BBF
:102980008B8B0FC08AEF90E09A8B898B89899A890B
:102990000197F1F79A8B898B8B899C8901979C8B86
:1029A0008B8B8B899C89009769F713C06D897E8911
:1029B0008F89988DA4D2DC01CB019C8B8B8B8B896A
:1029C0009C89988B8F878F8598890197F1F7988BD1
:1029D0008F8788E060E041E00E94D7078FE060E0E9
:1029E00041E00E94D70787E060E041E00E94D707FE
:1029F00086E060E041E00E94D70785E060E041E0CA
:102A00000E94D707E3E3F0E08FEF8083E4E3F0E098
:102A10008FEF808382E390E00E947A0088EE93E05B
:102A200024DE81E00E9496060E9468036CC080E06C
:102A300090E0A0E2B1E48B879C87AD87BE876B8571
:102A40007C858D859E8520E030E44CE155E439D3CA
:102A5000DC01CB018F839887A987BA876F8178853E
:102A600089859A8520E030E040E85FE3D7D188236C
:102A70002CF481E090E09E838D833BC06F8178854C
:102A800089859A8520E03FEF4FE757E416D3181663
:102A90003CF56B857C858D859E8520E030E040E2AD
:102AA00051E40FD3DC01CB01BC01CD0128D2DC0104
:102AB000CB019E838D830FC08AEF90E09C838B8334
:102AC0008B819C810197F1F79C838B838D819E8103
:102AD00001979E838D838D819E81009769F713C036
:102AE0006F81788589859A850AD2DC01CB019E8326
:102AF0008D838D819E819A83898389819A810197B3
:102B0000F1F79A83898388E00E944509882309F0B8
:102B10008ECFE4E3F0E010824CDE5ADE6C960FB606
:102B2000F894DEBF0FBECDBFCF91DF9108951F9205
:102B30000F920FB60F9200905B000F9211248F93AB
:102B40009F93AF93BF93EF93FF93DF93CF93CDB753
:102B5000DEB78091C2018823D9F08091C2018150F3
:102B60008093C201A6ECB0E08091C301882F90E071
:102B7000FC01E653FE4F80818C938091C3018F5FEF
:102B80008093C3018091C301803411F41092C3017A
:102B9000CF91DF91FF91EF91BF91AF919F918F9175
:102BA0000F9000925B000F900FBE0F901F90189532
:102BB0001F920F920FB60F9200905B000F9211249C
:102BC0002F938F939F93EF93FF93DF93CF930F9266
:102BD000CDB7DEB7E0ECF0E0808189838981882F72
:102BE00090E08C7190700097D9F48091C401882F87
:102BF00090E0E6ECF0E02081FC01E65FFD4F2083F1
:102C00008091C4018F5F8093C4018091C40180349E
:102C100011F41092C4018091C5018F5F8093C501AA
:102C20000F90CF91DF91FF91EF919F918F912F9115
:102C30000F9000925B000F900FBE0F901F901895A1
:102C40001F920F920FB60F9200905B000F9211240B
:102C50008F939F93AF93BF93EF93FF93DF93CF93A4
:102C6000CDB7DEB78091C6018823D9F08091C60127
:102C700081508093C601AEECB0E08091C701882FEF
:102C800090E0FC01E65BFD4F80818C938091C70151
:102C90008F5F8093C7018091C701803411F4109237
:102CA000C701CF91DF91FF91EF91BF91AF919F91BC
:102CB0008F910F9000925B000F900FBE0F901F90AE
:102CC00018951F920F920FB60F9200905B000F9213
:102CD00011242F938F939F93EF93FF93DF93CF93C1
:102CE0000F92CDB7DEB7E8ECF0E08081898389816F
:102CF000882F90E08C7190700097D9F48091C80172
:102D0000882F90E0EEECF0E02081FC01E657FD4FCB
:102D100020838091C8018F5F8093C8018091C80192
:102D2000803411F41092C8018091C9018F5F8093A3
:102D3000C9010F90CF91DF91FF91EF919F918F91FA
:102D40002F910F9000925B000F900FBE0F901F907D
:102D500018955058BB27AA270ED075C166D130F000
:102D60006BD120F031F49F3F11F41EF45BC10EF4DF
:102D7000E095E7FB51C1E92F77D180F3BA176207DD
:102D800073078407950718F071F49EF58FC10EF450
:102D9000E0950B2EBA2FA02D0B01B90190010C016B
:102DA000CA01A0011124FF27591B99F0593F50F483
:102DB000503E68F11A16F040A22F232F342F4427DB
:102DC000585FF3CF469537952795A795F0405395D3
:102DD000C9F77EF41F16BA0B620B730B840BBAF0A3
:102DE0009150A1F0FF0FBB1F661F771F881FC2F70E
:102DF0000EC0BA0F621F731F841F48F48795779522
:102E00006795B795F7959E3F08F0B3CF9395880FD8
:102E100008F09927EE0F979587950895D9D008F473
:102E200081E008950CD00FC107D140F0FED030F002
:102E300021F45F3F19F0F0C0511139C1F3C014D132
:102E400098F39923C9F35523B1F3951B550BBB2771
:102E5000AA2762177307840738F09F5F5F4F220F1E
:102E6000331F441FAA1FA9F333D00E2E3AF0E0E817
:102E700030D091505040E695001CCAF729D0FE2F63
:102E800027D0660F771F881FBB1F261737074807F5
:102E9000AB07B0E809F0BB0B802DBF01FF279358AB
:102EA0005F4F2AF09E3F510568F0B6C000C15F3FFA
:102EB000ECF3983EDCF3869577956795B795F79593
:102EC0009F5FC9F7880F911D9695879597F908958B
:102ED000E1E0660F771F881FBB1F62177307840727
:102EE000BA0720F0621B730B840BBA0BEE1F88F736
:102EF000E095089504D06894B111D9C00895BCD06C
:102F000088F09F5790F0B92F9927B751A0F0D1F0D2
:102F1000660F771F881F991F1AF0BA95C9F712C05C
:102F2000B13081F0C3D0B1E00895C0C0672F782FD1
:102F30008827B85F39F0B93FCCF3869577956795C8
:102F4000B395D9F73EF490958095709561957F4F34
:102F50008F4F9F4F0895E89409C097FB3EF49095DA
:102F60008095709561957F4F8F4F9F4F9923A9F062
:102F7000F92F96E9BB279395F695879577956795F1
:102F8000B795F111F8CFFAF4BB0F11F460FF1BC035
:102F90006F5F7F4F8F4F9F4F16C0882311F096E9C8
:102FA00011C0772321F09EE8872F762F05C0662376
:102FB00071F096E8862F70E060E02AF09A95660F2F
:102FC000771F881FDAF7880F9695879597F90895E8
:102FD000990F0008550FAA0BE0E8FEEF161617062A
:102FE000E807F907C0F012161306E407F50798F092
:102FF000621B730B840B950B39F40A2661F0232BAB
:10300000242B252B21F408950A2609F4A140A69526
:103010008FEF811D811D089597F99F6780E870E00B
:1030200060E008959FEF80EC089500240A9416163E
:10303000170618060906089500240A9412161306A6
:10304000140605060895092E0394000C11F4882334
:1030500052F0BB0F40F4BF2B11F460FF04C06F5F50
:103060007F4F8F4F9F4F089557FD9058440F551F26
:1030700059F05F3F71F04795880F97FB991F61F0FA
:103080009F3F79F087950895121613061406551F71
:10309000F2CF4695F1DF08C0161617061806991FDD
:1030A000F1CF86957105610508940895E894BB27D2
:1030B00066277727CB0197F908958ADF08F48FEF09
:1030C00008950BD0C0CFB1DF28F0B6DF18F09523FC
:1030D00009F0A2CFA7CF1124EACFC6DFA0F3959FB6
:1030E000D1F3950F50E0551F629FF001729FBB27EF
:1030F000F00DB11D639FAA27F00DB11DAA1F649F9B
:103100006627B00DA11D661F829F2227B00DA11D4D
:10311000621F739FB00DA11D621F839FA00D611DD3
:10312000221F749F3327A00D611D231F849F600DF4
:10313000211D822F762F6A2F11249F5750408AF02D
:10314000E1F088234AF0EE0FFF1FBB1F661F771FB9
:10315000881F91505040A9F79E3F510570F05CCFF9
:10316000A6CF5F3FECF3983EDCF3869577956795A5
:10317000B795F795E7959F5FC1F7FE2B880F911DD7
:103180009695879597F908950F931F93CF93DF93A3
:10319000689F8001699F100D789F100D1124C80150
:1031A0000DD0EC01009721F060E070E0A8010BD198
:1031B000CE01DF91CF911F910F910895CF93DF93AF
:1031C000BC018230910510F462E070E0A091D00261
:1031D000B091D102ED01E0E0F0E040E050E021C02C
:1031E000888199818617970769F48A819B81309736
:1031F00019F09383828304C09093D1028093D0020C
:10320000FE0134C06817790738F44115510519F0EB
:103210008417950708F4AC01FE018A819B819C010B
:10322000E9012097E9F641155105A9F1CA01861B6C
:10323000970B049708F4BA01E0E0F0E02AC08D9102
:103240009C91119784179507F9F46417750781F419
:1032500012968D919C911397309719F093838283E6
:1032600004C09093D1028093D002FD0132964FC0EA
:10327000CA01861B970BFD01E80FF91F619371933B
:1032800002978D939C9343C0FD01828193819C01A1
:10329000D9011097A1F68091CE029091CF02892B8F
:1032A00041F480910201909103019093CF028093A9
:1032B000CE0240910401509105014115510541F4A0
:1032C0004DB75EB78091000190910101481B590BE9
:1032D0002091CE023091CF0224173507B0F4CA01F5
:1032E000821B930B8617970780F0AB014E5F5F4FF1
:1032F0008417950750F0420F531F5093CF0240930D
:10330000CE02F9016193719302C0E0E0F0E0CF01D9
:10331000DF91CF910895CF93DF93009709F450C0C8
:10332000EC0122971B821A82A091D002B091D102A7
:10333000109709F140E050E0AC17BD0708F1BB83DE
:10334000AA83FE0121913191E20FF31FAE17BF074F
:1033500079F48D919C911197280F391F2E5F3F4F63
:103360003983288312968D919C9113979B838A832E
:103370004115510571F4D093D102C093D00220C001
:1033800012968D919C911397AD01009711F0DC017D
:10339000D3CFFA01D383C28321913191E20FF31F7E
:1033A000CE17DF0769F488819981280F391F2E5FB6
:1033B0003F4FFA01318320838A819B8193838283EB
:1033C000DF91CF910895DC0101C06D9341505040D1
:0833D000E0F70895F894FFCF27
:1033D8002000D202000006010601000000000000E3
:1033E800495500F4010000006E01000055009C04DE
:1033F8000000001E0100005500700300000041FF9E
:1034080000004C04D403000000410100008403D4F0
:103418000300000041FF00005500C4040000004103
:103428000100005500C404000000410100005500DF
:10343800C404000000410100005500C4040000005D
:10344800410100005500C4040000004101000000D3
:00000001FF
