:1000000049C0000065C0000063C0000061C000007E
:100010005FC000005DC000005BC0000059C0000070
:1000200057C0000055C0000053C0000051C0000080
:100030000C948D0A4DC000004BC0000049C0000068
:1000400047C0000045C00000C6C5000041C0000018
:100050003FC000000C94CA0C3BC000000C94890CFB
:1000600037C0000035C0000033C0000031C00000C0
:100070002FC000002DC000002BC0000029C00000D0
:100080000C94530D25C000000C94120D21C00000EB
:100090001FC0000011241FBECFEFD0E1DEBFCDBFD7
:1000A00011E0A0E0B1E0ECEBF1E200E00BBF02C038
:1000B00007900D92AA30B107D9F712E0AAE0B1E09B
:1000C00001C01D92A135B107E1F703D00C94DC10FB
:1000D00097CFDF93CF93CDB7DEB762970FB6F89483
:1000E000DEBF0FBECDBF0E94030B80E090E0A8EC06
:1000F000B2E48B879C87AD87BE876B857C858D85B9
:100100009E8520E030E44CE155E40E94530FDC0171
:10011000CB018F839887A987BA876F817885898576
:100120009A8520E030E040E85FE30E94000E8823DB
:100130002CF481E090E09E838D833FC06F817885B1
:1001400089859A8520E03FEF4FE757E40E944F0FE3
:1001500018164CF56B857C858D859E8520E030E0FA
:1001600040E251E40E94530FDC01CB01BC01CD0100
:100170000E94710EDC01CB019E838D830FC08AEF3C
:1001800090E09C838B838B819C810197F1F79C830A
:100190008B838D819E8101979E838D838D819E812E
:1001A000009769F714C06F81788589859A850E94C8
:1001B000710EDC01CB019E838D838D819E819A839C
:1001C000898389819A810197F1F79A8389838DEFD9
:1001D0000E945A0C992787FD90959A8B898B83E012
:1001E0000E942B0C992787FD9095988B8F87898982
:1001F0009A898130910529F08F8598898130910500
:1002000029F4E4E3F0E08FEF8083E1CFE4E3F0E072
:100210001082DDCF0F931F93DF93CF9300D0CDB724
:10022000DEB79A838983ADE2B0E0EDE2F0E0808151
:1002300088638C93A4E2B0E0E4E2F0E0808180681F
:100240008C93E4E9F0E011821082E6E4F0E01082A1
:10025000E8E9F0E011821082EAE9F0E01182108210
:10026000ECE9F0E011821082E0E9F0E08EEB8083AF
:10027000E1E9F0E08AE18083E4E4F0E08BE680836A
:1002800006E910E089819A81CC01A0E0B0E0BC01D0
:10029000CD010E949D0EDC01CB01BC01CD0120E00F
:1002A00030E040E051E40E94530FDC01CB019C019F
:1002B000AD0160E876E988E19BE40E94040EDC0170
:1002C000CB01BC01CD0120E030E040E05FE30E94C3
:1002D0009C0DDC01CB01BC01CD010E94710EDC0143
:1002E000CB01F801918380830F900F90CF91DF9124
:1002F0001F910F910895EF92FF920F931F93DF9339
:10030000CF9300D000D0CDB7DEB79C838B83E6E9D6
:10031000F0E080819181CC01A0E0B0E0BC01CD0192
:100320000E949D0EDC01CB01BC01CD0120E030E03C
:100330004FE753E40E94040EDC01CB017C018D01E8
:100340008B819C81AA2797FDA095BA2FBC01CD0176
:100350000E949F0E9B01AC01C801B7010E94530F80
:10036000DC01CB01BC01CD0120E030E040E05FE3E7
:100370000E949C0DDC01CB01BC01CD010E94710EDD
:10038000DC01CB019A838983E9E9F0E089819A81D4
:10039000892F99278083E8E9F0E0898180830F9095
:1003A0000F900F900F90CF91DF911F910F91FF90C1
:1003B000EF900895EF92FF920F931F93DF93CF93E7
:1003C00000D000D0CDB7DEB79C838B83E6E9F0E0A8
:1003D00080819181CC01A0E0B0E0BC01CD010E9400
:1003E0009D0EDC01CB01BC01CD0120E030E04FE7E8
:1003F00053E40E94040EDC01CB017C018D018B8152
:100400009C81AA2797FDA095BA2FBC01CD010E941F
:100410009F0E9B01AC01C801B7010E94530FDC0184
:10042000CB01BC01CD0120E030E040E05FE30E9461
:100430009C0DDC01CB01BC01CD010E94710EDC01E1
:10044000CB019A838983EBE9F0E089819A81892F36
:1004500099278083EAE9F0E0898180830F900F90EB
:100460000F900F90CF91DF911F910F91FF90EF9020
:100470000895EF92FF920F931F93DF93CF9300D0D5
:1004800000D0CDB7DEB79C838B83E6E9F0E08081B6
:100490009181CC01A0E0B0E0BC01CD010E949D0E95
:1004A000DC01CB01BC01CD0120E030E04FE753E49B
:1004B0000E94040EDC01CB017C018D018B819C81AB
:1004C000AA2797FDA095BA2FBC01CD010E949F0ECF
:1004D0009B01AC01C801B7010E94530FDC01CB01A5
:1004E000BC01CD0120E030E040E05FE30E949C0DC4
:1004F000DC01CB01BC01CD010E94710EDC01CB01FE
:100500009A838983EDE9F0E089819A81892F99277F
:100510008083ECE9F0E0898180830F900F900F9049
:100520000F90CF91DF911F910F91FF90EF90089561
:10053000DF93CF930F92CDB7DEB789838981992757
:1005400087FD9095A92FB92FBC01CD010E949F0E68
:10055000DC01CB01BC01CD0120E030E044EB52E4F2
:100560000E94040EDC01CB01BC01CD0126E636E67B
:1005700046E351EC0E94530FDC01CB01BC01CD01DD
:1005800020E030E04CE653E40E949C0DDC01CB01FE
:100590009C01AD0160E070E08FE793E40E949B0D49
:1005A000DC01CB01BC01CD010E946C0EDC01CB0152
:1005B000A2DE0F90CF91DF910895DF93CF930F923A
:1005C000CDB7DEB789838981992787FD9095A92FBB
:1005D000B92FBC01CD010E949F0EDC01CB01BC01F3
:1005E000CD0120E030E044EB52E40E94040EDC0137
:1005F000CB01BC01CD0126E636E646E351EC0E9474
:10060000530FDC01CB01BC01CD0120E030E04CE612
:1006100053E40E949C0DDC01CB019C01AD0160E024
:1006200070E08FE793E40E949B0DDC01CB01BC01DD
:10063000CD010E946C0EDC01CB01BCDE0F90CF918E
:10064000DF910895DF93CF930F92CDB7DEB7898303
:100650008981992787FD9095A92FB92FBC01CD01DC
:100660000E949F0EDC01CB01BC01CD0120E030E0F7
:1006700044EB52E40E94040EDC01CB01BC01CD012D
:1006800026E636E646E351EC0E94530FDC01CB012F
:10069000BC01CD0120E030E04CE653E40E949C0D0B
:1006A000DC01CB019C01AD0160E070E08FE793E4D9
:1006B0000E949B0DDC01CB01BC01CD010E946C0EA0
:1006C000DC01CB01D6DE0F90CF91DF910895DF934F
:1006D000CF930F92CDB7DEB78983E7E4F0E089814D
:1006E00080830F90CF91DF910895DF93CF93CDB7A3
:1006F000DEB783EEA7DF84E6EADFCF91DF910895CE
:10070000DF93CF93CDB7DEB76C970FB6F894DEBF0B
:100710000FBECDBF8AEA0CDF80E090E0AAE7B4E428
:10072000898F9A8FAB8FBC8F698D7A8D8B8D9C8DC5
:1007300020E030E44CE155E40E94530FDC01CB0192
:100740008D8B9E8BAF8BB88F6D897E898F89988DAD
:1007500020E030E040E85FE30E94000E88232CF4A4
:1007600081E090E09C8B8B8B3FC06D897E898F8967
:10077000988D20E03FEF4FE757E40E944F0F181687
:100780004CF5698D7A8D8B8D9C8D20E030E040E2B8
:1007900051E40E94530FDC01CB01BC01CD010E944A
:1007A000710EDC01CB019C8B8B8B0FC08AEF90E02C
:1007B0009A8B898B89899A890197F1F79A8B898B12
:1007C0008B899C8901979C8B8B8B8B899C8900974B
:1007D00069F714C06D897E898F89988D0E94710E8A
:1007E000DC01CB019C8B8B8B8B899C89988B8F87B1
:1007F0008F8598890197F1F7988B8F8780E0DDDEF0
:1008000080E090E0AAE7B4E48B879C87AD87BE8741
:100810006B857C858D859E8520E030E44CE155E438
:100820000E94530FDC01CB018F839887A987BA8779
:100830006F81788589859A8520E030E040E85FE324
:100840000E94000E88232CF481E090E09E838D832B
:100850003FC06F81788589859A8520E03FEF4FE71B
:1008600057E40E944F0F18164CF56B857C858D85DB
:100870009E8520E030E040E251E40E94530FDC010D
:10088000CB01BC01CD010E94710EDC01CB019E8326
:100890008D830FC08AEF90E09C838B838B819C813A
:1008A0000197F1F79C838B838D819E8101979E83B5
:1008B0008D838D819E81009769F714C06F81788543
:1008C00089859A850E94710EDC01CB019E838D8300
:1008D0008D819E819A83898389819A810197F1F71D
:1008E0009A8389836C960FB6F894DEBF0FBECDBF96
:1008F000CF91DF910895DF93CF93CDB7DEB7AA975D
:100900000FB6F894DEBF0FBECDBF8AE556DE80E09D
:1009100090E0AAE7B4E48FA398A7A9A7BAA76FA10C
:1009200078A589A59AA520E030E44CE155E40E9421
:10093000530FDC01CB018BA39CA3ADA3BEA36BA182
:100940007CA18DA19EA120E030E040E85FE30E9401
:10095000000E88232CF481E090E09AA389A33FC085
:100960006BA17CA18DA19EA120E03FEF4FE757E452
:100970000E944F0F18164CF56FA178A589A59AA56E
:1009800020E030E040E251E40E94530FDC01CB0153
:10099000BC01CD010E94710EDC01CB019AA389A399
:1009A0000FC08AEF90E098A38F8F8F8D98A1019749
:1009B000F1F798A38F8F89A19AA101979AA389A390
:1009C00089A19AA1009769F714C06BA17CA18DA1A0
:1009D0009EA10E94710EDC01CB019AA389A389A17B
:1009E0009AA19E8F8D8F8D8D9E8D0197F1F79E8F91
:1009F0008D8F85E59DDD80E090E0AAE7B4E4898FE6
:100A00009A8FAB8FBC8F698D7A8D8B8D9C8D20E0FA
:100A100030E44CE155E40E94530FDC01CB018D8B97
:100A20009E8BAF8BB88F6D897E898F89988D20E0E2
:100A300030E040E85FE30E94000E88232CF481E060
:100A400090E09C8B8B8B3FC06D897E898F89988DC0
:100A500020E03FEF4FE757E40E944F0F18164CF588
:100A6000698D7A8D8B8D9C8D20E030E040E251E4E1
:100A70000E94530FDC01CB01BC01CD010E94710E1D
:100A8000DC01CB019C8B8B8B0FC08AEF90E09A8BA3
:100A9000898B89899A890197F1F79A8B898B8B8940
:100AA0009C8901979C8B8B8B8B899C89009769F71C
:100AB00014C06D897E898F89988D0E94710EDC012A
:100AC000CB019C8B8B8B8B899C89988B8F878F8597
:100AD00098890197F1F7988B8F8780E06EDD80E031
:100AE00090E0AAEFB3E48B879C87AD87BE876B85C8
:100AF0007C858D859E8520E030E44CE155E40E94A4
:100B0000530FDC01CB018F839887A987BA876F8148
:100B1000788589859A8520E030E040E85FE30E948F
:100B2000000E88232CF481E090E09E838D833FC0EB
:100B30006F81788589859A8520E03FEF4FE757E4FC
:100B40000E944F0F18164CF56B857C858D859E8510
:100B500020E030E040E251E40E94530FDC01CB0181
:100B6000BC01CD010E94710EDC01CB019E838D83FF
:100B70000FC08AEF90E09C838B838B819C810197CF
:100B8000F1F79C838B838D819E8101979E838D835A
:100B90008D819E81009769F714C06F817885898562
:100BA0009A850E94710EDC01CB019E838D838D811D
:100BB0009E819A83898389819A810197F1F79A832B
:100BC000898393DDAA960FB6F894DEBF0FBECDBF22
:100BD000CF91DF9108951F920F920FB60F92009060
:100BE0005B000F9211242F933F934F935F938F934A
:100BF0009F93AF93BF93EF93FF93DF93CF9300D077
:100C000000D0CDB7DEB7EDEEF0E080818C831B82A3
:100C10009CC0EDEEF0E08B818295807F8083EEEECC
:100C2000F0E08081829586958770882F90E08170B2
:100C30009070882309F46EC0EFEEF0E080E88083C6
:100C4000AEEEB0E0EEEEF0E080818F7D8C93E2EFCF
:100C5000F0E08081829586958770282FE3EFF0E0A1
:100C60008081882F90E0880F991F880F991F880F27
:100C7000991F822B8A8319822AC08A81282F30E00B
:100C800081E090E0821B930B880F991F90958195CE
:100C90009F4FFC01E65FFE4F408151818A81882F82
:100CA00090E00197FC01E25EFE4F8081282F30E04A
:100CB0008981882F90E0820F931FDA01A80FB91F56
:100CC000EAEFF0E080818C9389818F5F898389814D
:100CD000883098F28A81882F90E00197FC01E25ECB
:100CE000FE4F80818F5F80838081853041F48A81CF
:100CF000882F90E00197FC01E25EFE4F10828A810E
:100D0000882F90E00197FC01EE5CFE4F80818F5FA1
:100D100080831FC0EEEEF0E08081829586958695F7
:100D20008370882F90E081709070882359F0EFEEE7
:100D3000F0E01082AEEEB0E0EEEEF0E080818F7B6E
:100D40008C9307C08B818F5F8B838B818F3008F4EE
:100D500060CFEDEEF0E08C818083AAEDB0E0EAEDAB
:100D6000F0E080818C930F900F900F900F90CF91B7
:100D7000DF91FF91EF91BF91AF919F918F915F9123
:100D80004F913F912F910F9000925B000F900FBEFB
:100D90000F901F901895DF93CF9300D0CDB7DEB79B
:100DA000E8EDF0E081E080831A8232C0EDEEF0E001
:100DB0008A818295807F8083EEEEF0E01082EFEEF4
:100DC000F0E01082E3EFF0E01082E2EFF0E010825A
:100DD000E1EFF0E01082E0EFF0E01082E7EFF0E00A
:100DE0001082E6EFF0E01082E5EFF0E01082E4EF31
:100DF000F0E01082198206C0EAEFF0E010828981EB
:100E00008F5F898389818830B8F38A818F5F8A8375
:100E10008A818F3058F2E8EDF0E082E08083E2EEE4
:100E2000F0E081E08083E3EEF0E088E08083E4EEB0
:100E3000F0E08EE58083E5EEF0E01082EBEDF0E08F
:100E400080EB8083EFEDF0E08FE78083EEEDF0E064
:100E50008FEF808378940F900F90CF91DF9108955A
:100E6000DF93CF9300D000D00F92CDB7DEB79C8335
:100E70008B83EDEEF0E080818983E9EDF0E0808105
:100E800082958F70882F90E0817090708823A9F7E9
:100E9000E9EDF0E08081869586958695882F90E033
:100EA00081709070882349F71A823FC0EDEEF0E020
:100EB0008A818295807F8083EFEEF0E08081829549
:100EC000869586958370882369F5EFEEF0E08FE0D4
:100ED0008083E3EFF0E08B819C81907096958795FD
:100EE00096958795969587958083E2EFF0E08B81C4
:100EF0008295880F807E8083E6EFF0E080EE80832D
:100F0000E7EFF0E08FEF8083AFEEB0E0EFEEF0E0E0
:100F1000808180688C93EDEEF0E08981808381E0B0
:100F20008D830CC08A818F5F8A838A818F3008F419
:100F3000BDCFEDEEF0E0898180831D828D810F9021
:100F40000F900F900F900F90CF91DF9108950F9316
:100F50001F93DF93CF9300D0CDB7DEB78A831BDF1B
:100F6000198235C08981882F90E0019679DF8981C7
:100F7000882F90E0880F991F8C01065F1E4F85E037
:100F800090E061E070E0F2D7F8019183808389817D
:100F9000482F50E08981282F30E08981882F90E008
:100FA000FC01EE5CFE4F1082FC01EE5CFE4F808186
:100FB000F901E85DFE4F8083F901E85DFE4F808115
:100FC000FA01E25EFE4F808389818F5F8983998178
:100FD0008A81981738F20F900F90CF91DF911F916F
:100FE0000F910895DF93CF93CDB7DEB72C970FB64F
:100FF000F894DEBF0FBECDBF89876A874B8780918B
:101000000801909109019C838B838B819C810697B9
:1010100098878F8314C0EF81F88590818985981710
:1010200019F421E02C87C8C0EF81F885808591856F
:101030009A83898389819A81069798878F838F8184
:101040009885069621E08630920729F7898586954E
:10105000869586958F5F8E83898587708D838A8537
:10106000813009F048C08E81282F30E0C901880FF7
:10107000991F820F931F4E96DC018E81282F30E03E
:10108000C901880F991F820F931F4E96FC01808122
:10109000482F8D81282F30E081E090E002C0880F3A
:1010A000991F2A95E2F7842B8C938E81282F30E0AC
:1010B000C901880F991F820F931F4F96DC018E8103
:1010C000282F30E0C901880F991F820F931F4F9678
:1010D000FC018081482F8D81282F30E081E090E055
:1010E000022E02C0880F991F0A94E2F7809584238C
:1010F0008C931C8661C08E81282F30E0C901880F37
:10110000991F820F931F4E96DC018E81282F30E0AD
:10111000C901880F991F820F931F4E96FC01808191
:10112000482F8D81282F30E081E090E002C0880FA9
:10113000991F2A95E2F7809584238C938E81282F1E
:1011400030E0C901880F991F820F931F4F96DC0171
:101150008E81282F30E0C901880F991F820F931FBD
:101160004F96FC018081482F8D81282F30E081E04F
:1011700090E002C0880F991F2A95E2F7842B8C9388
:101180008AE090E00DD798878F838F8198850097AC
:1011900019F481E08C8710C0EF81F8858985808300
:1011A000EF81F8858B8581838F819885069626E06F
:1011B00031E0B9010BD01C868C852C960FB6F894C3
:1011C000DEBF0FBECDBFCF91DF910895DF93CF93E8
:1011D00000D000D0CDB7DEB79A8389837C836B8340
:1011E000EB81FC814281538189819A812B813C81F1
:1011F000B90107D00F900F900F900F90CF91DF9112
:101200000895DF93CF9300D000D000D0CDB7DEB7E4
:101210009A8389837C836B835E834D83ED81FE811A
:1012200089819A8191838083E981FA818D819E8170
:1012300093838283E981FA818B819C81918380836E
:10124000EB81FC8189819A819383828326960FB6F4
:10125000F894DEBF0FBECDBFCF91DF910895DF932D
:10126000CF9300D00F92CDB7DEB78B838B8186955D
:10127000869586958F5F8A838B8187708B838A8121
:10128000282F30E0C901880F991F820F931F4D96B8
:10129000FC01808189838981282F30E08B81882F10
:1012A00090E0A90102C0559547958A95E2F7CA01D9
:1012B00081700F900F900F90CF91DF910895DF9381
:1012C000CF93CDB7DEB72B970FB6F894DEBF0FBE26
:1012D000CDBF898780910801909109019E838D83FC
:1012E0008D819E81069798878F8355C0EF81F88501
:1012F00090818985981709F043C01C8221C08C8198
:10130000282F30E08F819885820F931FFC01329641
:1013100040818C81882F90E09C012F5F3F4F8F810F
:101320009885820F931FFC0132968081481729F01F
:10133000EF81F88525812B8738C08C818F5F8C8366
:101340008C818230E0F2EF81F885918181E08927FC
:10135000882329F0EF81F88582818A8708C0EF8190
:10136000F88582811A86882311F421E02A878A85EC
:101370008B83EF81F8858B8185832B812B8715C02B
:10138000EF81F885808591859A83898389819A8107
:10139000069798878F838F819885069621E08630FF
:1013A000920709F0A3CF81E08B878B852B960FB630
:1013B000F894DEBF0FBECDBFCF91DF9108950F939C
:1013C0001F93DF93CF9300D000D000D0CDB7DEB70E
:1013D00080910801909109019C838B838B819C8172
:1013E00006979E838D831BC000913C0110913D01A7
:1013F000ED81FE81808133DF282F8D819E81800FDA
:10140000911FFC0132962083ED81FE8180859185BC
:101410009A83898389819A8106979E838D838D81A2
:101420009E81069621E086309207F1F680913C017C
:1014300090913D01019690933D0180933C018091F4
:101440003C0190913D018330910521F410923D01C2
:1014500010923C0126960FB6F894DEBF0FBECDBFAA
:10146000CF91DF911F910F910895DF93CF9300D01B
:10147000CDB7DEB79A83898389819A8190933F01A2
:1014800080933E010F900F90CF91DF9108950F93BD
:101490001F93DF93CF9300D0CDB7DEB79A838983B4
:1014A000E0E8F0E01082E1E8F0E089E0808308E81D
:1014B00010E089819A81CC01A0E0B0E0BC01CD01AF
:1014C0003CD49B01AC0160E876E988E19BE49CD3C5
:1014D000DC01CB01BC01CD0120E030E040E05FE366
:1014E0002BD3DC01CB01BC01CD01FBD3DC01CB0153
:1014F000F80191838083EFE6F0E082E08083AFE53E
:10150000B0E0EFE5F0E0808180688C930F900F9061
:10151000CF91DF911F910F9108951F920F920FB6F7
:101520000F9200905B000F9211242F933F934F93E3
:101530005F936F937F938F939F93AF93BF93EF933B
:10154000FF93DF93CF93CDB7DEB780913E019091AB
:101550003F01009729F0E0913E01F0913F0109958C
:101560008091400190914101A0914201B0914301CD
:10157000803828E3920721E0A20720E0B20708F0B4
:10158000BFD88091400190914101A0914201B0915A
:1015900043010196A11DB11D80934001909341012B
:1015A000A0934201B0934301CF91DF91FF91EF915E
:1015B000BF91AF919F918F917F916F915F914F916B
:1015C0003F912F910F9000925B000F900FBE0F90F4
:1015D0001F901895DF93CF93CDB7DEB710924001DF
:1015E000109241011092420110924301CF91DF917C
:1015F0000895DF93CF93CDB7DEB781E080934401A8
:10160000CF91DF910895DF93CF93CDB7DEB76C977D
:101610000FB6F894DEBF0FBECDBF8FED99E025DF8A
:1016200080E090E0A8ECB2E4898F9A8FAB8FBC8FFA
:10163000698D7A8D8B8D9C8D20E030E44CE155E4F2
:1016400032D4DC01CB018D8B9E8BAF8BB88F6D8933
:101650007E898F89988D20E030E040E85FE3D0D22A
:1016600088232CF481E090E09C8B8B8B3BC06D89B0
:101670007E898F89988D20E03FEF4FE757E40FD4A4
:1016800018163CF5698D7A8D8B8D9C8D20E030E0AD
:1016900040E251E408D4DC01CB01BC01CD0121D3EF
:1016A000DC01CB019C8B8B8B0FC08AEF90E09A8B77
:1016B000898B89899A890197F1F79A8B898B8B8914
:1016C0009C8901979C8B8B8B8B899C89009769F7F0
:1016D00013C06D897E898F89988D03D3DC01CB017E
:1016E0009C8B8B8B8B899C89988B8F878F85988916
:1016F0000197F1F7988B8F8788E060E041E072DC1A
:101700008EE060E041E06EDC80E060E041E06ADCB9
:1017100081E060E041E066DC82E060E041E062DCC4
:1017200089E060E041E05EDC8AE060E041E05ADCB4
:101730008CE060E041E056DC8DE060E041E052DCAE
:10174000E3E3F0E08FEF808382E390E00E940A0100
:1017500088EE93E09CDE81E0FADBCDD86CC080E0BF
:1017600090E0A0E2B1E48B879C87AD87BE876B8554
:101770007C858D859E8520E030E44CE155E493D353
:10178000DC01CB018F839887A987BA876F81788521
:1017900089859A8520E030E040E85FE331D28823F4
:1017A0002CF481E090E09E838D833BC06F8178852F
:1017B00089859A8520E03FEF4FE757E470D31816EC
:1017C0003CF56B857C858D859E8520E030E040E290
:1017D00051E469D3DC01CB01BC01CD0182D2DC0133
:1017E000CB019E838D830FC08AEF90E09C838B8317
:1017F0008B819C810197F1F79C838B838D819E81E6
:1018000001979E838D838D819E81009769F713C018
:101810006F81788589859A8564D2DC01CB019E83AE
:101820008D838D819E819A83898389819A81019795
:10183000F1F79A83898388E042DD882309F08FCF0E
:10184000C9DED7DE6C960FB6F894DEBF0FBECDBFF3
:10185000CF91DF910895DF93CF9300D0CDB7DEB75E
:1018600089838981813039F489E029DD8130D9F497
:1018700081E08A8319C08981823039F48AE01FDDD2
:10188000813089F481E08A830FC08981833059F4E3
:1018900089E015DD813021F08AE011DD813019F415
:1018A00081E08A8301C01A828A810F900F90CF91C4
:1018B000DF910895DF93CF9300D0CDB7DEB7898352
:1018C00089818F3F39F48CE0FADC8130D9F481E0F2
:1018D0008A8319C089818E3F39F48DE0F0DC813034
:1018E00089F481E08A830FC089818D3F59F48CE0AF
:1018F000E6DC813021F08DE0E2DC813019F481E01A
:101900008A8301C01A828A810F900F90CF91DF9154
:1019100008951F920F920FB60F9200905B000F92E6
:1019200011248F939F93AF93BF93EF93FF93DF9314
:10193000CF93CDB7DEB7809145018823D9F0809150
:101940004501815080934501A6ECB0E080914601AD
:10195000882F90E0FC01E35BFE4F80818C938091A7
:1019600046018F5F8093460180914601803411F4D7
:1019700010924601CF91DF91FF91EF91BF91AF910E
:101980009F918F910F9000925B000F900FBE0F9070
:101990001F9018951F920F920FB60F9200905B0048
:1019A0000F9211242F938F939F93EF93FF93DF93C5
:1019B000CF930F92CDB7DEB7E0ECF0E08081898362
:1019C0008981882F90E08C7190700097D9F4809174
:1019D0004701882F90E0E6ECF0E02081FC01E3571E
:1019E000FE4F2083809147018F5F80934701809154
:1019F0004701803411F410924701809148018F5FB4
:101A0000809348010F90CF91DF91FF91EF919F91CB
:101A10008F912F910F9000925B000F900FBE0F904F
:101A20001F9018951F920F920FB60F9200905B00B7
:101A30000F9211248F939F93AF93BF93EF93FF93D4
:101A4000DF93CF93CDB7DEB7809149018823D9F0DA
:101A500080914901815080934901AEECB0E08091C2
:101A60004A01882F90E0FC01E353FE4F80818C9364
:101A700080914A018F5F80934A0180914A018034AE
:101A800011F410924A01CF91DF91FF91EF91BF9134
:101A9000AF919F918F910F9000925B000F900FBEBE
:101AA0000F901F9018951F920F920FB60F920090F3
:101AB0005B000F9211242F938F939F93EF93FF93CB
:101AC000DF93CF930F92CDB7DEB7E8ECF0E08081E3
:101AD00089838981882F90E08C7190700097D9F468
:101AE00080914B01882F90E0EEECF0E02081FC012A
:101AF000E35FFD4F208380914B018F5F80934B010B
:101B000080914B01803411F410924B0180914C0173
:101B10008F5F80934C010F90CF91DF91FF91EF91F8
:101B20009F918F912F910F9000925B000F900FBEAD
:101B30000F901F9018955058BB27AA270ED075C13B
:101B400066D130F06BD120F031F49F3F11F41EF4D8
:101B50005BC10EF4E095E7FB51C1E92F77D180F32B
:101B6000BA17620773078407950718F071F49EF59A
:101B70008FC10EF4E0950B2EBA2FA02D0B01B901E9
:101B800090010C01CA01A0011124FF27591B99F0F3
:101B9000593F50F4503E68F11A16F040A22F232FFF
:101BA000342F4427585FF3CF469537952795A7954F
:101BB000F0405395C9F77EF41F16BA0B620B730BF6
:101BC000840BBAF09150A1F0FF0FBB1F661F771F67
:101BD000881FC2F70EC0BA0F621F731F841F48F41C
:101BE000879577956795B795F7959E3F08F0B3CFA2
:101BF0009395880F08F09927EE0F9795879508958C
:101C0000D9D008F481E008950CD00FC107D140F07D
:101C1000FED030F021F45F3F19F0F0C0511139C10E
:101C2000F3C014D198F39923C9F35523B1F3951B4D
:101C3000550BBB27AA2762177307840738F09F5FED
:101C40005F4F220F331F441FAA1FA9F333D00E2E5C
:101C50003AF0E0E830D091505040E695001CCAF7C9
:101C600029D0FE2F27D0660F771F881FBB1F26178E
:101C700037074807AB07B0E809F0BB0B802DBF0161
:101C8000FF2793585F4F2AF09E3F510568F0B6C07A
:101C900000C15F3FECF3983EDCF38695779567953E
:101CA000B795F7959F5FC9F7880F911D9695879512
:101CB00097F90895E1E0660F771F881FBB1F621731
:101CC00073078407BA0720F0621B730B840BBA0BEF
:101CD000EE1F88F7E095089504D06894B111D9C03B
:101CE0000895BCD088F09F5790F0B92F9927B7512D
:101CF000A0F0D1F0660F771F881F991F1AF0BA95D0
:101D0000C9F712C0B13081F0C3D0B1E00895C0C0AE
:101D1000672F782F8827B85F39F0B93FCCF38695C5
:101D200077956795B395D9F73EF490958095709522
:101D300061957F4F8F4F9F4F0895E89409C097FB9F
:101D40003EF490958095709561957F4F8F4F9F4F92
:101D50009923A9F0F92F96E9BB279395F6958795D6
:101D600077956795B795F111F8CFFAF4BB0F11F499
:101D700060FF1BC06F5F7F4F8F4F9F4F16C0882340
:101D800011F096E911C0772321F09EE8872F762F76
:101D900005C0662371F096E8862F70E060E02AF0B7
:101DA0009A95660F771F881FDAF7880F96958795A3
:101DB00097F90895990F0008550FAA0BE0E8FEEF78
:101DC00016161706E807F907C0F012161306E407FF
:101DD000F50798F0621B730B840B950B39F40A26F8
:101DE00061F0232B242B252B21F408950A2609F4D6
:101DF000A140A6958FEF811D811D089597F99F67DA
:101E000080E870E060E008959FEF80EC0895002482
:101E10000A941616170618060906089500240A944F
:101E200012161306140605060895092E0394000CD5
:101E300011F4882352F0BB0F40F4BF2B11F460FF64
:101E400004C06F5F7F4F8F4F9F4F089557FD90588D
:101E5000440F551F59F05F3F71F04795880F97FB6E
:101E6000991F61F09F3F79F0879508951216130628
:101E70001406551FF2CF4695F1DF08C01616170657
:101E80001806991FF1CF869571056105089408958C
:101E9000E894BB2766277727CB0197F908958ADF57
:101EA00008F48FEF08950BD0C0CFB1DF28F0B6DF74
:101EB00018F0952309F0A2CFA7CF1124EACFC6DFEF
:101EC000A0F3959FD1F3950F50E0551F629FF0014D
:101ED000729FBB27F00DB11D639FAA27F00DB11DA6
:101EE000AA1F649F6627B00DA11D661F829F22272F
:101EF000B00DA11D621F739FB00DA11D621F839FB6
:101F0000A00D611D221F749F3327A00D611D231F8B
:101F1000849F600D211D822F762F6A2F11249F57D9
:101F200050408AF0E1F088234AF0EE0FFF1FBB1FFC
:101F3000661F771F881F91505040A9F79E3F51059B
:101F400070F05CCFA6CF5F3FECF3983EDCF3869554
:101F500077956795B795F795E7959F5FC1F7FE2B46
:101F6000880F911D9695879597F908950F931F9364
:101F7000CF93DF93689F8001699F100D789F100DAC
:101F80001124C8010DD0EC01009721F060E070E051
:101F9000A8010BD1CE01DF91CF911F910F91089530
:101FA000CF93DF93BC018230910510F462E070E0C2
:101FB000A0914F02B0915002ED01E0E0F0E040E06E
:101FC00050E021C0888199818617970769F48A813A
:101FD0009B81309719F09383828304C090935002C1
:101FE00080934F02FE0134C06817790738F4411519
:101FF000510519F08417950708F4AC01FE018A8198
:102000009B819C01E9012097E9F641155105A9F151
:10201000CA01861B970B049708F4BA01E0E0F0E0D0
:102020002AC08D919C91119784179507F9F4641734
:10203000750781F412968D919C911397309719F042
:102040009383828304C09093500280934F02FD01DA
:1020500032964FC0CA01861B970BFD01E80FF91F8E
:102060006193719302978D939C9343C0FD0182818C
:1020700093819C01D9011097A1F680914D02909116
:102080004E02892B41F480910201909103019093BB
:102090004E0280934D02409104015091050141157B
:1020A000510541F44DB75EB7809100019091010157
:1020B000481B590B20914D0230914E0224173507D1
:1020C000B0F4CA01821B930B8617970780F0AB010F
:1020D0004E5F5F4F8417950750F0420F531F509388
:1020E0004E0240934D02F9016193719302C0E0E00A
:1020F000F0E0CF01DF91CF910895CF93DF93009768
:1021000009F450C0EC0122971B821A82A0914F0261
:10211000B0915002109709F140E050E0AC17BD07B4
:1021200008F1BB83AA83FE0121913191E20FF31FD5
:10213000AE17BF0779F48D919C911197280F391F25
:102140002E5F3F4F3983288312968D919C91139770
:102150009B838A834115510571F4D0935002C0933B
:102160004F0220C012968D919C911397AD0100975C
:1021700011F0DC01D3CFFA01D383C28321913191D5
:10218000E20FF31FCE17DF0769F488819981280FCA
:10219000391F2E5F3F4FFA01318320838A819B8153
:1021A00093838283DF91CF910895DC0101C06D9309
:0C21B00041505040E0F70895F894FFCF34
:0A21BC002000510200000601060198
:00000001FF
