:1000000049C0000065C0000063C0000061C000007E
:100010005FC000005DC000005BC0000059C0000070
:1000200057C0000055C0000053C0000051C0000080
:100030000C94C8174DC000004BC0000049C0000020
:1000400047C0000045C000003DC5000041C00000A1
:100050003FC000000C94BB193BC000000C947A19FF
:1000600037C0000035C0000033C0000031C00000C0
:100070002FC000002DC000002BC0000029C00000D0
:100080000C94441A25C000000C94031A21C00000EF
:100090001FC0000011241FBECFEFD0E1DEBFCDBFD7
:1000A00011E0A0E0B1E0EEE9FBE300E00BBF02C02D
:1000B00007900D92A437B107D9F712E0A4E7B1E099
:1000C00001C01D92AC3BB107E1F703D00C94CD1DEC
:1000D00097CFDF93CF93CDB7DEB762970FB6F89483
:1000E000DEBF0FBECDBF0E94501880E090E0A8ECAC
:1000F000B2E48B879C87AD87BE876B857C858D85B9
:100100009E8520E030E44CE155E40E94441CDC0173
:10011000CB018F839887A987BA876F817885898576
:100120009A8520E030E040E85FE30E94F11A8823DE
:100130002CF481E090E09E838D833FC06F817885B1
:1001400089859A8520E03FEF4FE757E40E94401CE5
:1001500018164CF56B857C858D859E8520E030E0FA
:1001600040E251E40E94441CDC01CB01BC01CD0102
:100170000E94621BDC01CB019E838D830FC08AEF3E
:1001800090E09C838B838B819C810197F1F79C830A
:100190008B838D819E8101979E838D838D819E812E
:1001A000009769F714C06F81788589859A850E94C8
:1001B000621BDC01CB019E838D838D819E819A839E
:1001C000898389819A810197F1F79A8389830E94B3
:1001D000EC0FFDCF0F931F93DF93CF9300D0CDB7DC
:1001E000DEB79A838983ADE2B0E0EDE2F0E0808192
:1001F00088638C93A4E2B0E0E4E2F0E08081806860
:100200008C93E4E9F0E011821082E6E4F0E01082E1
:10021000E8E9F0E011821082EAE9F0E01182108250
:10022000ECE9F0E011821082E0E9F0E08EEB8083EF
:10023000E1E9F0E08AE18083E4E4F0E08BE68083AA
:1002400006E910E089819A81CC01A0E0B0E0BC0110
:10025000CD010E948E1BDC01CB01BC01CD0120E051
:1002600030E040E051E40E94441CDC01CB019C01E1
:10027000AD0160E876E988E19BE40E94F51ADC01B3
:10028000CB01BC01CD0120E030E040E05FE30E9403
:100290008D1ADC01CB01BC01CD010E94621BDC0187
:1002A000CB01F801918380830F900F90CF91DF9164
:1002B0001F910F910895EF92FF920F931F93DF9379
:1002C000CF9300D000D0CDB7DEB79C838B83E6E917
:1002D000F0E080819181CC01A0E0B0E0BC01CD01D3
:1002E0000E948E1BDC01CB01BC01CD0120E030E07F
:1002F0004FE753E40E94F51ADC01CB017C018D012C
:100300008B819C81AA2797FDA095BA2FBC01CD01B6
:100310000E94901B9B01AC01C801B7010E94441CC4
:10032000DC01CB01BC01CD0120E030E040E05FE327
:100330000E948D1ADC01CB01BC01CD010E94621B21
:10034000DC01CB019A838983E9E9F0E089819A8114
:10035000892F99278083E8E9F0E0898180830F90D5
:100360000F900F900F90CF91DF911F910F91FF9001
:10037000EF900895EF92FF920F931F93DF93CF9327
:1003800000D000D0CDB7DEB79C838B83E6E9F0E0E8
:1003900080819181CC01A0E0B0E0BC01CD010E9440
:1003A0008E1BDC01CB01BC01CD0120E030E04FE72A
:1003B00053E40E94F51ADC01CB017C018D018B8195
:1003C0009C81AA2797FDA095BA2FBC01CD010E9460
:1003D000901B9B01AC01C801B7010E94441CDC01C9
:1003E000CB01BC01CD0120E030E040E05FE30E94A2
:1003F0008D1ADC01CB01BC01CD010E94621BDC0126
:10040000CB019A838983EBE9F0E089819A81892F76
:1004100099278083EAE9F0E0898180830F900F902B
:100420000F900F90CF91DF911F910F91FF90EF9060
:100430000895EF92FF920F931F93DF93CF9300D015
:1004400000D0CDB7DEB79C838B83E6E9F0E08081F6
:100450009181CC01A0E0B0E0BC01CD010E948E1BD7
:10046000DC01CB01BC01CD0120E030E04FE753E4DB
:100470000E94F51ADC01CB017C018D018B819C81EE
:10048000AA2797FDA095BA2FBC01CD010E94901B11
:100490009B01AC01C801B7010E94441CDC01CB01E7
:1004A000BC01CD0120E030E040E05FE30E948D1A06
:1004B000DC01CB01BC01CD010E94621BDC01CB0140
:1004C0009A838983EDE9F0E089819A81892F9927C0
:1004D0008083ECE9F0E0898180830F900F900F908A
:1004E0000F90CF91DF911F910F91FF90EF900895A2
:1004F000DF93CF930F92CDB7DEB789838981992798
:1005000087FD9095A92FB92FBC01CD010E94901BAA
:10051000DC01CB01BC01CD0120E030E044EB52E432
:100520000E94F51ADC01CB01BC01CD0126E636E6BE
:1005300046E351EC0E94441CDC01CB01BC01CD011F
:1005400020E030E04CE653E40E948D1ADC01CB0140
:100550009C01AD0160E070E08FE793E40E948C1A8B
:10056000DC01CB01BC01CD010E945D1BDC01CB0194
:10057000A2DE0F90CF91DF910895DF93CF930F927A
:10058000CDB7DEB789838981992787FD9095A92FFB
:10059000B92FBC01CD010E94901BDC01CB01BC0135
:1005A000CD0120E030E044EB52E40E94F51ADC017A
:1005B000CB01BC01CD0126E636E646E351EC0E94B4
:1005C000441CDC01CB01BC01CD0120E030E04CE655
:1005D00053E40E948D1ADC01CB019C01AD0160E067
:1005E00070E08FE793E40E948C1ADC01CB01BC0120
:1005F000CD010E945D1BDC01CB01BCDE0F90CF91D1
:10060000DF910895DF93CF930F92CDB7DEB7898343
:100610008981992787FD9095A92FB92FBC01CD011C
:100620000E94901BDC01CB01BC01CD0120E030E039
:1006300044EB52E40E94F51ADC01CB01BC01CD0170
:1006400026E636E646E351EC0E94441CDC01CB0171
:10065000BC01CD0120E030E04CE653E40E948D1A4D
:10066000DC01CB019C01AD0160E070E08FE793E419
:100670000E948C1ADC01CB01BC01CD010E945D1BE4
:10068000DC01CB01D6DE0F90CF91DF910895DF938F
:10069000CF930F92CDB7DEB78983E7E4F0E089818D
:1006A00080830F90CF91DF910895DF93CF93CDB7E3
:1006B000DEB786EFA7DF80E5EADFCF91DF9108950F
:1006C000DF93CF93CDB7DEB789E59CDF8AEFDFDF1D
:1006D000CF91DF910895DF93CF93CDB7DEB72E97FB
:1006E0000FB6F894DEBF0FBECDBF8AE546DF80E0CF
:1006F00090E0AAEFB4E48B879C87AD87BE876B85BB
:100700007C858D859E8520E030E44CE155E40E9497
:10071000441CDC01CB018F839887A987BA876F813E
:10072000788589859A8520E030E040E85FE30E9483
:10073000F11A88232CF481E090E09E838D833FC0E2
:100740006F81788589859A8520E03FEF4FE757E4F0
:100750000E94401C18164CF56B857C858D859E8506
:1007600020E030E040E251E40E94441CDC01CB0177
:10077000BC01CD010E94621BDC01CB019E838D83F5
:100780000FC08AEF90E09C838B838B819C810197C3
:10079000F1F79C838B838D819E8101979E838D834E
:1007A0008D819E81009769F714C06F817885898556
:1007B0009A850E94621BDC01CB019E838D838D8113
:1007C0009E819A83898389819A810197F1F79A831F
:1007D000898386E48DDE2E960FB6F894DEBF0FBEB9
:1007E000CDBFCF91DF910895DF93CF93CDB7DEB723
:1007F000AA970FB6F894DEBF0FBECDBF8AE5BDDE67
:1008000080E090E0AAE7B4E48FA398A7A9A7BAA7CD
:100810006FA178A589A59AA520E030E44CE155E4C4
:100820000E94441CDC01CB018BA39CA3ADA3BEA3FF
:100830006BA17CA18DA19EA120E030E040E85FE3A8
:100840000E94F11A88232CF481E090E09AA389A3F6
:100850003FC06BA17CA18DA19EA120E03FEF4FE79F
:1008600057E40E94401C18164CF56FA178A589A585
:100870009AA520E030E040E251E40E94441CDC01F3
:10088000CB01BC01CD010E94621BDC01CB019AA30C
:1008900089A30FC08AEF90E098A38F8F8F8D98A1C6
:1008A0000197F1F798A38F8F89A19AA101979AA335
:1008B00089A389A19AA1009769F714C06BA17CA1B3
:1008C0008DA19EA10E94621BDC01CB019AA389A38A
:1008D00089A19AA19E8F8D8F8D8D9E8D0197F1F7A5
:1008E0009E8F8D8F80E090E0AAE7B4E4898F9A8F85
:1008F000AB8FBC8F698D7A8D8B8D9C8D20E030E421
:100900004CE155E40E94441CDC01CB018D8B9E8B95
:10091000AF8BB88F6D897E898F89988D20E030E00C
:1009200040E85FE30E94F11A88232CF481E090E014
:100930009C8B8B8B3FC06D897E898F89988D20E041
:100940003FEF4FE757E40E94401C18164CF5698DA5
:100950007A8D8B8D9C8D20E030E040E251E40E9446
:10096000441CDC01CB01BC01CD010E94621BDC01F7
:10097000CB019C8B8B8B0FC08AEF90E09A8B898B7D
:1009800089899A890197F1F79A8B898B8B899C8940
:1009900001979C8B8B8B8B899C89009769F714C07E
:1009A0006D897E898F89988D0E94621BDC01CB0145
:1009B0009C8B8B8B8B899C89988B8F878F85988953
:1009C0000197F1F7988B8F878EE1D7DD80E090E07B
:1009D000AAEFB3E48B879C87AD87BE876B857C8548
:1009E0008D859E8520E030E44CE155E40E94441C56
:1009F000DC01CB018F839887A987BA876F817885BF
:100A000089859A8520E030E040E85FE30E94F11A92
:100A100088232CF481E090E09E838D833FC06F811A
:100A2000788589859A8520E03FEF4FE757E40E945B
:100A3000401C18164CF56B857C858D859E8520E0C5
:100A400030E040E251E40E94441CDC01CB01BC01D7
:100A5000CD010E94621BDC01CB019E838D830FC000
:100A60008AEF90E09C838B838B819C810197F1F7C7
:100A70009C838B838D819E8101979E838D838D8145
:100A80009E81009769F714C06F81788589859A8562
:100A90000E94621BDC01CB019E838D838D819E8130
:100AA0009A83898389819A810197F1F79A8389834F
:100AB000FCDDAA960FB6F894DEBF0FBECDBFCF9176
:100AC000DF9108951F920F920FB60F9200905B0076
:100AD0000F9211242F933F934F935F938F939F9384
:100AE000AF93BF93EF93FF93DF93CF9300D000D0EA
:100AF000CDB7DEB7EDEEF0E080818C831B829CC029
:100B0000EDEEF0E08B818295807F8083EEEEF0E069
:100B10008081829586958770882F90E08170907093
:100B2000882309F46EC0EFEEF0E080E88083AEEE3B
:100B3000B0E0EEEEF0E080818F7D8C93E2EFF0E0AC
:100B40008081829586958770282FE3EFF0E0808181
:100B5000882F90E0880F991F880F991F880F991F81
:100B6000822B8A8319822AC08A81282F30E081E073
:100B700090E0821B930B880F991F909581959F4F52
:100B8000FC01EC58FE4F408151818A81882F90E012
:100B90000197FC01E857FE4F8081282F30E08981C2
:100BA000882F90E0820F931FDA01A80FB91FEAEF98
:100BB000F0E080818C9389818F5F8983898188307F
:100BC00098F28A81882F90E00197FC01E857FE4F48
:100BD00080818F5F80838081853041F48A81882F76
:100BE00090E00197FC01E857FE4F10828A81882F20
:100BF00090E00197FC01E456FE4F80818F5F808377
:100C00001FC0EEEEF0E08081829586958695837018
:100C1000882F90E081709070882359F0EFEEF0E01B
:100C20001082AEEEB0E0EEEEF0E080818F7B8C9330
:100C300007C08B818F5F8B838B818F3008F460CFEF
:100C4000EDEEF0E08C818083AAEDB0E0EAEDF0E01B
:100C500080818C930F900F900F900F90CF91DF9128
:100C6000FF91EF91BF91AF919F918F915F914F91C4
:100C70003F912F910F9000925B000F900FBE0F904D
:100C80001F901895DF93CF9300D0CDB7DEB7E8ED76
:100C9000F0E081E080831A8232C0EDEEF0E08A81DC
:100CA0008295807F8083EEEEF0E01082EFEEF0E040
:100CB0001082E3EFF0E01082E2EFF0E01082E1EF6B
:100CC000F0E01082E0EFF0E01082E7EFF0E0108259
:100CD000E6EFF0E01082E5EFF0E01082E4EFF0E004
:100CE0001082198206C0EAEFF0E0108289818F5FDE
:100CF000898389818830B8F38A818F5F8A838A816A
:100D00008F3058F2E8EDF0E082E08083E2EEF0E030
:100D100081E08083E3EEF0E088E08083E4EEF0E0C1
:100D20008EE58083E5EEF0E01082EBEDF0E080EB05
:100D30008083EFEDF0E08FE78083EEEDF0E08FEF62
:100D4000808378940F900F90CF91DF910895DF9377
:100D5000CF9300D000D00F92CDB7DEB79C838B83AA
:100D6000EDEEF0E080818983E9EDF0E0808182950D
:100D70008F70882F90E0817090708823A9F7E9ED3B
:100D8000F0E08081869586958695882F90E0817029
:100D90009070882349F71A823FC0EDEEF0E08A8117
:100DA0008295807F8083EFEEF0E08081829586954A
:100DB00086958370882369F5EFEEF0E08FE08083FD
:100DC000E3EFF0E08B819C819070969587959695E6
:100DD0008795969587958083E2EFF0E08B818295E9
:100DE000880F807E8083E6EFF0E080EE8083E7EF7F
:100DF000F0E08FEF8083AFEEB0E0EFEEF0E08081C7
:100E000080688C93EDEEF0E08981808381E08D83B2
:100E10000CC08A818F5F8A838A818F3008F4BDCFAE
:100E2000EDEEF0E0898180831D828D810F900F901F
:100E30000F900F900F90CF91DF9108950F931F9314
:100E4000DF93CF9300D0CDB7DEB78A831BDF198243
:100E500036C08981882F90E0019679DF8981882FBB
:100E600090E0880F991F8C010C581E4F85E090E090
:100E700061E070E00E94A71CF80191838083898162
:100E8000482F50E08981282F30E08981882F90E019
:100E9000FC01E456FE4F1082FC01E456FE4F8081B7
:100EA000F901EE56FE4F8083F901EE56FE4F808128
:100EB000FA01E857FE4F808389818F5F898399818A
:100EC0008A81981730F20F900F90CF91DF911F9188
:100ED0000F910895DF93CF9300D000D0CDB7DEB748
:100EE0009B838A836C83E4E3F0E08FEF80838C81C3
:100EF000882F90E00197FC01E456FE4F8081882303
:100F0000B1F3198230C08981282F30E08A819B811A
:100F1000DC01A20FB31F8C81282F30E081E090E02C
:100F2000821B930B880F991F909581959F4FFC0111
:100F3000EC58FE4F408151818C81882F90E00197C1
:100F4000FC01EE56FE4F8081282F30E08981882FEA
:100F500090E0820F931FFA01E80FF91F80818C93B4
:100F600089818F5F89838981883068F28C81882F9D
:100F700090E00197FC01EE56FE4F80818F5F8083E9
:100F80008081853041F48C81882F90E00197FC01AD
:100F9000EE56FE4F10828C81882F90E09C012150EC
:100FA0003040F901E456FE4F80818150F901E4564A
:100FB000FE4F808380E00F900F900F900F90CF91A5
:100FC000DF910895DF93CF93CDB7DEB727970FB6A4
:100FD000F894DEBF0FBECDBF9D838C836E83E9ED99
:100FE000F0E0808182958F70882F90E08170907002
:100FF0008823A9F7E9EDF0E08081869586958695AE
:10100000882F90E081709070882349F7EDEEF0E032
:10101000808189831A8212C0EDEEF0E08A81829588
:10102000807F8083EFEEF0E08081829586958695C3
:101030008370882331F08A818F5F8A838A818F3021
:1010400058F38A818F3019F48FEF8F8332C0E2EF2B
:10105000F0E08E818295880F807E8083E3EFF0E060
:101060008E818695869586958083EFEEF0E088E008
:1010700080831B820FC0AAEFB0E08B81282F30E065
:101080008C819D81FC01E20FF31F80818C938B8109
:101090008F5F8B838B81883070F3AFEEB0E0EFEE23
:1010A000F0E0808180648C93EDEEF0E089818083B4
:1010B0001F828F8127960FB6F894DEBF0FBECDBF7B
:1010C000CF91DF910895DF93CF93CDB7DEB72C9703
:1010D0000FB6F894DEBF0FBECDBF89876A874B87F6
:1010E00080910801909109019C838B838B819C8165
:1010F000069798878F8314C0EF81F8859081898542
:10110000981719F421E02C87C9C0EF81F8858085F4
:1011100091859A83898389819A81069798878F839D
:101120008F819885069621E08630920729F7898578
:101130008695869586958F5F8E83898587708D834A
:101140008A85813009F048C08E81282F30E0C9019E
:10115000880F991F820F931F4E96DC018E81282FD6
:1011600030E0C901880F991F820F931F4E96FC0132
:101170008081482F8D81282F30E081E090E002C0EF
:10118000880F991F2A95E2F7842B8C938E81282F44
:1011900030E0C901880F991F820F931F4F96DC0121
:1011A0008E81282F30E0C901880F991F820F931F6D
:1011B0004F96FC018081482F8D81282F30E081E0FF
:1011C00090E0022E02C0880F991F0A94E2F78095E2
:1011D00084238C931C8662C08E81282F30E0C90145
:1011E000880F991F820F931F4E96DC018E81282F46
:1011F00030E0C901880F991F820F931F4E96FC01A2
:101200008081482F8D81282F30E081E090E002C05E
:10121000880F991F2A95E2F7809584238C938E81FD
:10122000282F30E0C901880F991F820F931F4F9616
:10123000DC018E81282F30E0C901880F991F820FB1
:10124000931F4F96FC018081482F8D81282F30E01D
:1012500081E090E002C0880F991F2A95E2F7842B65
:101260008C938AE090E00E94C11C98878F838F81C5
:101270009885009719F481E08C8710C0EF81F8857C
:1012800089858083EF81F8858B8581838F8198851F
:10129000069626E031E0B9010BD01C868C852C9691
:1012A0000FB6F894DEBF0FBECDBFCF91DF9108958A
:1012B000DF93CF9300D000D0CDB7DEB79A83898378
:1012C0007C836B83EB81FC814281538189819A818C
:1012D0002B813C81B90107D00F900F900F900F9098
:1012E000CF91DF910895DF93CF9300D000D000D04D
:1012F000CDB7DEB79A8389837C836B835E834D830E
:10130000ED81FE8189819A8191838083E981FA81CF
:101310008D819E8193838283E981FA818B819C8177
:1013200091838083EB81FC8189819A81938382837D
:1013300026960FB6F894DEBF0FBECDBFCF91DF91DA
:101340000895DF93CF9300D00F92CDB7DEB78B8394
:101350008B818695869586958F5F8A838B81877032
:101360008B838A81282F30E0C901880F991F820F53
:10137000931F4D96FC01808189838981282F30E05D
:101380008B81882F90E0A90102C0559547958A95D9
:10139000E2F7CA0181700F900F900F90CF91DF910B
:1013A0000895DF93CF93CDB7DEB72B970FB6F894A0
:1013B000DEBF0FBECDBF89878091080190910901E2
:1013C0009E838D838D819E81069798878F8355C0DC
:1013D000EF81F88590818985981709F043C01C82B8
:1013E00021C08C81282F30E08F819885820F931F38
:1013F000FC01329640818C81882F90E09C012F5F08
:101400003F4F8F819885820F931FFC013296808118
:10141000481729F0EF81F88525812B8738C08C810A
:101420008F5F8C838C818230E0F2EF81F88591812F
:1014300081E08927882329F0EF81F88582818A87D6
:1014400008C0EF81F88582811A86882311F421E093
:101450002A878A858B83EF81F8858B8185832B8111
:101460002B8715C0EF81F885808591859A838983C4
:1014700089819A81069798878F838F8198850696B0
:1014800021E08630920709F0A3CF81E08B878B851E
:101490002B960FB6F894DEBF0FBECDBFCF91DF9174
:1014A00008950F931F93DF93CF9300D000D000D007
:1014B000CDB7DEB780910801909109019C838B83A1
:1014C0008B819C8106979E838D831BC00091A60112
:1014D0001091A701ED81FE81808133DF282F8D815E
:1014E0009E81800F911FFC0132962083ED81FE8149
:1014F000808591859A83898389819A8106979E83C5
:101500008D838D819E81069621E086309207F1F6CB
:101510008091A6019091A70101969093A7018093D5
:10152000A6018091A6019091A7018330910521F435
:101530001092A7011092A60126960FB6F894DEBF6E
:101540000FBECDBFCF91DF911F910F910895DF9313
:10155000CF93CDB7DEB767970FB6F894DEBF0FBE57
:10156000CDBF8F8B9091A8018F89891709F481C015
:1015700086E58F878F89888B72C080E090E0A8E431
:10158000B2E48B879C87AD87BE876B857C858D8514
:101590009E8520E030E44CE155E40E94441CDC01CF
:1015A000CB018F839887A987BA876F8178858985D2
:1015B0009A8520E030E040E85FE30E94F11A88233A
:1015C0002CF481E090E09E838D833FC06F8178850D
:1015D00089859A8520E03FEF4FE757E40E94401C41
:1015E00018164CF56B857C858D859E8520E030E056
:1015F00040E251E40E94441CDC01CB01BC01CD015E
:101600000E94621BDC01CB019E838D830FC08AEF99
:1016100090E09C838B838B819C810197F1F79C8365
:101620008B838D819E8101979E838D838D819E8189
:10163000009769F714C06F81788589859A850E9423
:10164000621BDC01CB019E838D838D819E819A83F9
:10165000898389819A810197F1F79A838983CE01E1
:101660000F9663ECAFDC882309F087CF8F898093D6
:10167000A80167960FB6F894DEBF0FBECDBFCF911D
:10168000DF910895DF93CF93CDB7DEB766970FB69E
:10169000F894DEBF0FBECDBF80E58F8772C080E0BB
:1016A00090E0A8E4B2E48B879C87AD87BE876B850A
:1016B0007C858D859E8520E030E44CE155E40E94D8
:1016C000441CDC01CB018F839887A987BA876F817F
:1016D000788589859A8520E030E040E85FE30E94C4
:1016E000F11A88232CF481E090E09E838D833FC023
:1016F0006F81788589859A8520E03FEF4FE757E431
:101700000E94401C18164CF56B857C858D859E8546
:1017100020E030E040E251E40E94441CDC01CB01B7
:10172000BC01CD010E94621BDC01CB019E838D8335
:101730000FC08AEF90E09C838B838B819C81019703
:10174000F1F79C838B838D819E8101979E838D838E
:101750008D819E81009769F714C06F817885898596
:101760009A850E94621BDC01CB019E838D838D8153
:101770009E819A83898389819A810197F1F79A835F
:101780008983CE010F9663EC1DDC882309F087CF97
:10179000CE010F9661E09EDB8F85809310018889D2
:1017A000882F90E0382F22278989882F90E0822B7C
:1017B000932B90930B0180930A018A89882F90E0E4
:1017C000382F22278B89882F90E0822B932B9093A0
:1017D0000D0180930C018C89882F90E0382F2227EF
:1017E0008D89882F90E0822B932B90930F0180930B
:1017F0000E0166960FB6F894DEBF0FBECDBFCF9137
:10180000DF910895DF93CF93CDB7DEB727970FB65B
:10181000F894DEBF0FBECDBF9E838D830E943F181C
:10182000AA2797FDA095BA2F89839A83AB83BC839F
:1018300029DF8D819E81009771F089819A81AB812A
:10184000BC81ED81FE81BC01CD010995813019F487
:1018500081E08F8309C0809110018D3449F380911C
:101860001001823529F31F828F8127960FB6F894D5
:10187000DEBF0FBECDBFCF91DF910895DF93CF9331
:10188000CDB7DEB76B970FB6F894DEBF0FBECDBFF6
:10189000988F8F8B698F5B8F4A8F898D58DE8F89E8
:1018A000988D909581959F4F988F8F8B84E48F872B
:1018B0008F89988D892F990F990B888B8F89898BA8
:1018C00072C080E090E0A8E4B2E48B879C87AD878B
:1018D000BE876B857C858D859E8520E030E44CE15C
:1018E00055E40E94441CDC01CB018F839887A987B3
:1018F000BA876F81788589859A8520E030E040E855
:101900005FE30E94F11A88232CF481E090E09E832B
:101910008D833FC06F81788589859A8520E03FEF70
:101920004FE757E40E94401C18164CF56B857C85E8
:101930008D859E8520E030E040E251E40E94441C09
:10194000DC01CB01BC01CD010E94621BDC01CB019B
:101950009E838D830FC08AEF90E09C838B838B8165
:101960009C810197F1F79C838B838D819E810197E8
:101970009E838D838D819E81009769F714C06F814E
:10198000788589859A850E94621BDC01CB019E8344
:101990008D838D819E819A83898389819A81019724
:1019A000F1F79A838983CE010F9663EC0BDB8823D2
:1019B00009F087CF8A8D9B8D25DF6B960FB6F89443
:1019C000DEBF0FBECDBFCF91DF910895DF93CF93E0
:1019D000CDB7DEB76C970FB6F894DEBF0FBECDBFA4
:1019E000988F8F8B698F4A8F3C8F2B8F898DAFDDBE
:1019F00087E48F87EF89F88D80819181892F990FF6
:101A0000990B888BEF89F88D80819181898BEF8983
:101A1000F88D82819381892F990F990B8A8BEF8999
:101A2000F88D828193818B8B1C8A8A8D81958D8B19
:101A300072C080E090E0A8E4B2E48B879C87AD8719
:101A4000BE876B857C858D859E8520E030E44CE1EA
:101A500055E40E94441CDC01CB018F839887A98741
:101A6000BA876F81788589859A8520E030E040E8E3
:101A70005FE30E94F11A88232CF481E090E09E83BA
:101A80008D833FC06F81788589859A8520E03FEFFF
:101A90004FE757E40E94401C18164CF56B857C8577
:101AA0008D859E8520E030E040E251E40E94441C98
:101AB000DC01CB01BC01CD010E94621BDC01CB012A
:101AC0009E838D830FC08AEF90E09C838B838B81F4
:101AD0009C810197F1F79C838B838D819E81019777
:101AE0009E838D838D819E81009769F714C06F81DD
:101AF000788589859A850E94621BDC01CB019E83D3
:101B00008D838D819E819A83898389819A810197B2
:101B1000F1F79A838983CE010F9663EC53DA882319
:101B200009F087CF8B8D9C8D6DDE6C960FB6F89487
:101B3000DEBF0FBECDBFCF91DF910895DF93CF936E
:101B4000CDB7DEB769970FB6F894DEBF0FBECDBF35
:101B5000998F888F89E4888BE88DF98D80819181B8
:101B6000892F990F990B898BE88DF98D808191814F
:101B70008A8BE88DF98D82819381892F990F990B3A
:101B80008B8BE88DF98D828193818C8BE88DF98D1B
:101B90008481958181958F878F85992787FD909581
:101BA000892F990F990B8D8B8F858E8BE88DF98DF1
:101BB0008081918190930B0180930A01E88DF98DCA
:101BC0008281938190930D0180930C01E88DF98DB2
:101BD00084819581909581959F4F90930F0180937B
:101BE0000E0172C080E090E0A8E4B2E48B879C878D
:101BF000AD87BE876B857C858D859E8520E030E432
:101C00004CE155E40E94441CDC01CB018F83988792
:101C1000A987BA876F81788589859A8520E030E029
:101C200040E85FE30E94F11A88232CF481E090E001
:101C30009E838D833FC06F81788589859A8520E05A
:101C40003FEF4FE757E40E94401C18164CF56B8598
:101C50007C858D859E8520E030E040E251E40E9445
:101C6000441CDC01CB01BC01CD010E94621BDC01E4
:101C7000CB019E838D830FC08AEF90E09C838B8382
:101C80008B819C810197F1F79C838B838D819E8151
:101C900001979E838D838D819E81009769F714C083
:101CA0006F81788589859A850E94621BDC01CB0152
:101CB0009E838D838D819E819A83898389819A8178
:101CC0000197F1F79A838983CE01409663EC7AD924
:101CD000882309F087CF69960FB6F894DEBF0FBE50
:101CE000CDBFCF91DF910895DF93CF93CDB7DEB70E
:101CF0006B970FB6F894DEBF0FBECDBF988F8F8B5A
:101D0000698F5B8F4A8F898D22DC8F89988D9095A2
:101D100081959F4F988F8F8B84E58F878F89988DC2
:101D2000892F990F990B888B8F89898B72C080E0DE
:101D300090E0A8E4B2E48B879C87AD87BE876B8573
:101D40007C858D859E8520E030E44CE155E40E9441
:101D5000441CDC01CB018F839887A987BA876F81E8
:101D6000788589859A8520E030E040E85FE30E942D
:101D7000F11A88232CF481E090E09E838D833FC08C
:101D80006F81788589859A8520E03FEF4FE757E49A
:101D90000E94401C18164CF56B857C858D859E85B0
:101DA00020E030E040E251E40E94441CDC01CB0121
:101DB000BC01CD010E94621BDC01CB019E838D839F
:101DC0000FC08AEF90E09C838B838B819C8101976D
:101DD000F1F79C838B838D819E8101979E838D83F8
:101DE0008D819E81009769F714C06F817885898500
:101DF0009A850E94621BDC01CB019E838D838D81BD
:101E00009E819A83898389819A810197F1F79A83C8
:101E10008983CE010F9663ECD5D8882309F087CF4C
:101E20008A8D9B8DEFDC6B960FB6F894DEBF0FBEEC
:101E3000CDBFCF91DF910895DF93CF93CDB7DEB7BC
:101E40006B970FB6F894DEBF0FBECDBF988F8F8B08
:101E5000698F5B8F4A8F898D7ADB8F89988D9095FA
:101E600081959F4F988F8F8B81E48F878F89988D75
:101E7000892F990F990B888B8F89898B72C080E08D
:101E800090E0A8E4B2E48B879C87AD87BE876B8522
:101E90007C858D859E8520E030E44CE155E40E94F0
:101EA000441CDC01CB018F839887A987BA876F8197
:101EB000788589859A8520E030E040E85FE30E94DC
:101EC000F11A88232CF481E090E09E838D833FC03B
:101ED0006F81788589859A8520E03FEF4FE757E449
:101EE0000E94401C18164CF56B857C858D859E855F
:101EF00020E030E040E251E40E94441CDC01CB01D0
:101F0000BC01CD010E94621BDC01CB019E838D834D
:101F10000FC08AEF90E09C838B838B819C8101971B
:101F2000F1F79C838B838D819E8101979E838D83A6
:101F30008D819E81009769F714C06F8178858985AE
:101F40009A850E94621BDC01CB019E838D838D816B
:101F50009E819A83898389819A810197F1F79A8377
:101F60008983CE010F9663EC2DD8882309F087CFA3
:101F70008A8D9B8D47DC6B960FB6F894DEBF0FBE43
:101F8000CDBFCF91DF910895DF93CF9300D000D0E4
:101F9000CDB7DEB769837A838B839C830E9460030D
:101FA00080E00F900F900F900F90CF91DF910895E8
:101FB000DF93CF9300D000D0CDB7DEB769837A83AB
:101FC0008B839C830E94550380E00F900F900F90AD
:101FD0000F90CF91DF9108950F931F93DF93CF93CD
:101FE000CDB7DEB7CC5AD0400FB6F894DEBF0FBEE7
:101FF000CDBFFE01E256FF4F1082FE01E356FF4FB8
:102000001082FE01E556FF4F82E08083FE01E1561B
:10201000FF4F84EB90E091838083FE01E156FF4FF8
:1020200082EF93E093838283FE01E156FF4F8AE5BE
:1020300090E095838483CE0181569F4F7FDDFE0122
:10204000E556FF4F8081992787FD90958230910555
:10205000B1F7FE01E256FF4FDE01A356BF4F8C9150
:10206000808336C7FE01E256FF4F8081482F50E043
:10207000CA01880F991F9C01220F331F220F331FA3
:10208000820F931F840F951F8F5E9E4FBC01FE0130
:10209000E256FF4F8081482F50E0CA01880F991FF8
:1020A0009C01220F331F220F331F820F931F840FB7
:1020B000951FFC01E85EFE4FA081FE01E256FF4F36
:1020C0008081482F50E0CA01880F991F9C01220F80
:1020D000331F220F331F820F931F840F951FFC01A4
:1020E000E75EFE4F8081B82FFE01E256FF4F8081F0
:1020F000482F50E0CA01880F991F9C01220F331FFF
:10210000220F331F820F931F840F951FFC01E65E81
:10211000FE4F20813181CB016A2F4B2F57DCFE010E
:10212000E456FF4F8083FE01E456FF4F80818130EB
:1021300009F485CFFE01E256FF4F8081813039F0EE
:10214000FE01E256FF4F8081833009F0B5C0FE01E9
:10215000E956FF4F80E090E0AAE7B4E480839183E2
:10216000A283B3838E010D561F4FFE01E956FF4F28
:10217000608171818281938120E030E44CE155E4FB
:102180000E94441CDC01CB01F80180839183A2836F
:10219000B383FE01ED56FF4F60817181828193818F
:1021A00020E030E040E85FE30E94F11A882344F425
:1021B000FE01EF56FF4F81E090E09183808364C081
:1021C000FE01ED56FF4F608171818281938120E095
:1021D0003FEF4FE757E40E94401C18160CF043C035
:1021E000FE01E956FF4F608171818281938120E079
:1021F00030E040E251E40E94441CDC01CB018E013E
:102200000F561F4FBC01CD010E94621BDC01CB01A8
:10221000F801918380831FC0FE01E157FF4F8AEFD1
:1022200090E091838083FE01E157FF4F808191818F
:102230000197F1F7FE01E157FF4F91838083DE01A3
:10224000AF56BF4FFE01EF56FF4F8081918101973E
:1022500011969C938E93FE01EF56FF4F80819181E2
:102260000097D1F62CC68E010F561F4FFE01ED567A
:10227000FF4F60817181828193810E94621BDC012A
:10228000CB01F80191838083DE01A357BF4FFE018C
:10229000EF56FF4F8081918111969C938E93FE01A2
:1022A000E357FF4F808191810197F1F7FE01E357DA
:1022B000FF4F9183808303C6FE01E256FF4F80816A
:1022C000863009F0E0C284E60E944703FE01E7572A
:1022D000FF4F80E090E0A8E4B4E480839183A28380
:1022E000B3838E010B571F4FFE01E757FF4F6081ED
:1022F00071818281938120E030E44CE155E40E94B9
:10230000441CDC01CB01F80180839183A283B38359
:10231000FE01EB57FF4F608171818281938120E044
:1023200030E040E85FE30E94F11A882344F4FE01A4
:10233000ED57FF4F81E090E09183808364C0FE0100
:10234000EB57FF4F608171818281938120E03FEFE5
:102350004FE757E40E94401C18160CF043C0FE01E2
:10236000E757FF4F608171818281938120E030E0E7
:1023700040E251E40E94441CDC01CB018E010D5768
:102380001F4FBC01CD010E94621BDC01CB01F80193
:10239000918380831FC0FE01EF57FF4F8AEF90E0CB
:1023A00091838083FE01EF57FF4F808191810197D8
:1023B000F1F7FE01EF57FF4F91838083DE01AD57A8
:1023C000BF4FFE01ED57FF4F80819181019711961C
:1023D0009C938E93FE01ED57FF4F80819181009772
:1023E000D1F627C08E010D571F4FFE01EB57FF4F4F
:1023F00060817181828193810E94621BDC01CB012B
:10240000F80191838083DE01A158BF4FFE01ED5793
:10241000FF4F808191818D939C93FE01E158FF4F86
:10242000808191810197F1F7FE01E158FF4F91837F
:1024300080838DE290E06EE140E050E055DCFE01EB
:10244000E558FF4F80E090E0AAEFB3E480839183EA
:10245000A283B3838E0109581F4FFE01E558FF4F39
:10246000608171818281938120E030E44CE155E408
:102470000E94441CDC01CB01F80180839183A2837C
:10248000B383FE01E958FF4F60817181828193819E
:1024900020E030E040E85FE30E94F11A882344F432
:1024A000FE01EB58FF4F81E090E09183808364C090
:1024B000FE01E958FF4F608171818281938120E0A4
:1024C0003FEF4FE757E40E94401C18160CF043C042
:1024D000FE01E558FF4F608171818281938120E088
:1024E00030E040E251E40E94441CDC01CB018E014B
:1024F0000B581F4FBC01CD010E94621BDC01CB01B8
:10250000F801918380831FC0FE01ED58FF4F8AEFD1
:1025100090E091838083FE01ED58FF4F808191818F
:102520000197F1F7FE01ED58FF4F91838083DE01A3
:10253000AB58BF4FFE01EB58FF4F8081918101974F
:1025400011969C938E93FE01EB58FF4F80819181F1
:102550000097D1F627C08E010B581F4FFE01E95896
:10256000FF4F60817181828193810E94621BDC0137
:10257000CB01F80191838083DE01AF58BF4FFE018C
:10258000EB58FF4F808191818D939C93FE01EF5812
:10259000FF4F808191810197F1F7FE01EF58FF4FC6
:1025A0009183808384E10E940203FE01E359FF4F7F
:1025B00080E090E0A8E4B4E480839183A283B383B5
:1025C0008E0107591F4FFE01E359FF4F6081718152
:1025D0008281938120E030E44CE155E40E94441C68
:1025E000DC01CB01F80180839183A283B383FE01D8
:1025F000E759FF4F608171818281938120E030E053
:1026000040E85FE3EED7882344F4FE01E959FF4F29
:1026100081E090E09183808363C0FE01E759FF4F22
:10262000608171818281938120E03FEF4FE757E421
:102630000E94401C18160CF043C0FE01E359FF4FE6
:10264000608171818281938120E030E040E251E439
:102650000E94441CDC01CB018E0109591F4FBC01B3
:10266000CD010E94621BDC01CB01F80191838083C4
:102670001FC0FE01EB59FF4F8AEF90E091838083EA
:10268000FE01EB59FF4F808191810197F1F7FE0127
:10269000EB59FF4F91838083DE01A959BF4FFE01A3
:1026A000E959FF4F80819181019711969C938E93F8
:1026B000FE01E959FF4F808191810097D1F626C034
:1026C0008E0109591F4FFE01E759FF4F608171814B
:1026D00082819381F7D7DC01CB01F801918380835C
:1026E000DE01AD59BF4FFE01E959FF4F8081918155
:1026F0008D939C93FE01ED59FF4F8081918101974D
:10270000F1F7FE01ED59FF4F9183808388E39FEF3E
:102710006EE140E050E0B2D8FE01E15AFF4F80E0A8
:1027200090E0AAEFB3E480839183A283B3838E0108
:10273000055A1F4FFE01E15AFF4F6081718182816E
:10274000938120E030E44CE155E40E94441CDC011C
:10275000CB01F80180839183A283B383FE01E55A04
:10276000FF4F608171818281938120E030E040E8F9
:102770005FE337D7882344F4FE01E75AFF4F81E037
:1027800090E09183808362C0FE01E55AFF4F608133
:1027900071818281938120E03FEF4FE757E40E94EF
:1027A000401C18160CF042C0FE01E15AFF4F608138
:1027B00071818281938120E030E040E251E40E9407
:1027C000441CDC01CB018E01075A1F4FBC01CD0117
:1027D00079D7DC01CB01F801918380831FC0FE0112
:1027E000E95AFF4F8AEF90E091838083FE01E95A16
:1027F000FF4F808191810197F1F7FE01E95AFF4F68
:1028000091838083DE01A75ABF4FFE01E75AFF4F35
:1028100080819181019711969C938E93FE01E75AD6
:10282000FF4F808191810097D1F626C08E01075A13
:102830001F4FFE01E55AFF4F6081718182819381B4
:1028400041D7DC01CB01F80191838083DE01AB5AD3
:10285000BF4FFE01E75AFF4F808191818D939C937A
:10286000FE01EB5AFF4F808191810197F1F7FE0144
:10287000EB5AFF4F918380838AE590E06EE140E060
:1028800050E0DADA1CC3FE01E256FF4F80818A3045
:1028900039F0FE01E256FF4F80818B3009F0AFC066
:1028A000FE01EF5AFF4F80E090E0AAE7B4E4808396
:1028B0009183A283B3838E01035B1F4FFE01EF5A06
:1028C000FF4F608171818281938120E030E44CE18F
:1028D00055E4DAD7DC01CB01F80180839183A28330
:1028E000B383FE01E35BFF4F60817181828193813D
:1028F00020E030E040E85FE374D6882344F4FE0132
:10290000E55BFF4F81E090E09183808360C0FE0132
:10291000E35BFF4F608171818281938120E03FEF13
:102920004FE757E4ADD718160CF041C0FE01EF5A3F
:10293000FF4F608171818281938120E030E040E22D
:1029400051E4A2D7DC01CB018E01055B1F4FBC0116
:10295000CD01B8D6DC01CB01F801918380831FC083
:10296000FE01E75BFF4F8AEF90E091838083FE01D9
:10297000E75BFF4F808191810197F1F7FE01E75BF3
:10298000FF4F91838083DE01A55BBF4FFE01E55BB6
:10299000FF4F80819181019711969C938E93FE0148
:1029A000E55BFF4F808191810097D1F688C28E014F
:1029B000055B1F4FFE01E35BFF4F608171818281E8
:1029C000938180D6DC01CB01F80191838083DE0105
:1029D000A95BBF4FFE01E55BFF4F8081918111969E
:1029E0009C938E93FE01E95BFF4F8081918101975B
:1029F000F1F7FE01E95BFF4F9183808360C2FE0126
:102A0000E256FF4F8081883009F059C288E39FEF7A
:102A10006EE140E050E00E943E0CFE01ED5BFF4F96
:102A200080E090E0A8E4B4E480839183A283B38340
:102A30008E01015C1F4FFE01ED5BFF4F60817181D4
:102A40008281938120E030E44CE155E41DD7DC0124
:102A5000CB01F80180839183A283B383FE01FF96AB
:102A6000608171818281938120E030E040E85FE302
:102A7000B8D588232CF481E090E09EAF8DAF42C0A2
:102A8000FE01FF96608171818281938120E03FEF9A
:102A90004FE757E4F5D6181654F5FE01ED5BFF4FEE
:102AA000608171818281938120E030E040E251E4D5
:102AB000EBD6DC01CB01BC01CD0104D6DC01CB019E
:102AC0009EAF8DAF0FC08AEF90E09CAF8BAF8BAD08
:102AD0009CAD0197F1F79CAF8BAF8DAD9EAD01978B
:102AE0009EAF8DAF8DAD9EAD009769F715C0FE010D
:102AF000FF966081718182819381E4D5DC01CB01F5
:102B00009EAF8DAF8DAD9EAD9AAF89AF89AD9AADB9
:102B10000197F1F79AAF89AF86EA9FEF6EE140E047
:102B200050E0E2D880E090E0AAEFB3E48DAB9EAB3A
:102B3000AFABB8AF6DA97EA98FA998AD20E030E406
:102B40004CE155E4A1D6DC01CB0189AB9AABABAB30
:102B5000BCAB69A97AA98BA99CA920E030E040E828
:102B60005FE33FD588232CF481E090E098AB8FA7FA
:102B70003BC069A97AA98BA99CA920E03FEF4FE748
:102B800057E47ED618163CF56DA97EA98FA998AD9D
:102B900020E030E040E251E477D6DC01CB01BC011B
:102BA000CD0190D5DC01CB0198AB8FA70FC08AEF88
:102BB00090E09EA78DA78DA59EA50197F1F79EA7F2
:102BC0008DA78FA598A9019798AB8FA78FA598A9D6
:102BD000009769F713C069A97AA98BA99CA972D536
:102BE000DC01CB0198AB8FA78FA598A99CA78BA7D9
:102BF0008BA59CA50197F1F79CA78BA78CE291E090
:102C00006EE140E050E00E943E0C80E090E0A8E4DD
:102C1000B4E48FA398A7A9A7BAA76FA178A589A59F
:102C20009AA520E030E44CE155E42ED6DC01CB013E
:102C30008BA39CA3ADA3BEA36BA17CA18DA19EA1E0
:102C400020E030E040E85FE3CCD488232CF481E03E
:102C500090E09AA389A33BC06BA17CA18DA19EA10A
:102C600020E03FEF4FE757E40BD618163CF56FA175
:102C700078A589A59AA520E030E040E251E404D689
:102C8000DC01CB01BC01CD011DD5DC01CB019AA338
:102C900089A30FC08AEF90E098A38F8F8F8D98A1A2
:102CA0000197F1F798A38F8F89A19AA101979AA311
:102CB00089A389A19AA1009769F713C06BA17CA190
:102CC0008DA19EA1FFD4DC01CB019AA389A389A188
:102CD0009AA19E8F8D8F8D8D9E8D0197F1F79E8F7E
:102CE0008D8F8AE590E06EE140E050E00E94740E26
:102CF00080E090E0AAEFB3E4898F9A8FAB8FBC8F0E
:102D0000698D7A8D8B8D9C8D20E030E44CE155E40B
:102D1000BBD5DC01CB018D8B9E8BAF8BB88F6D89C2
:102D20007E898F89988D20E030E040E85FE359D4B8
:102D300088232CF481E090E09C8B8B8B3BC06D89C9
:102D40007E898F89988D20E03FEF4FE757E498D533
:102D500018163CF5698D7A8D8B8D9C8D20E030E0C6
:102D600040E251E491D5DC01CB01BC01CD01AAD4F4
:102D7000DC01CB019C8B8B8B0FC08AEF90E09A8B90
:102D8000898B89899A890197F1F79A8B898B8B892D
:102D90009C8901979C8B8B8B8B899C89009769F709
:102DA00013C06D897E898F89988D8CD4DC01CB010D
:102DB0009C8B8B8B8B899C89988B8F878F8598892F
:102DC0000197F1F7988B8F878EEB90E064E140E0FC
:102DD00050E00E943E0C80E090E0AAE7B4E48B87CC
:102DE0009C87AD87BE876B857C858D859E8520E021
:102DF00030E44CE155E448D5DC01CB018F83988762
:102E0000A987BA876F81788589859A8520E030E027
:102E100040E85FE3E6D388232CF481E090E09E83D2
:102E20008D833BC06F81788589859A8520E03FEF4F
:102E30004FE757E425D518163CF56B857C858D85C5
:102E40009E8520E030E040E251E41ED5DC01CB015C
:102E5000BC01CD0137D4DC01CB019E838D830FC033
:102E60008AEF90E09C838B838B819C810197F1F7A3
:102E70009C838B838D819E8101979E838D838D8121
:102E80009E81009769F713C06F81788589859A853F
:102E900019D4DC01CB019E838D838D819E819A8321
:102EA000898389819A810197F1F79A8389838AE6D8
:102EB0009FEF64E140E050E00E943E0CFFCFDE0156
:102EC000A256BF4FFE01E256FF4F80818F5F8C9369
:102ED000FE01E256FF4F8081893008F4C3C8AFC8B5
:102EE000DF93CF9300D0CDB7DEB79A8389838981F2
:102EF0009A819093AA018093A9010F900F90CF918E
:102F0000DF9108950F931F93DF93CF9300D0CDB738
:102F1000DEB79A838983E0E8F0E01082E1E8F0E030
:102F200089E0808308E810E089819A81CC01A0E0E3
:102F3000B0E0BC01CD01F2D39B01AC0160E876E9C1
:102F400088E19BE452D3DC01CB01BC01CD0120E040
:102F500030E040E05FE3E1D2DC01CB01BC01CD0118
:102F6000B1D3DC01CB01F80191838083EFE6F0E07F
:102F700082E08083AFE5B0E0EFE5F0E0808180683B
:102F80008C930F900F90CF91DF911F910F91089527
:102F90001F920F920FB60F9200905B000F921124B8
:102FA0002F933F934F935F936F937F938F939F9351
:102FB000AF93BF93EF93FF93DF93CF93CDB7DEB77C
:102FC0008091A9019091AA01009729F0E091A901AF
:102FD000F091AA0109958091AB019091AC01A0916B
:102FE000AD01B091AE0180392FE5920721E0A20733
:102FF00020E0B20710F00E946B038091AB0190912A
:10300000AC01A091AD01B091AE010196A11DB11D21
:103010008093AB019093AC01A093AD01B093AE014E
:10302000CF91DF91FF91EF91BF91AF919F918F91E0
:103030007F916F915F914F913F912F910F900092EF
:103040005B000F900FBE0F901F901895DF93CF93EA
:10305000CDB7DEB71092AB011092AC011092AD016A
:103060001092AE01CF91DF910895DF93CF93CDB74A
:10307000DEB781E08093AF01CF91DF910895DF93B8
:10308000CF93CDB7DEB78091AB019091AC01A09109
:10309000AD01B091AE01BC01CD01CF91DF9108959A
:1030A000DF93CF93CDB7DEB76C970FB6F894DEBF42
:1030B0000FBECDBF81E59AE013DF80E090E0A8EC81
:1030C000B2E4898F9A8FAB8FBC8F698D7A8D8B8D8F
:1030D0009C8D20E030E44CE155E4D6D3DC01CB01FB
:1030E0008D8B9E8BAF8BB88F6D897E898F89988DE4
:1030F00020E030E040E85FE374D288232CF481E0E4
:1031000090E09C8B8B8B3BC06D897E898F89988DDD
:1031100020E03FEF4FE757E4B3D318163CF5698D35
:103120007A8D8B8D9C8D20E030E040E251E4ACD371
:10313000DC01CB01BC01CD01C5D2DC01CB019C8BF4
:103140008B8B0FC08AEF90E09A8B898B89899A8943
:103150000197F1F79A8B898B8B899C8901979C8BBE
:103160008B8B8B899C89009769F713C06D897E8949
:103170008F89988DA7D2DC01CB019C8B8B8B8B899F
:103180009C89988B8F878F8598890197F1F7988B09
:103190008F8788E260E040E00E94630889E260E097
:1031A00040E00E94630888E060E040E00E9463081D
:1031B0008AE060E040E00E9463088CE060E040E06C
:1031C0000E9463088EE060E040E00E946308E3E351
:1031D000F0E08FEF8083E4E3F0E0108282E390E0A0
:1031E0000E94EA0088EE93E08DDE81E00E941E07D7
:1031F0000E94F40388E20E94D1098823D9F380E079
:1032000090E0A0E2B1E48B879C87AD87BE876B8599
:103210007C858D859E8520E030E44CE155E434D3F7
:10322000DC01CB018F839887A987BA876F81788566
:1032300089859A8520E030E040E85FE3D2D1882399
:103240002CF481E090E09E838D833BC06F81788574
:1032500089859A8520E03FEF4FE757E411D3181690
:103260003CF56B857C858D859E8520E030E040E2D5
:1032700051E40AD3DC01CB01BC01CD0123D2DC0136
:10328000CB019E838D830FC08AEF90E09C838B835C
:103290008B819C810197F1F79C838B838D819E812B
:1032A00001979E838D838D819E81009769F713C05E
:1032B0006F81788589859A8505D2DC01CB019E8353
:1032C0008D838D819E819A83898389819A810197DB
:1032D000F1F79A838983E4E3F0E08FEF8083B6DE31
:1032E000C4DE6C960FB6F894DEBF0FBECDBFCF9193
:1032F000DF9108951F920F920FB60F9200905B001E
:103300000F9211248F939F93AF93BF93EF93FF93EB
:10331000DF93CF93CDB7DEB78091B0018823D9F08A
:103320008091B00181508093B001A6ECB0E0809113
:10333000B101882F90E0FC01E854FE4F80818C930E
:103340008091B1018F5F8093B1018091B101803490
:1033500011F41092B101CF91DF91FF91EF91BF91E4
:10336000AF919F918F910F9000925B000F900FBED5
:103370000F901F9018951F920F920FB60F9200900A
:103380005B000F9211242F938F939F93EF93FF93E2
:10339000DF93CF930F92CDB7DEB7E0ECF0E0808102
:1033A00089838981882F90E08C7190700097D9F47F
:1033B0008091B201882F90E0E6ECF0E02081FC01E2
:1033C000E850FE4F20838091B2018F5F8093B2015D
:1033D0008091B201803411F41092B2018091B30156
:1033E0008F5F8093B3010F90CF91DF91FF91EF91A9
:1033F0009F918F912F910F9000925B000F900FBEC5
:103400000F901F9018951F920F920FB60F92009079
:103410005B000F9211248F939F93AF93BF93EF9311
:10342000FF93DF93CF93CDB7DEB78091B4018823AC
:10343000D9F08091B40181508093B401AEECB0E03A
:103440008091B501882F90E0FC01E85CFD4F808100
:103450008C938091B5018F5F8093B5018091B50108
:10346000803411F41092B501CF91DF91FF91EF916B
:10347000BF91AF919F918F910F9000925B000F9041
:103480000FBE0F901F9018951F920F920FB60F92BC
:1034900000905B000F9211242F938F939F93EF93D3
:1034A000FF93DF93CF930F92CDB7DEB7E8ECF0E058
:1034B000808189838981882F90E08C71907000973A
:1034C000D9F48091B601882F90E0EEECF0E02081F5
:1034D000FC01E858FD4F20838091B6018F5F8093F7
:1034E000B6018091B601803411F41092B60180913A
:1034F000B7018F5F8093B7010F90CF91DF91FF915C
:10350000EF919F918F912F910F9000925B000F9000
:103510000FBE0F901F9018955058BB27AA270ED0AA
:1035200075C166D130F06BD120F031F49F3F11F4BA
:103530001EF45BC10EF4E095E7FB51C1E92F77D192
:1035400080F3BA17620773078407950718F071F4C0
:103550009EF58FC10EF4E0950B2EBA2FA02D0B0116
:10356000B90190010C01CA01A0011124FF27591BC8
:1035700099F0593F50F4503E68F11A16F040A22FCE
:10358000232F342F4427585FF3CF4695379527953F
:10359000A795F0405395C9F77EF41F16BA0B620B3E
:1035A000730B840BBAF09150A1F0FF0FBB1F661F85
:1035B000771F881FC2F70EC0BA0F621F731F841FC8
:1035C00048F4879577956795B795F7959E3F08F0EE
:1035D000B3CF9395880F08F09927EE0F97958795AD
:1035E0000895D9D008F481E008950CD00FC107D117
:1035F00040F0FED030F021F45F3F19F0F0C05111DF
:1036000039C1F3C014D198F39923C9F35523B1F309
:10361000951B550BBB27AA2762177307840738F041
:103620009F5F5F4F220F331F441FAA1FA9F333D0A0
:103630000E2E3AF0E0E830D091505040E695001C54
:10364000CAF729D0FE2F27D0660F771F881FBB1F10
:10365000261737074807AB07B0E809F0BB0B802DEA
:10366000BF01FF2793585F4F2AF09E3F510568F036
:10367000B6C000C15F3FECF3983EDCF386957795CA
:103680006795B795F7959F5FC9F7880F911D969538
:10369000879597F90895E1E0660F771F881FBB1F94
:1036A000621773078407BA0720F0621B730B840B41
:1036B000BA0BEE1F88F7E095089504D06894B11115
:1036C000D9C00895BCD088F09F5790F0B92F9927A2
:1036D000B751A0F0D1F0660F771F881F991F1AF01D
:1036E000BA95C9F712C0B13081F0C3D0B1E00895E6
:1036F000C0C0672F782F8827B85F39F0B93FCCF367
:10370000869577956795B395D9F73EF49095809512
:10371000709561957F4F8F4F9F4F0895E89409C032
:1037200097FB3EF490958095709561957F4F8F4FF4
:103730009F4F9923A9F0F92F96E9BB279395F6950A
:10374000879577956795B795F111F8CFFAF4BB0F88
:1037500011F460FF1BC06F5F7F4F8F4F9F4F16C0EC
:10376000882311F096E911C0772321F09EE8872F76
:10377000762F05C0662371F096E8862F70E060E032
:103780002AF09A95660F771F881FDAF7880F9695AB
:10379000879597F90895990F0008550FAA0BE0E84F
:1037A000FEEF16161706E807F907C0F01216130603
:1037B000E407F50798F0621B730B840B950B39F443
:1037C0000A2661F0232B242B252B21F408950A26A9
:1037D00009F4A140A6958FEF811D811D089597F9E9
:1037E0009F6780E870E060E008959FEF80EC0895A7
:1037F00000240A94161617061806090608950024D0
:103800000A9412161306140605060895092E039449
:10381000000C11F4882352F0BB0F40F4BF2B11F4BD
:1038200060FF04C06F5F7F4F8F4F9F4F089557FD1C
:103830009058440F551F59F05F3F71F04795880F1E
:1038400097FB991F61F09F3F79F0879508951216B5
:1038500013061406551FF2CF4695F1DF08C0161661
:1038600017061806991FF1CF869571056105089412
:103870000895E894BB2766277727CB0197F9089529
:103880008ADF08F48FEF08950BD0C0CFB1DF28F0A6
:10389000B6DF18F0952309F0A2CFA7CF1124EACF05
:1038A000C6DFA0F3959FD1F3950F50E0551F629F9F
:1038B000F001729FBB27F00DB11D639FAA27F00D89
:1038C000B11DAA1F649F6627B00DA11D661F829FB0
:1038D0002227B00DA11D621F739FB00DA11D621F95
:1038E000839FA00D611D221F749F3327A00D611DB2
:1038F000231F849F600D211D822F762F6A2F112494
:103900009F5750408AF0E1F088234AF0EE0FFF1FE6
:10391000BB1F661F771F881F91505040A9F79E3F1D
:10392000510570F05CCFA6CF5F3FECF3983EDCF31F
:10393000869577956795B795F795E7959F5FC1F75A
:10394000FE2B880F911D9695879597F908950F93F3
:103950001F93CF93DF93689F8001699F100D789F1D
:10396000100D1124C8010DD0EC01009721F060E08A
:1039700070E0A8010BD1CE01DF91CF911F910F9183
:103980000895CF93DF93BC018230910510F462E07B
:1039900070E0A091BA02B091BB02ED01E0E0F0E06E
:1039A00040E050E021C0888199818617970769F42B
:1039B0008A819B81309719F09383828304C090930E
:1039C000BB028093BA02FE0134C06817790738F44D
:1039D0004115510519F08417950708F4AC01FE0153
:1039E0008A819B819C01E9012097E9F641155105E7
:1039F000A9F1CA01861B970B049708F4BA01E0E00D
:103A0000F0E02AC08D919C91119784179507F9F4E5
:103A10006417750781F412968D919C9113973097D6
:103A200019F09383828304C09093BB028093BA02FF
:103A3000FD0132964FC0CA01861B970BFD01E80FAE
:103A4000F91F6193719302978D939C9343C0FD017D
:103A5000828193819C01D9011097A1F68091B802CF
:103A60009091B902892B41F4809102019091030158
:103A70009093B9028093B8024091040150910501DE
:103A80004115510541F44DB75EB780910001909109
:103A90000101481B590B2091B8023091B90224173B
:103AA0003507B0F4CA01821B930B8617970780F085
:103AB000AB014E5F5F4F8417950750F0420F531FC5
:103AC0005093B9024093B802F9016193719302C017
:103AD000E0E0F0E0CF01DF91CF910895CF93DF9345
:103AE000009709F450C0EC0122971B821A82A09122
:103AF000BA02B091BB02109709F140E050E0AC1758
:103B0000BD0708F1BB83AA83FE0121913191E20F29
:103B1000F31FAE17BF0779F48D919C911197280F71
:103B2000391F2E5F3F4F3983288312968D919C91C8
:103B300013979B838A834115510571F4D093BB027F
:103B4000C093BA0220C012968D919C911397AD013B
:103B5000009711F0DC01D3CFFA01D383C283219106
:103B60003191E20FF31FCE17DF0769F48881998145
:103B7000280F391F2E5F3F4FFA01318320838A813E
:103B80009B8193838283DF91CF910895DC0101C0F3
:0E3B90006D9341505040E0F70895F894FFCF38
:103B9E002000BC020000060106010000000000002B
:103BAE0049B9009C040000001E010000B90070031A
:103BBE000000001EFF00004C04D4030000001E0194
:103BCE00C40FE803D4030000001EFF00001801F02C
:103BDE00050000001E010000DC008C050000001432
:103BEE000100008C004C04000000140100001801BC
:103BFE00C8000000005AFFD80F18015A000000003C
:043C0E00140100009D
:00000001FF
