:1000000049C0000065C0000063C0000061C000007E
:100010005FC000005DC000005BC0000059C0000070
:1000200057C0000055C0000053C0000051C0000080
:100030000C949C104DC000004BC0000049C0000053
:1000400047C0000045C00000C1C4000041C000001E
:100050003FC000000C9487123BC000000C94461275
:1000600037C0000035C0000033C0000031C00000C0
:100070002FC000002DC000002BC0000029C00000D0
:100080000C94101325C000000C94CF1221C0000066
:100090001FC0000011241FBECFEFD0E1DEBFCDBFD7
:1000A00011E0A0E0B1E0E6E3FDE200E00BBF02C03A
:1000B00007900D92AC31B107D9F712E0ACE1B1E095
:1000C00001C01D92A936B107E1F7C4D00C9499166E
:1000D00097CFDF93CF93CDB7DEB762970FB6F89483
:1000E000DEBF0FBECDBF9A8B898B80EA90E06EE1B8
:1000F00040E050E00E94440C80E090E0A8ECB2E4C4
:100100008B879C87AD87BE876B857C858D859E851B
:1001100020E030E44CE155E40E941015DC01CB01F5
:100120008F839887A987BA876F81788589859A8513
:1001300020E030E040E85FE30E94BD1388232CF408
:1001400081E090E09E838D833FC06F8178858985B3
:100150009A8520E03FEF4FE757E40E940C151816F0
:100160004CF56B857C858D859E8520E030E040E2F6
:1001700051E40E941015DC01CB01BC01CD010E94AD
:100180002E14DC01CB019E838D830FC08AEF90E09B
:100190009C838B838B819C810197F1F79C838B835C
:1001A0008D819E8101979E838D838D819E81009795
:1001B00069F714C06F81788589859A850E942E140D
:1001C000DC01CB019E838D838D819E819A838983FF
:1001D00089819A810197F1F79A83898384ED9EEF53
:1001E0006EE140E050E00E94440C89899A890097B2
:1001F00041F486EA9FEF6EE140E050E00E945D0E20
:1002000007C086EA9FEF6EE140E050E00E945D0E7D
:1002100087EF93E061E440E050E00E94440C8CE9F9
:100220009FEF61E440E050E00E94440C87E390E0DF
:1002300061E440E050E00E945D0E0E94AC0F988B9C
:100240008F8762960FB6F894DEBF0FBECDBFCF91F9
:10025000DF910895DF93CF93CDB7DEB70E942411CD
:1002600080911C0191E08927882319F081E090E0BA
:1002700030DF81E080931C01E4E3F0E08FEF8083C6
:100280000E94270AEDCF0F931F93DF93CF9300D0E7
:10029000CDB7DEB79A838983ADE2B0E0EDE2F0E05E
:1002A000808188638C93E4E9F0E011821082E8E9B0
:1002B000F0E011821082EAE9F0E011821082ECE9AC
:1002C000F0E011821082E0E9F0E08EEB8083E1E95A
:1002D000F0E08AE1808306E910E089819A81CC010F
:1002E000A0E0B0E0BC01CD010E945A14DC01CB01BA
:1002F000BC01CD0120E030E040E051E40E94101547
:10030000DC01CB019C01AD0160E876E988E19BE46A
:100310000E94C113DC01CB01BC01CD0120E030E023
:1003200040E05FE30E945913DC01CB01BC01CD0129
:100330000E942E14DC01CB01F801918380830F9081
:100340000F90CF91DF911F910F910895EF92FF923F
:100350000F931F93DF93CF9300D000D0CDB7DEB7BC
:100360009C838B83E6E9F0E080819181CC01A0E061
:10037000B0E0BC01CD010E945A14DC01CB01BC01EC
:10038000CD0120E030E04FE753E40E94C113DC01CF
:10039000CB017C018D018B819C81AA2797FDA095C3
:1003A000BA2FBC01CD010E945C149B01AC01C801B5
:1003B000B7010E941015DC01CB01BC01CD0120E08A
:1003C00030E040E05FE30E945913DC01CB01BC0147
:1003D000CD010E942E14DC01CB019A838983E9E9C7
:1003E000F0E089819A81892F99278083E8E9F0E0FC
:1003F000898180830F900F900F900F90CF91DF91A4
:100400001F910F91FF90EF900895EF92FF920F933D
:100410001F93DF93CF9300D000D0CDB7DEB79C837E
:100420008B83E6E9F0E080819181CC01A0E0B0E02F
:10043000BC01CD010E945A14DC01CB01BC01CD01ED
:1004400020E030E04FE753E40E94C113DC01CB0110
:100450007C018D018B819C81AA2797FDA095BA2FE5
:10046000BC01CD010E945C149B01AC01C801B70125
:100470000E941015DC01CB01BC01CD0120E030E071
:1004800040E05FE30E945913DC01CB01BC01CD01C8
:100490000E942E14DC01CB019A838983EBE9F0E002
:1004A00089819A81892F99278083EAE9F0E08981FF
:1004B00080830F900F900F900F90CF91DF911F913D
:1004C0000F91FF90EF900895DF93CF930F92CDB7E8
:1004D000DEB789838981992787FD9095A92FB92F48
:1004E000BC01CD010E945C14DC01CB01BC01CD013B
:1004F00020E030E044EB52E40E94C113DC01CB0168
:10050000BC01CD0126E636E646E351EC0E9410150B
:10051000DC01CB01BC01CD0120E030E04CE653E42E
:100520000E945913DC01CB019C01AD0160E070E039
:100530008FE793E40E945813DC01CB01BC01CD018D
:100540000E942914DC01CB0101DF0F90CF91DF91D4
:100550000895DF93CF930F92CDB7DEB7898389815A
:10056000992787FD9095A92FB92FBC01CD010E9435
:100570005C14DC01CB01BC01CD0120E030E044EB98
:1005800052E40E94C113DC01CB01BC01CD0126E67F
:1005900036E646E351EC0E941015DC01CB01BC01AC
:1005A000CD0120E030E04CE653E40E945913DC0119
:1005B000CB019C01AD0160E070E08FE793E40E9405
:1005C0005813DC01CB01BC01CD010E942914DC01D0
:1005D000CB011BDF0F90CF91DF910895DF93CF9375
:1005E000CDB7DEB76C970FB6F894DEBF0FBECDBFA8
:1005F0008AEA6ADF80E090E0AAE7B4E4898F9A8F04
:10060000AB8FBC8F698D7A8D8B8D9C8D20E030E413
:100610004CE155E40E941015DC01CB018D8B9E8BC3
:10062000AF8BB88F6D897E898F89988D20E030E0FF
:1006300040E85FE30E94BD1388232CF481E090E042
:100640009C8B8B8B3FC06D897E898F89988D20E034
:100650003FEF4FE757E40E940C1518164CF5698DD3
:100660007A8D8B8D9C8D20E030E040E251E40E9439
:100670001015DC01CB01BC01CD010E942E14DC0160
:10068000CB019C8B8B8B0FC08AEF90E09A8B898B70
:1006900089899A890197F1F79A8B898B8B899C8933
:1006A00001979C8B8B8B8B899C89009769F714C071
:1006B0006D897E898F89988D0E942E14DC01CB0173
:1006C0009C8B8B8B8B899C89988B8F878F85988946
:1006D0000197F1F7988B8F8780E03BDF80E090E017
:1006E000AAE7B4E48B879C87AD87BE876B857C8542
:1006F0008D859E8520E030E44CE155E40E94101584
:10070000DC01CB018F839887A987BA876F817885B1
:1007100089859A8520E030E040E85FE30E94BD13C0
:1007200088232CF481E090E09E838D833FC06F810D
:10073000788589859A8520E03FEF4FE757E40E944E
:100740000C1518164CF56B857C858D859E8520E0F3
:1007500030E040E251E40E941015DC01CB01BC0105
:10076000CD010E942E14DC01CB019E838D830FC02E
:100770008AEF90E09C838B838B819C810197F1F7BA
:100780009C838B838D819E8101979E838D838D8138
:100790009E81009769F714C06F81788589859A8555
:1007A0000E942E14DC01CB019E838D838D819E815E
:1007B0009A83898389819A810197F1F79A83898342
:1007C0006C960FB6F894DEBF0FBECDBFCF91DF9110
:1007D0000895DF93CF93CDB7DEB76C970FB6F8943B
:1007E000DEBF0FBECDBF8AE5B4DE80E090E0AAE7B1
:1007F000B4E4898F9A8FAB8FBC8F698D7A8D8B8D86
:100800009C8D20E030E44CE155E40E941015DC01A1
:10081000CB018D8B9E8BAF8BB88F6D897E898F8935
:10082000988D20E030E040E85FE30E94BD1388230C
:100830002CF481E090E09C8B8B8B3FC06D897E898E
:100840008F89988D20E03FEF4FE757E40E940C1509
:1008500018164CF5698D7A8D8B8D9C8D20E030E0DB
:1008600040E251E40E941015DC01CB01BC01CD0136
:100870000E942E14DC01CB019C8B8B8B0FC08AEF66
:1008800090E09A8B898B89899A890197F1F79A8BE5
:10089000898B8B899C8901979C8B8B8B8B899C89FD
:1008A000009769F714C06D897E898F89988D0E94A1
:1008B0002E14DC01CB019C8B8B8B8B899C89988BB4
:1008C0008F878F8598890197F1F7988B8F8785E5BA
:1008D000FBDD80E090E0AAE7B4E48B879C87AD87DE
:1008E000BE876B857C858D859E8520E030E44CE15C
:1008F00055E40E941015DC01CB018F839887A987EE
:10090000BA876F81788589859A8520E030E040E854
:100910005FE30E94BD1388232CF481E090E09E8366
:100920008D833FC06F81788589859A8520E03FEF70
:100930004FE757E40E940C1518164CF56B857C8523
:100940008D859E8520E030E040E251E40E94101544
:10095000DC01CB01BC01CD010E942E14DC01CB01D6
:100960009E838D830FC08AEF90E09C838B838B8165
:100970009C810197F1F79C838B838D819E810197E8
:100980009E838D838D819E81009769F714C06F814E
:10099000788589859A850E942E14DC01CB019E837F
:1009A0008D838D819E819A83898389819A81019724
:1009B000F1F79A83898380E0CCDD6C960FB6F894CA
:1009C000DEBF0FBECDBFCF91DF9108951F920F9272
:1009D0000FB60F9200905B000F9211242F933F935C
:1009E0004F935F938F939F93AF93BF93EF93FF9337
:1009F000DF93CF9300D000D0CDB7DEB7EDEEF0E0BF
:100A000080818C831B829CC0EDEEF0E08B8182950F
:100A1000807F8083EEEEF0E08081829586958770FE
:100A2000882F90E081709070882309F46EC0EFEEFB
:100A3000F0E080E88083AEEEB0E0EEEEF0E08081A2
:100A40008F7D8C93E2EFF0E08081829586958770B0
:100A5000282FE3EFF0E08081882F90E0880F991F26
:100A6000880F991F880F991F822B8A8319822AC0A9
:100A70008A81282F30E081E090E0821B930B880F61
:100A8000991F909581959F4FFC01E35EFE4F408139
:100A900051818A81882F90E00197FC01EF5CFE4F25
:100AA0008081282F30E08981882F90E0820F931F6A
:100AB000DA01A80FB91FEAEFF0E080818C938981F9
:100AC0008F5F89838981883098F28A81882F90E0AE
:100AD0000197FC01EF5CFE4F80818F5F80838081F6
:100AE000853041F48A81882F90E00197FC01EF5C0A
:100AF000FE4F10828A81882F90E00197FC01EB5B0A
:100B0000FE4F80818F5F80831FC0EEEEF0E080811A
:100B10008295869586958370882F90E0817090707D
:100B2000882359F0EFEEF0E01082AEEEB0E0EEEE8A
:100B3000F0E080818F7B8C9307C08B818F5F8B83EC
:100B40008B818F3008F460CFEDEEF0E08C818083F4
:100B5000AAEDB0E0EAEDF0E080818C930F900F9069
:100B60000F900F90CF91DF91FF91EF91BF91AF91D7
:100B70009F918F915F914F913F912F910F90009294
:100B80005B000F900FBE0F901F901895DF93CF93CF
:100B900000D0CDB7DEB7E8EDF0E081E080831A82C7
:100BA00032C0EDEEF0E08A818295807F8083EEEEA8
:100BB000F0E01082EFEEF0E01082E3EFF0E0108260
:100BC000E2EFF0E01082E1EFF0E01082E0EFF0E021
:100BD0001082E7EFF0E01082E6EFF0E01082E5EF40
:100BE000F0E01082E4EFF0E01082198206C0EAEF34
:100BF000F0E0108289818F5F898389818830B8F322
:100C00008A818F5F8A838A818F3058F2E8EDF0E025
:100C100082E08083E2EEF0E081E08083E3EEF0E0CA
:100C200088E08083E4EEF0E08EE58083E5EEF0E09E
:100C30001082EBEDF0E080EB8083EFEDF0E08FE7EA
:100C40008083EEEDF0E08FEF808378940F900F902B
:100C5000CF91DF910895DF93CF9300D000D00F9212
:100C6000CDB7DEB79C838B83EDEEF0E08081898386
:100C7000E9EDF0E0808182958F70882F90E081709F
:100C800090708823A9F7E9EDF0E08081869586953C
:100C90008695882F90E081709070882349F71A829A
:100CA0003FC0EDEEF0E08A818295807F8083EFEE99
:100CB000F0E080818295869586958370882369F51A
:100CC000EFEEF0E08FE08083E3EFF0E08B819C813A
:100CD000907096958795969587959695879580833C
:100CE000E2EFF0E08B818295880F807E8083E6EFD3
:100CF000F0E080EE8083E7EFF0E08FEF8083AFEEEF
:100D0000B0E0EFEEF0E0808180688C93EDEEF0E0F3
:100D10008981808381E08D830CC08A818F5F8A8383
:100D20008A818F3008F4BDCFEDEEF0E089818083B9
:100D30001D828D810F900F900F900F900F90CF918B
:100D4000DF9108950F931F93DF93CF9300D0CDB71A
:100D5000DEB78A831BDF198236C08981882F90E035
:100D6000019679DF8981882F90E0880F991F8C0187
:100D7000035E1E4F85E090E061E070E00E94731515
:100D8000F801918380838981482F50E08981282F41
:100D900030E08981882F90E0FC01EB5BFE4F1082F0
:100DA000FC01EB5BFE4F8081F901E55CFE4F808327
:100DB000F901E55CFE4F8081FA01EF5CFE4F808314
:100DC00089818F5F898399818A81981730F20F908A
:100DD0000F90CF91DF911F910F910895DF93CF93E3
:100DE00000D000D0CDB7DEB79B838A836C838C8123
:100DF000882F90E00197FC01EB5BFE4F80818823F8
:100E0000B1F3198230C08981282F30E08A819B811B
:100E1000DC01A20FB31F8C81282F30E081E090E02D
:100E2000821B930B880F991F909581959F4FFC0112
:100E3000E35EFE4F408151818C81882F90E00197C5
:100E4000FC01E55CFE4F8081282F30E08981882FEE
:100E500090E0820F931FFA01E80FF91F80818C93B5
:100E600089818F5F89838981883068F28C81882F9E
:100E700090E00197FC01E55CFE4F80818F5F8083ED
:100E80008081853041F48C81882F90E00197FC01AE
:100E9000E55CFE4F10828C81882F90E09C012150F0
:100EA0003040F901EB5BFE4F80818150F901EB5B33
:100EB000FE4F808380E00F900F900F900F90CF91A6
:100EC000DF910895DF93CF93CDB7DEB727970FB6A5
:100ED000F894DEBF0FBECDBF9D838C836E83E9ED9A
:100EE000F0E0808182958F70882F90E08170907003
:100EF0008823A9F7E9EDF0E08081869586958695AF
:100F0000882F90E081709070882349F7EDEEF0E033
:100F1000808189831A8212C0EDEEF0E08A81829589
:100F2000807F8083EFEEF0E08081829586958695C4
:100F30008370882331F08A818F5F8A838A818F3022
:100F400058F38A818F3019F48FEF8F8332C0E2EF2C
:100F5000F0E08E818295880F807E8083E3EFF0E061
:100F60008E818695869586958083EFEEF0E088E009
:100F700080831B820FC0AAEFB0E08B81282F30E066
:100F80008C819D81FC01E20FF31F80818C938B810A
:100F90008F5F8B838B81883070F3AFEEB0E0EFEE24
:100FA000F0E0808180648C93EDEEF0E089818083B5
:100FB0001F828F8127960FB6F894DEBF0FBECDBF7C
:100FC000CF91DF910895DF93CF93CDB7DEB72C9704
:100FD0000FB6F894DEBF0FBECDBF89876A874B87F7
:100FE00080910801909109019C838B838B819C8166
:100FF000069798878F8314C0EF81F8859081898543
:10100000981719F421E02C87C9C0EF81F8858085F5
:1010100091859A83898389819A81069798878F839E
:101020008F819885069621E08630920729F7898579
:101030008695869586958F5F8E83898587708D834B
:101040008A85813009F048C08E81282F30E0C9019F
:10105000880F991F820F931F4E96DC018E81282FD7
:1010600030E0C901880F991F820F931F4E96FC0133
:101070008081482F8D81282F30E081E090E002C0F0
:10108000880F991F2A95E2F7842B8C938E81282F45
:1010900030E0C901880F991F820F931F4F96DC0122
:1010A0008E81282F30E0C901880F991F820F931F6E
:1010B0004F96FC018081482F8D81282F30E081E000
:1010C00090E0022E02C0880F991F0A94E2F78095E3
:1010D00084238C931C8662C08E81282F30E0C90146
:1010E000880F991F820F931F4E96DC018E81282F47
:1010F00030E0C901880F991F820F931F4E96FC01A3
:101100008081482F8D81282F30E081E090E002C05F
:10111000880F991F2A95E2F7809584238C938E81FE
:10112000282F30E0C901880F991F820F931F4F9617
:10113000DC018E81282F30E0C901880F991F820FB2
:10114000931F4F96FC018081482F8D81282F30E01E
:1011500081E090E002C0880F991F2A95E2F7842B66
:101160008C938AE090E00E948D1598878F838F8101
:101170009885009719F481E08C8710C0EF81F8857D
:1011800089858083EF81F8858B8581838F81988520
:10119000069626E031E0B9010BD01C868C852C9692
:1011A0000FB6F894DEBF0FBECDBFCF91DF9108958B
:1011B000DF93CF9300D000D0CDB7DEB79A83898379
:1011C0007C836B83EB81FC814281538189819A818D
:1011D0002B813C81B90107D00F900F900F900F9099
:1011E000CF91DF910895DF93CF9300D000D000D04E
:1011F000CDB7DEB79A8389837C836B835E834D830F
:10120000ED81FE8189819A8191838083E981FA81D0
:101210008D819E8193838283E981FA818B819C8178
:1012200091838083EB81FC8189819A81938382837E
:1012300026960FB6F894DEBF0FBECDBFCF91DF91DB
:101240000895DF93CF9300D00F92CDB7DEB78B8395
:101250008B818695869586958F5F8A838B81877033
:101260008B838A81282F30E0C901880F991F820F54
:10127000931F4D96FC01808189838981282F30E05E
:101280008B81882F90E0A90102C0559547958A95DA
:10129000E2F7CA0181700F900F900F90CF91DF910C
:1012A0000895DF93CF93CDB7DEB72B970FB6F894A1
:1012B000DEBF0FBECDBF89878091080190910901E3
:1012C0009E838D838D819E81069798878F8355C0DD
:1012D000EF81F88590818985981709F043C01C82B9
:1012E00021C08C81282F30E08F819885820F931F39
:1012F000FC01329640818C81882F90E09C012F5F09
:101300003F4F8F819885820F931FFC013296808119
:10131000481729F0EF81F88525812B8738C08C810B
:101320008F5F8C838C818230E0F2EF81F885918130
:1013300081E08927882329F0EF81F88582818A87D7
:1013400008C0EF81F88582811A86882311F421E094
:101350002A878A858B83EF81F8858B8185832B8112
:101360002B8715C0EF81F885808591859A838983C5
:1013700089819A81069798878F838F8198850696B1
:1013800021E08630920709F0A3CF81E08B878B851F
:101390002B960FB6F894DEBF0FBECDBFCF91DF9175
:1013A00008950F931F93DF93CF9300D000D000D008
:1013B000CDB7DEB780910801909109019C838B83A2
:1013C0008B819C8106979E838D831BC000914F016A
:1013D00010915001ED81FE81808133DF282F8D81B6
:1013E0009E81800F911FFC0132962083ED81FE814A
:1013F000808591859A83898389819A8106979E83C6
:101400008D838D819E81069621E086309207F1F6CC
:1014100080914F01909150010196909350018093DB
:101420004F0180914F01909150018330910521F43B
:101430001092500110924F0126960FB6F894DEBF1D
:101440000FBECDBFCF91DF911F910F910895DF9314
:10145000CF93CDB7DEB72B970FB6F894DEBF0FBE94
:10146000CDBF1C821B8281E0898385E590E09E834D
:101470008D838EE992E098878F8386EA9FEF9A8723
:101480008987CE0105964FD38981882F90E08130DE
:101490009105D1F78B818C835CC08C81482F50E003
:1014A000CA01880F991F9C01220F331F220F331F7F
:1014B000820F931F840F951F8F5E9E4FBC018C81FE
:1014C000482F50E0CA01880F991F9C01220F331F3B
:1014D000220F331F820F931F840F951FFC01E85EBC
:1014E000FE4FA0818C81482F50E0CA01880F991FC0
:1014F0009C01220F331F220F331F820F931F840F73
:10150000951FFC01E75EFE4FB0818C81482F50E0B3
:10151000CA01880F991F9C01220F331F220F331F0E
:10152000820F931F840F951FFC01E65EFE4F208102
:101530003181CB016A2F4B2F45D28A838A8181303A
:1015400009F4A2CF8C81882309F4FFCF8C818F5FAF
:101550008C838C81882309F4A0CF96CFDF93CF931F
:10156000CDB7DEB767970FB6F894DEBF0FBECDBF1D
:101570008F8B909151018F89891709F481C086E57D
:101580008F878F89888B72C080E090E0A8E4B2E4F6
:101590008B879C87AD87BE876B857C858D859E8577
:1015A00020E030E44CE155E40E941015DC01CB0151
:1015B0008F839887A987BA876F81788589859A856F
:1015C00020E030E040E85FE30E94BD1388232CF464
:1015D00081E090E09E838D833FC06F81788589850F
:1015E0009A8520E03FEF4FE757E40E940C1518164C
:1015F0004CF56B857C858D859E8520E030E040E252
:1016000051E40E941015DC01CB01BC01CD010E9408
:101610002E14DC01CB019E838D830FC08AEF90E0F6
:101620009C838B838B819C810197F1F79C838B83B7
:101630008D819E8101979E838D838D819E810097F0
:1016400069F714C06F81788589859A850E942E1468
:10165000DC01CB019E838D838D819E819A8389835A
:1016600089819A810197F1F79A838983CE010F9638
:1016700063EC28DC882309F087CF8F8980935101A0
:1016800067960FB6F894DEBF0FBECDBFCF91DF9146
:101690000895DF93CF93CDB7DEB766970FB6F89472
:1016A000DEBF0FBECDBF80E58F8772C080E090E0C7
:1016B000A8E4B2E48B879C87AD87BE876B857C8569
:1016C0008D859E8520E030E44CE155E40E941015A4
:1016D000DC01CB018F839887A987BA876F817885D2
:1016E00089859A8520E030E040E85FE30E94BD13E1
:1016F00088232CF481E090E09E838D833FC06F812E
:10170000788589859A8520E03FEF4FE757E40E946E
:101710000C1518164CF56B857C858D859E8520E013
:1017200030E040E251E40E941015DC01CB01BC0125
:10173000CD010E942E14DC01CB019E838D830FC04E
:101740008AEF90E09C838B838B819C810197F1F7DA
:101750009C838B838D819E8101979E838D838D8158
:101760009E81009769F714C06F81788589859A8575
:101770000E942E14DC01CB019E838D838D819E817E
:101780009A83898389819A810197F1F79A83898362
:10179000CE010F9663EC96DB882309F087CFCE014C
:1017A0000F9661E01BDB8F85809310018889882F5D
:1017B00090E0382F22278989882F90E0822B932B65
:1017C00090930B0180930A018A89882F90E0382F2B
:1017D00022278B89882F90E0822B932B90930D01E9
:1017E00080930C018C89882F90E0382F22278D89D7
:1017F000882F90E0822B932B90930F0180930E0102
:1018000066960FB6F894DEBF0FBECDBFCF91DF91C5
:101810000895DF93CF93CDB7DEB727970FB6F8942F
:10182000DEBF0FBECDBF9E838D83FDD4AA2797FD5B
:10183000A095BA2F89839A83AB83BC832ADF8D81DD
:101840009E81009771F089819A81AB81BC81ED8185
:10185000FE81BC01CD010995813019F481E08F83AF
:1018600009C0809110018D3449F3809110018235B7
:1018700029F31F828F8127960FB6F894DEBF0FBE23
:10188000CDBFCF91DF910895DF93CF93CDB7DEB772
:101890006B970FB6F894DEBF0FBECDBF988F8F8BBE
:1018A000698F5B8F4A8F898D59DE84E48F878F899A
:1018B000988D892F990F990B888B8F89898B6FC091
:1018C00080E090E0A8E4B2E48B879C87AD87BE8778
:1018D0006B857C858D859E8520E030E44CE155E468
:1018E0000E941015DC01CB018F839887A987BA87E6
:1018F0006F81788589859A8520E030E040E85FE354
:101900003CD788232CF481E090E09E838D833DC0FA
:101910006F81788589859A8520E03FEF4FE757E40E
:101920000E940C15181644F56B857C858D859E8567
:1019300020E030E040E251E40E941015DC01CB01D0
:10194000BC01CD018BD7DC01CB019E838D830FC001
:101950008AEF90E09C838B838B819C810197F1F7C8
:101960009C838B838D819E8101979E838D838D8146
:101970009E81009769F713C06F81788589859A8564
:101980006DD7DC01CB019E838D838D819E819A83EF
:10199000898389819A810197F1F79A838983CE019E
:1019A0000F9663EC8FDA882309F08ACF8A8D9B8D9E
:1019B00030DF6B960FB6F894DEBF0FBECDBFCF9170
:1019C000DF910895DF93CF93CDB7DEB76C970FB655
:1019D000F894DEBF0FBECDBF988F8F8B698F4A8F73
:1019E0003C8F2B8F898DBADD87E48F87EF89F88D47
:1019F00080819181892F990F990B888BEF89F88DC0
:101A000080819181898BEF89F88D82819381892FE3
:101A1000990F990B8A8BEF89F88D828193818B8B3B
:101A20001C8A8A8D8D8B6CC080E090E0A8E4B2E4C3
:101A30008B879C87AD87BE876B857C858D859E85D2
:101A400020E030E44CE155E4EBD7DC01CB018F839F
:101A50009887A987BA876F81788589859A8520E0DC
:101A600030E040E85FE389D688232CF481E090E001
:101A70009E838D833BC06F81788589859A8520E020
:101A80003FEF4FE757E4C8D718163CF56B857C85C8
:101A90008D859E8520E030E040E251E4C1D7DC0135
:101AA000CB01BC01CD01DAD6DC01CB019E838D8355
:101AB0000FC08AEF90E09C838B838B819C81019780
:101AC000F1F79C838B838D819E8101979E838D830B
:101AD0008D819E81009769F713C06F817885898514
:101AE0009A85BCD6DC01CB019E838D838D819E813E
:101AF0009A83898389819A810197F1F79A838983EF
:101B0000CE010F9663ECDED9882309F08DCF8B8D43
:101B10009C8D7FDE6C960FB6F894DEBF0FBECDBFF6
:101B2000CF91DF910895DF93CF93CDB7DEB768975C
:101B30000FB6F894DEBF0FBECDBF988F8F8B89E4B0
:101B40008F87EF89F88D80819181892F990F990B6B
:101B5000888BEF89F88D80819181898BEF89F88D51
:101B600082819381892F990F990B8A8BEF89F88D48
:101B7000828193818B8BEF89F88D84819581892F68
:101B8000990F990B8C8BEF89F88D848195818D8BC2
:101B9000EF89F88D8081918190930B0180930A01E8
:101BA000EF89F88D8281938190930D0180930C01D0
:101BB000EF89F88D8481958190930F0180930E01B8
:101BC0006CC080E090E0A8E4B2E48B879C87AD878E
:101BD000BE876B857C858D859E8520E030E44CE159
:101BE00055E41ED7DC01CB018F839887A987BA877C
:101BF0006F81788589859A8520E030E040E85FE351
:101C0000BCD588232CF481E090E09E838D833BC07B
:101C10006F81788589859A8520E03FEF4FE757E40B
:101C2000FBD618163CF56B857C858D859E8520E05E
:101C300030E040E251E4F4D6DC01CB01BC01CD013F
:101C40000DD6DC01CB019E838D830FC08AEF90E01F
:101C50009C838B838B819C810197F1F79C838B8381
:101C60008D819E8101979E838D838D819E810097BA
:101C700069F713C06F81788589859A85EFD5DC0176
:101C8000CB019E838D838D819E819A8389838981F7
:101C90009A810197F1F79A838983CE010F9663ECBD
:101CA00011D9882309F08DCF68960FB6F894DEBF5E
:101CB0000FBECDBFCF91DF910895DF93CF93CDB706
:101CC000DEB76B970FB6F894DEBF0FBECDBF988F0F
:101CD0008F8B698F5B8F4A8F898D40DC84E58F877E
:101CE0008F89988D892F9927888B8F89898B6CC0D4
:101CF00080E090E0A8E4B2E48B879C87AD87BE8744
:101D00006B857C858D859E8520E030E44CE155E433
:101D100087D6DC01CB018F839887A987BA876F812B
:101D2000788589859A8520E030E040E85FE325D515
:101D300088232CF481E090E09E838D833BC06F81EB
:101D4000788589859A8520E03FEF4FE757E464D690
:101D500018163CF56B857C858D859E8520E030E0EE
:101D600040E251E45DD6DC01CB01BC01CD0176D56A
:101D7000DC01CB019E838D830FC08AEF90E09C83B2
:101D80008B838B819C810197F1F79C838B838D8161
:101D90009E8101979E838D838D819E81009769F737
:101DA00013C06F81788589859A8558D5DC01CB0170
:101DB0009E838D838D819E819A83898389819A8177
:101DC0000197F1F79A838983CE010F9663EC7AD855
:101DD000882309F08DCF8A8D9B8D1BDD6B960FB606
:101DE000F894DEBF0FBECDBFCF91DF910895DF9392
:101DF000CF9300D0CDB7DEB79A83898389819A814A
:101E000090935301809352010F900F90CF91DF91E7
:101E10000895DF93CF9300D000D0CDB7DEB7809187
:101E2000590190915A018130910589F480915B01AB
:101E300090915C01009759F480915D0190915E0151
:101E4000009729F481E090E09A83898378C080919B
:101E5000590190915A01009791F480915B01909102
:101E60005C018130910559F480915D0190915E0192
:101E7000009729F482E090E09A83898360C0809182
:101E8000590190915A01009791F480915B019091D2
:101E90005C01009761F480915D0190915E01813059
:101EA000910529F483E090E09A83898348C080916A
:101EB000590190915A018130910591F480915B0113
:101EC00090915C018130910559F480915D01909170
:101ED0005E01009729F484E090E09A8389832FC003
:101EE0008091590190915A01009799F480915B017A
:101EF00090915C018130910561F480915D01909138
:101F00005E018130910529F485E090E09A83898310
:101F100016C08091590190915A01009779F48091EF
:101F20005B0190915C01009749F480915D01909173
:101F30005E01009719F41A82198201C004C08981D8
:101F40009A819C838B838B819C810F900F900F9043
:101F50000F90CF91DF910895DF93CF93CDB7DEB788
:101F600062970FB6F894DEBF0FBECDBF188A1F86EA
:101F70008CC089E096D9882F90E090935A01809385
:101F800059018AE08ED9882F90E090935C0180936C
:101F90005B018BE086D9882F90E090935E0180935F
:101FA0005D0137DF9A8B898B80E090E0A8ECB2E48A
:101FB0008B879C87AD87BE876B857C858D859E854D
:101FC00020E030E44CE155E42BD5DC01CB018F83DC
:101FD0009887A987BA876F81788589859A8520E057
:101FE00030E040E85FE3C9D388232CF481E090E03F
:101FF0009E838D833BC06F81788589859A8520E09B
:102000003FEF4FE757E408D518163CF56B857C8504
:102010008D859E8520E030E040E251E401D5DC0171
:10202000CB01BC01CD011AD4DC01CB019E838D8391
:102030000FC08AEF90E09C838B838B819C810197FA
:10204000F1F79C838B838D819E8101979E838D8385
:102050008D819E81009769F713C06F81788589858E
:102060009A85FCD3DC01CB019E838D838D819E817B
:102070009A83898389819A810197F1F79A83898369
:102080008F8598890196988B8F878F859889853061
:1020900091050CF46ECF89899A8962960FB6F894EF
:1020A000DEBF0FBECDBFCF91DF9108950F931F9379
:1020B000DF93CF9300D0CDB7DEB79A838983E0E872
:1020C000F0E01082E1E8F0E089E0808308E810E0C9
:1020D00089819A81CC01A0E0B0E0BC01CD01EAD3B6
:1020E0009B01AC0160E876E988E19BE44AD3DC011E
:1020F000CB01BC01CD0120E030E040E05FE3D9D26C
:10210000DC01CB01BC01CD01A9D3DC01CB01F8017D
:1021100091838083EFE6F0E082E08083AFE5B0E07A
:10212000EFE5F0E0808180688C930F900F90CF9165
:10213000DF911F910F9108951F920F920FB60F928A
:1021400000905B000F9211242F933F934F935F9366
:102150006F937F938F939F93AF93BF93EF93FF936F
:10216000DF93CF93CDB7DEB78091520190915301A9
:10217000009729F0E0915201F09153010995809167
:10218000540190915501A0915601B09157018038AA
:1021900028E3920721E0A20720E0B20710F00E9496
:1021A000EE028091540190915501A0915601B09199
:1021B00057010196A11DB11D8093540190935501C3
:1021C000A0935601B0935701CF91DF91FF91EF910A
:1021D000BF91AF919F918F917F916F915F914F913F
:1021E0003F912F910F9000925B000F900FBE0F90C8
:1021F0001F901895DF93CF93CDB7DEB7109254019F
:10220000109255011092560110925701CF91DF9113
:102210000895DF93CF93CDB7DEB781E08093580167
:10222000CF91DF910895DF93CF93CDB7DEB7809143
:10223000540190915501A0915601B0915701BC01F4
:10224000CD01CF91DF910895DF93CF93CDB7DEB766
:102250006C970FB6F894DEBF0FBECDBF81ED99E04D
:10226000C6DD80E090E0A8ECB2E4898F9A8FAB8F56
:10227000BC8F698D7A8D8B8D9C8D20E030E44CE194
:1022800055E4CED3DC01CB018D8B9E8BAF8BB88F09
:102290006D897E898F89988D20E030E040E85FE38A
:1022A0006CD288232CF481E090E09C8B8B8B3BC01C
:1022B0006D897E898F89988D20E03FEF4FE757E445
:1022C000ABD318163CF5698D7A8D8B8D9C8D20E0F3
:1022D00030E040E251E4A4D3DC01CB01BC01CD01EC
:1022E000BDD2DC01CB019C8B8B8B0FC08AEF90E0C1
:1022F0009A8B898B89899A890197F1F79A8B898BB7
:102300008B899C8901979C8B8B8B8B899C890097EF
:1023100069F713C06D897E898F89988D9FD2DC0102
:10232000CB019C8B8B8B8B899C89988B8F878F851E
:1023300098890197F1F7988B8F8788E060E041E0FA
:102340000E94E30789E060E041E00E94E3078AE041
:1023500060E041E00E94E3078BE060E041E00E9422
:10236000E307E3E3F0E08FEF8083E4E3F0E08FEF57
:10237000808382E390E00E94430188EE93E096DE42
:1023800081E00E94A2060E94E9036CC080E090E018
:10239000A0E2B1E48B879C87AD87BE876B857C8587
:1023A0008D859E8520E030E44CE155E439D3DC0195
:1023B000CB018F839887A987BA876F8178858985B4
:1023C0009A8520E030E040E85FE3D7D188232CF401
:1023D00081E090E09E838D833BC06F817885898505
:1023E0009A8520E03FEF4FE757E416D318163CF5E7
:1023F0006B857C858D859E8520E030E040E251E450
:102400000FD3DC01CB01BC01CD0128D2DC01CB0113
:102410009E838D830FC08AEF90E09C838B838B819A
:102420009C810197F1F79C838B838D819E8101971D
:102430009E838D838D819E81009769F713C06F8184
:10244000788589859A850AD2DC01CB019E838D83AC
:102450008D819E819A83898389819A810197F1F781
:102460009A83898388E00E945109882309F08ECFDE
:10247000E4E3F0E01082BEDECCDE6C960FB6F8949A
:10248000DEBF0FBECDBFCF91DF9108951F920F9297
:102490000FB60F9200905B000F9211248F939F93C1
:1024A000AF93BF93EF93FF93DF93CF93CDB7DEB797
:1024B00080915D018823D9F080915D0181508093E6
:1024C0005D01A6ECB0E080915E01882F90E0FC01F8
:1024D000EB59FE4F80818C9380915E018F5F8093DA
:1024E0005E0180915E01803411F410925E01CF9103
:1024F000DF91FF91EF91BF91AF919F918F910F90DD
:1025000000925B000F900FBE0F901F9018951F92C6
:102510000F920FB60F9200905B000F9211242F9331
:102520008F939F93EF93FF93DF93CF930F92CDB74A
:10253000DEB7E0ECF0E0808189838981882F90E02C
:102540008C7190700097D9F480915F01882F90E092
:10255000E6ECF0E02081FC01EB55FE4F20838091FA
:102560005F018F5F80935F0180915F01803411F480
:1025700010925F01809160018F5F809360010F90E6
:10258000CF91DF91FF91EF919F918F912F910F90BC
:1025900000925B000F900FBE0F901F9018951F9236
:1025A0000F920FB60F9200905B000F9211248F9341
:1025B0009F93AF93BF93EF93FF93DF93CF93CDB7E9
:1025C000DEB7809161018823D9F08091610181504B
:1025D00080936101AEECB0E080916201882F90E0C1
:1025E000FC01EB51FE4F80818C93809162018F5FE3
:1025F0008093620180916201803411F41092620133
:10260000CF91DF91FF91EF91BF91AF919F918F910A
:102610000F9000925B000F900FBE0F901F901895C7
:102620001F920F920FB60F9200905B000F92112431
:102630002F938F939F93EF93FF93DF93CF930F92FB
:10264000CDB7DEB7E8ECF0E0808189838981882FFF
:1026500090E08C7190700097D9F480916301882F7D
:1026600090E0EEECF0E02081FC01EB5DFD4F20837B
:10267000809163018F5F8093630180916301803457
:1026800011F410926301809164018F5F8093640163
:102690000F90CF91DF91FF91EF919F918F912F91AB
:1026A0000F9000925B000F900FBE0F901F90189537
:1026B0005058BB27AA270ED075C166D130F06BD118
:1026C00020F031F49F3F11F41EF45BC10EF4E0954D
:1026D000E7FB51C1E92F77D180F3BA17620773077F
:1026E0008407950718F071F49EF58FC10EF4E095FC
:1026F0000B2EBA2FA02D0B01B90190010C01CA01BC
:10270000A0011124FF27591B99F0593F50F4503E66
:1027100068F11A16F040A22F232F342F4427585F58
:10272000F3CF469537952795A795F0405395C9F770
:102730007EF41F16BA0B620B730B840BBAF0915028
:10274000A1F0FF0FBB1F661F771F881FC2F70EC0C7
:10275000BA0F621F731F841F48F48795779567959A
:10276000B795F7959E3F08F0B3CF9395880F08F083
:102770009927EE0F979587950895D9D008F481E0B1
:1027800008950CD00FC107D140F0FED030F021F4F5
:102790005F3F19F0F0C0511139C1F3C014D198F363
:1027A0009923C9F35523B1F3951B550BBB27AA27D2
:1027B00062177307840738F09F5F5F4F220F331F44
:1027C000441FAA1FA9F333D00E2E3AF0E0E830D010
:1027D00091505040E695001CCAF729D0FE2F27D013
:1027E000660F771F881FBB1F261737074807AB07E1
:1027F000B0E809F0BB0B802DBF01FF2793585F4F56
:102800002AF09E3F510568F0B6C000C15F3FECF36F
:10281000983EDCF3869577956795B795F7959F5F1A
:10282000C9F7880F911D9695879597F90895E1E06E
:10283000660F771F881FBB1F621773078407BA07CD
:1028400020F0621B730B840BBA0BEE1F88F7E09528
:10285000089504D06894B111D9C00895BCD088F00F
:102860009F5790F0B92F9927B751A0F0D1F0660F7C
:10287000771F881F991F1AF0BA95C9F712C0B13097
:1028800081F0C3D0B1E00895C0C0672F782F8827AA
:10289000B85F39F0B93FCCF3869577956795B395D6
:1028A000D9F73EF490958095709561957F4F8F4F45
:1028B0009F4F0895E89409C097FB3EF4909580954A
:1028C000709561957F4F8F4F9F4F9923A9F0F92FF6
:1028D00096E9BB279395F695879577956795B79574
:1028E000F111F8CFFAF4BB0F11F460FF1BC06F5F5A
:1028F0007F4F8F4F9F4F16C0882311F096E911C06C
:10290000772321F09EE8872F762F05C0662371F08C
:1029100096E8862F70E060E02AF09A95660F771FA0
:10292000881FDAF7880F9695879597F90895990F7C
:102930000008550FAA0BE0E8FEEF16161706E80789
:10294000F907C0F012161306E407F50798F0621BAA
:10295000730B840B950B39F40A2661F0232B242B7F
:10296000252B21F408950A2609F4A140A6958FEF9E
:10297000811D811D089597F99F6780E870E060E0F0
:1029800008959FEF80EC089500240A941616170608
:1029900018060906089500240A9412161306140650
:1029A00005060895092E0394000C11F4882352F0B3
:1029B000BB0F40F4BF2B11F460FF04C06F5F7F4F6B
:1029C0008F4F9F4F089557FD9058440F551F59F052
:1029D0005F3F71F04795880F97FB991F61F09F3F0C
:1029E00079F087950895121613061406551FF2CF35
:1029F0004695F1DF08C0161617061806991FF1CF85
:102A000086957105610508940895E894BB276627AB
:102A10007727CB0197F908958ADF08F48FEF08959F
:102A20000BD0C0CFB1DF28F0B6DF18F0952309F046
:102A3000A2CFA7CF1124EACFC6DFA0F3959FD1F391
:102A4000950F50E0551F629FF001729FBB27F00D5C
:102A5000B11D639FAA27F00DB11DAA1F649F6627B1
:102A6000B00DA11D661F829F2227B00DA11D621F00
:102A7000739FB00DA11D621F839FA00D611D221FBA
:102A8000749F3327A00D611D231F849F600D211D9E
:102A9000822F762F6A2F11249F5750408AF0E1F041
:102AA00088234AF0EE0FFF1FBB1F661F771F881F8A
:102AB00091505040A9F79E3F510570F05CCFA6CFD2
:102AC0005F3FECF3983EDCF3869577956795B79575
:102AD000F795E7959F5FC1F7FE2B880F911D96959F
:102AE000879597F908950F931F93CF93DF93689F6E
:102AF0008001699F100D789F100D1124C8010DD021
:102B0000EC01009721F060E070E0A8010BD1CE014C
:102B1000DF91CF911F910F910895CF93DF93BC0167
:102B20008230910510F462E070E0A0916702B091EC
:102B30006802ED01E0E0F0E040E050E021C0888173
:102B400099818617970769F48A819B81309719F0DC
:102B50009383828304C09093680280936702FE018E
:102B600034C06817790738F44115510519F08417F6
:102B7000950708F4AC01FE018A819B819C01E90163
:102B80002097E9F641155105A9F1CA01861B970B5B
:102B9000049708F4BA01E0E0F0E02AC08D919C911E
:102BA000119784179507F9F46417750781F4129645
:102BB0008D919C911397309719F09383828304C071
:102BC0009093680280936702FD0132964FC0CA015C
:102BD000861B970BFD01E80FF91F61937193029714
:102BE0008D939C9343C0FD01828193819C01D90107
:102BF0001097A1F68091650290916602892B41F4AD
:102C00008091020190910301909366028093650286
:102C100040910401509105014115510541F44DB712
:102C20005EB78091000190910101481B590B2091E2
:102C300065023091660224173507B0F4CA01821B81
:102C4000930B8617970780F0AB014E5F5F4F841799
:102C5000950750F0420F531F509366024093650250
:102C6000F9016193719302C0E0E0F0E0CF01DF91E0
:102C7000CF910895CF93DF93009709F450C0EC01F2
:102C800022971B821A82A0916702B0916802109766
:102C900009F140E050E0AC17BD0708F1BB83AA83FF
:102CA000FE0121913191E20FF31FAE17BF0779F4B6
:102CB0008D919C911197280F391F2E5F3F4F3983BB
:102CC000288312968D919C9113979B838A8341153B
:102CD000510571F4D0936802C093670220C0129628
:102CE0008D919C911397AD01009711F0DC01D3CF2A
:102CF000FA01D383C28321913191E20FF31FCE17E2
:102D0000DF0769F488819981280F391F2E5F3F4FB3
:102D1000FA01318320838A819B8193838283DF91AF
:102D2000CF910895DC0101C06D9341505040E0F710
:062D30000895F894FFCFA6
:102D360020006902000006010601000000000000F4
:0C2D4600495500F4010000006E0100007F
:00000001FF
