:1000000049C0000065C0000063C0000061C000007E
:100010005FC000005DC000005BC0000059C0000070
:1000200057C0000055C0000053C0000051C0000080
:100030000C940F174DC000004BC0000049C00000D9
:1000400047C0000045C000005FC5000041C000007F
:100050003FC000000C9432193BC000000C94F11812
:1000600037C0000035C0000033C0000031C00000C0
:100070002FC000002DC000002BC0000029C00000D0
:100080000C94BB1925C000000C947A1921C0000003
:100090001FC0000011241FBECFEFD0E1DEBFCDBFD7
:1000A00011E0A0E0B1E0ECE8FAE300E00BBF02C031
:1000B00007900D92A635B107D9F712E0A6E5B1E099
:1000C00001C01D92AE39B107E1F703D00C94441D75
:1000D00097CFDF93CF93CDB7DEB72E970FB6F894B7
:1000E000DEBF0FBECDBF0E94AA1780E090E0A8EC53
:1000F000B2E48B879C87AD87BE876B857C858D85B9
:100100009E8520E030E44CE155E40E94BB1BDC01FD
:10011000CB018F839887A987BA876F817885898576
:100120009A8520E030E040E85FE30E94681A882367
:100130002CF481E090E09E838D833FC06F817885B1
:1001400089859A8520E03FEF4FE757E40E94B71B6F
:1001500018164CF56B857C858D859E8520E030E0FA
:1001600040E251E40E94BB1BDC01CB01BC01CD018C
:100170000E94D91ADC01CB019E838D830FC08AEFC8
:1001800090E09C838B838B819C810197F1F79C830A
:100190008B838D819E8101979E838D838D819E812E
:1001A000009769F72AC06F81788589859A850E94B2
:1001B000D91ADC01CB019E838D838D819E819A8328
:1001C000898389819A810197F1F79A83898315C080
:1001D0000E946D17882349F482E090E09093070114
:1001E000809306010E94EC0A08C083E090E090939F
:1001F0000701809306010E94B81280910601909138
:100200000701009729F7809106019091070182303C
:10021000910519F40E94EC0AF6CF809106019091A5
:1002200007018330910579F70E94B812ECCF0F9344
:100230001F93DF93CF9300D0CDB7DEB79A83898326
:10024000ADE2B0E0EDE2F0E0808188638C93A4E25F
:10025000B0E0E4E2F0E0808180688C93E4E9F0E0D3
:1002600011821082E6E4F0E01082E8E9F0E0118209
:100270001082EAE9F0E011821082ECE9F0E01182EC
:100280001082E0E9F0E08EEB8083E1E9F0E08AE1C2
:100290008083E4E4F0E08BE6808306E910E0898166
:1002A0009A81CC01A0E0B0E0BC01CD010E94051B09
:1002B000DC01CB01BC01CD0120E030E040E051E4A5
:1002C0000E94BB1BDC01CB019C01AD0160E876E91B
:1002D00088E19BE40E946C1ADC01CB01BC01CD01DA
:1002E00020E030E040E05FE30E94041ADC01CB0133
:1002F000BC01CD010E94D91ADC01CB01F801918328
:1003000080830F900F90CF91DF911F910F910895EF
:10031000EF92FF920F931F93DF93CF9300D000D003
:10032000CDB7DEB79C838B83E6E9F0E080819181D5
:10033000CC01A0E0B0E0BC01CD010E94051BDC01B6
:10034000CB01BC01CD0120E030E04FE753E40E9437
:100350006C1ADC01CB017C018D018B819C81AA2769
:1003600097FDA095BA2FBC01CD010E94071B9B01F0
:10037000AC01C801B7010E94BB1BDC01CB01BC0171
:10038000CD0120E030E040E05FE30E94041ADC0190
:10039000CB01BC01CD010E94D91ADC01CB019A83AB
:1003A0008983E9E9F0E089819A81892F99278083FF
:1003B000E8E9F0E0898180830F900F900F900F9013
:1003C000CF91DF911F910F91FF90EF900895EF92E1
:1003D000FF920F931F93DF93CF9300D000D0CDB740
:1003E000DEB79C838B83E6E9F0E080819181CC01CC
:1003F000A0E0B0E0BC01CD010E94051BDC01CB01F7
:10040000BC01CD0120E030E04FE753E40E946C1ABC
:10041000DC01CB017C018D018B819C81AA2797FD9A
:10042000A095BA2FBC01CD010E94071B9B01AC0116
:10043000C801B7010E94BB1BDC01CB01BC01CD018F
:1004400020E030E040E05FE30E94041ADC01CB01D1
:10045000BC01CD010E94D91ADC01CB019A838983AA
:10046000EBE9F0E089819A81892F99278083EAE975
:10047000F0E0898180830F900F900F900F90CF91C3
:10048000DF911F910F91FF90EF900895EF92FF92EF
:100490000F931F93DF93CF9300D000D0CDB7DEB77B
:1004A0009C838B83E6E9F0E080819181CC01A0E020
:1004B000B0E0BC01CD010E94051BDC01CB01BC01F9
:1004C000CD0120E030E04FE753E40E946C1ADC01DC
:1004D000CB017C018D018B819C81AA2797FDA09582
:1004E000BA2FBC01CD010E94071B9B01AC01C801C2
:1004F000B7010E94BB1BDC01CB01BC01CD0120E098
:1005000030E040E05FE30E94041ADC01CB01BC0153
:10051000CD010E94D91ADC01CB019A838983EDE9D0
:10052000F0E089819A81892F99278083ECE9F0E0B6
:10053000898180830F900F900F900F90CF91DF9162
:100540001F910F91FF90EF900895DF93CF930F923B
:10055000CDB7DEB789838981992787FD9095A92F2B
:10056000B92FBC01CD010E94071BDC01CB01BC01EE
:10057000CD0120E030E044EB52E40E946C1ADC0133
:10058000CB01BC01CD0126E636E646E351EC0E94E4
:10059000BB1BDC01CB01BC01CD0120E030E04CE60F
:1005A00053E40E94041ADC01CB019C01AD0160E020
:1005B00070E08FE793E40E94031ADC01CB01BC01D9
:1005C000CD010E94D41ADC01CB01A2DE0F90CF91A5
:1005D000DF910895DF93CF930F92CDB7DEB7898374
:1005E0008981992787FD9095A92FB92FBC01CD014D
:1005F0000E94071BDC01CB01BC01CD0120E030E0F3
:1006000044EB52E40E946C1ADC01CB01BC01CD0129
:1006100026E636E646E351EC0E94BB1BDC01CB012B
:10062000BC01CD0120E030E04CE653E40E94041A06
:10063000DC01CB019C01AD0160E070E08FE793E449
:100640000E94031ADC01CB01BC01CD010E94D41A27
:10065000DC01CB01BCDE0F90CF91DF910895DF93D9
:10066000CF930F92CDB7DEB789838981992787FD14
:100670009095A92FB92FBC01CD010E94071BDC0169
:10068000CB01BC01CD0120E030E044EB52E40E94FC
:100690006C1ADC01CB01BC01CD0126E636E646E34F
:1006A00051EC0E94BB1BDC01CB01BC01CD0120E061
:1006B00030E04CE653E40E94041ADC01CB019C01BB
:1006C000AD0160E070E08FE793E40E94031ADC0163
:1006D000CB01BC01CD010E94D41ADC01CB01D6DED6
:1006E0000F90CF91DF910895DF93CF930F92CDB705
:1006F000DEB78983E7E4F0E0898180830F90CF91B2
:10070000DF910895DF93CF93CDB7DEB786EFA7DFF4
:1007100080E5EADFCF91DF910895DF93CF93CDB7E6
:10072000DEB72E970FB6F894DEBF0FBECDBF8AE5B9
:1007300051DF80E090E0AAEFB4E48B879C87AD871F
:10074000BE876B857C858D859E8520E030E44CE1FD
:1007500055E40E94BB1BDC01CB018F839887A987DE
:10076000BA876F81788589859A8520E030E040E8F6
:100770005FE30E94681A88232CF481E090E09E8356
:100780008D833FC06F81788589859A8520E03FEF12
:100790004FE757E40E94B71B18164CF56B857C8514
:1007A0008D859E8520E030E040E251E40E94BB1B35
:1007B000DC01CB01BC01CD010E94D91ADC01CB01C7
:1007C0009E838D830FC08AEF90E09C838B838B8107
:1007D0009C810197F1F79C838B838D819E8101978A
:1007E0009E838D838D819E81009769F714C06F81F0
:1007F000788589859A850E94D91ADC01CB019E8370
:100800008D838D819E819A83898389819A810197C5
:10081000F1F79A83898386E498DE2E960FB6F894D2
:10082000DEBF0FBECDBFCF91DF910895DF93CF9391
:10083000CDB7DEB7AA970FB6F894DEBF0FBECDBF17
:100840008AE5C8DE80E090E0AAE7B4E48FA398A729
:10085000A9A7BAA76FA178A589A59AA520E030E439
:100860004CE155E40E94BB1BDC01CB018BA39CA394
:10087000ADA3BEA36BA17CA18DA19EA120E030E021
:1008800040E85FE30E94681A88232CF481E090E03E
:100890009AA389A33FC06BA17CA18DA19EA120E05A
:1008A0003FEF4FE757E40E94B71B18164CF56FA1B6
:1008B00078A589A59AA520E030E040E251E40E94A5
:1008C000BB1BDC01CB01BC01CD010E94D91ADC01AC
:1008D000CB019AA389A30FC08AEF90E098A38F8FD2
:1008E0008F8D98A10197F1F798A38F8F89A19AA175
:1008F00001979AA389A389A19AA1009769F714C0C7
:100900006BA17CA18DA19EA10E94D91ADC01CB0113
:100910009AA389A389A19AA19E8F8D8F8D8D9E8D7B
:100920000197F1F79E8F8D8F80E090E0AAE7B4E405
:10093000898F9A8FAB8FBC8F698D7A8D8B8D9C8DB3
:1009400020E030E44CE155E40E94BB1BDC01CB010C
:100950008D8B9E8BAF8BB88F6D897E898F89988D9B
:1009600020E030E040E85FE30E94681A88232CF41E
:1009700081E090E09C8B8B8B3FC06D897E898F8955
:10098000988D20E03FEF4FE757E40E94B71B181601
:100990004CF5698D7A8D8B8D9C8D20E030E040E2A6
:1009A00051E40E94BB1BDC01CB01BC01CD010E94C4
:1009B000D91ADC01CB019C8B8B8B0FC08AEF90E0A6
:1009C0009A8B898B89899A890197F1F79A8B898B00
:1009D0008B899C8901979C8B8B8B8B899C89009739
:1009E00069F714C06D897E898F89988D0E94D91A04
:1009F000DC01CB019C8B8B8B8B899C89988B8F879F
:100A00008F8598890197F1F7988B8F878EE1E2DDCA
:100A100080E090E0AAEFB3E48B879C87AD87BE8728
:100A20006B857C858D859E8520E030E44CE155E426
:100A30000E94BB1BDC01CB018F839887A987BA87F3
:100A40006F81788589859A8520E030E040E85FE312
:100A50000E94681A88232CF481E090E09E838D83A5
:100A60003FC06F81788589859A8520E03FEF4FE709
:100A700057E40E94B71B18164CF56B857C858D8555
:100A80009E8520E030E040E251E40E94BB1BDC0187
:100A9000CB01BC01CD010E94D91ADC01CB019E83A0
:100AA0008D830FC08AEF90E09C838B838B819C8128
:100AB0000197F1F79C838B838D819E8101979E83A3
:100AC0008D838D819E81009769F714C06F81788531
:100AD00089859A850E94D91ADC01CB019E838D837A
:100AE0008D819E819A83898389819A810197F1F70B
:100AF0009A83898307DEAA960FB6F894DEBF0FBEED
:100B0000CDBFCF91DF9108951F920F920FB60F9234
:100B100000905B000F9211242F933F934F935F93AC
:100B20008F939F93AF93BF93EF93FF93DF93CF93F5
:100B300000D000D0CDB7DEB7EDEEF0E080818C8341
:100B40001B829CC0EDEEF0E08B818295807F8083DC
:100B5000EEEEF0E08081829586958770882F90E098
:100B600081709070882309F46EC0EFEEF0E080E8A9
:100B70008083AEEEB0E0EEEEF0E080818F7D8C936E
:100B8000E2EFF0E08081829586958770282FE3EF71
:100B9000F0E08081882F90E0880F991F880F991FBF
:100BA000880F991F822B8A8319822AC08A81282F55
:100BB00030E081E090E0821B930B880F991F9095A5
:100BC00081959F4FFC01EA5AFE4F408151818A81F5
:100BD000882F90E00197FC01E659FE4F8081282F75
:100BE00030E08981882F90E0820F931FDA01A80FEF
:100BF000B91FEAEFF0E080818C9389818F5F898350
:100C00008981883098F28A81882F90E00197FC01D1
:100C1000E659FE4F80818F5F80838081853041F46B
:100C20008A81882F90E00197FC01E659FE4F1082DF
:100C30008A81882F90E00197FC01E258FE4F808165
:100C40008F5F80831FC0EEEEF0E0808182958695F5
:100C500086958370882F90E081709070882359F07A
:100C6000EFEEF0E01082AEEEB0E0EEEEF0E080816C
:100C70008F7B8C9307C08B818F5F8B838B818F30B1
:100C800008F460CFEDEEF0E08C818083AAEDB0E057
:100C9000EAEDF0E080818C930F900F900F900F9011
:100CA000CF91DF91FF91EF91BF91AF919F918F9184
:100CB0005F914F913F912F910F9000925B000F90A9
:100CC0000FBE0F901F901895DF93CF9300D0CDB734
:100CD000DEB7E8EDF0E081E080831A8232C0EDEE0D
:100CE000F0E08A818295807F8083EEEEF0E01082D2
:100CF000EFEEF0E01082E3EFF0E01082E2EFF0E0E0
:100D00001082E1EFF0E01082E0EFF0E01082E7EF18
:100D1000F0E01082E6EFF0E01082E5EFF0E0108204
:100D2000E4EFF0E01082198206C0EAEFF0E01082F2
:100D300089818F5F898389818830B8F38A818F5F49
:100D40008A838A818F3058F2E8EDF0E082E0808378
:100D5000E2EEF0E081E08083E3EEF0E088E0808383
:100D6000E4EEF0E08EE58083E5EEF0E01082EBED5E
:100D7000F0E080EB8083EFEDF0E08FE78083EEED35
:100D8000F0E08FEF808378940F900F90CF91DF91F8
:100D90000895DF93CF9300D000D00F92CDB7DEB788
:100DA0009C838B83EDEEF0E080818983E9EDF0E0B8
:100DB000808182958F70882F90E081709070882359
:100DC000A9F7E9EDF0E08081869586958695882FD4
:100DD00090E081709070882349F71A823FC0EDEE51
:100DE000F0E08A818295807F8083EFEEF0E0808161
:100DF0008295869586958370882369F5EFEEF0E0FD
:100E00008FE08083E3EFF0E08B819C81907096957A
:100E1000879596958795969587958083E2EFF0E084
:100E20008B818295880F807E8083E6EFF0E080EEF4
:100E30008083E7EFF0E08FEF8083AFEEB0E0EFEE7E
:100E4000F0E0808180688C93EDEEF0E08981808312
:100E500081E08D830CC08A818F5F8A838A818F3085
:100E600008F4BDCFEDEEF0E0898180831D828D8195
:100E70000F900F900F900F900F90CF91DF910895EA
:100E80000F931F93DF93CF9300D0CDB7DEB78A8344
:100E90001BDF198236C08981882F90E0019679DFA7
:100EA0008981882F90E0880F991F8C010A5A1E4F64
:100EB00085E090E061E070E00E941E1CF8019183E3
:100EC00080838981482F50E08981282F30E08981F3
:100ED000882F90E0FC01E258FE4F1082FC01E2589E
:100EE000FE4F8081F901EC58FE4F8083F901EC58E8
:100EF000FE4F8081FA01E659FE4F808389818F5F22
:100F0000898399818A81981730F20F900F90CF9141
:100F1000DF911F910F910895DF93CF9300D000D000
:100F2000CDB7DEB79B838A836C83E4E3F0E08FEF79
:100F300080838C81882F90E00197FC01E258FE4F5E
:100F400080818823B1F3198230C08981282F30E055
:100F50008A819B81DC01A20FB31F8C81282F30E096
:100F600081E090E0821B930B880F991F90958195EB
:100F70009F4FFC01EA5AFE4F408151818C81882F9E
:100F800090E00197FC01EC58FE4F8081282F30E063
:100F90008981882F90E0820F931FFA01E80FF91FD3
:100FA00080818C9389818F5F89838981883068F201
:100FB0008C81882F90E00197FC01EC58FE4F8081D6
:100FC0008F5F80838081853041F48C81882F90E011
:100FD0000197FC01EC58FE4F10828C81882F90E025
:100FE0009C0121503040F901E258FE4F8081815030
:100FF000F901E258FE4F808380E00F900F900F9030
:101000000F90CF91DF910895DF93CF93CDB7DEB7E7
:1010100027970FB6F894DEBF0FBECDBF9D838C839C
:101020006E83E9EDF0E0808182958F70882F90E0EB
:10103000817090708823A9F7E9EDF0E080818695B2
:1010400086958695882F90E081709070882349F767
:10105000EDEEF0E0808189831A8212C0EDEEF0E0BF
:101060008A818295807F8083EFEEF0E08081829597
:10107000869586958370882331F08A818F5F8A8375
:101080008A818F3058F38A818F3019F48FEF8F83E4
:1010900032C0E2EFF0E08E818295880F807E8083FF
:1010A000E3EFF0E08E818695869586958083EFEE5E
:1010B000F0E088E080831B820FC0AAEFB0E08B8154
:1010C000282F30E08C819D81FC01E20FF31F80818D
:1010D0008C938B818F5F8B838B81883070F3AFEE25
:1010E000B0E0EFEEF0E0808180648C93EDEEF0E014
:1010F000898180831F828F8127960FB6F894DEBF87
:101100000FBECDBFCF91DF910895DF93CF93CDB7C1
:10111000DEB72C970FB6F894DEBF0FBECDBF898720
:101120006A874B8780910A0190910B019C838B8386
:101130008B819C81069798878F8314C0EF81F885F7
:1011400090818985981719F421E02C87C9C0EF8117
:10115000F885808591859A83898389819A8106970C
:1011600098878F838F819885069621E08830920733
:1011700029F789858695869586958F5F8E838985E3
:1011800087708D838A85813009F048C08E81282F31
:1011900030E0C901880F991F820F931F4E96DC0122
:1011A0008E81282F30E0C901880F991F820F931F6D
:1011B0004E96FC018081482F8D81282F30E081E000
:1011C00090E002C0880F991F2A95E2F7842B8C9338
:1011D0008E81282F30E0C901880F991F820F931F3D
:1011E0004F96DC018E81282F30E0C901880F991FAE
:1011F000820F931F4F96FC018081482F8D81282FED
:1012000030E081E090E0022E02C0880F991F0A941E
:10121000E2F7809584238C931C8662C08E81282FF0
:1012200030E0C901880F991F820F931F4E96DC0191
:101230008E81282F30E0C901880F991F820F931FDC
:101240004E96FC018081482F8D81282F30E081E06F
:1012500090E002C0880F991F2A95E2F780958423B9
:101260008C938E81282F30E0C901880F991F820F3F
:10127000931F4F96DC018E81282F30E0C901880F23
:10128000991F820F931F4F96FC018081482F8D81FB
:10129000282F30E081E090E002C0880F991F2A9546
:1012A000E2F7842B8C938AE090E00E94381C9887A8
:1012B0008F838F819885009719F481E08C8710C007
:1012C000EF81F88589858083EF81F8858B8581831F
:1012D0008F819885069628E031E0B9010BD01C86F5
:1012E0008C852C960FB6F894DEBF0FBECDBFCF9184
:1012F000DF910895DF93CF9300D000D0CDB7DEB754
:101300009A8389837C836B83EB81FC814281538147
:1013100089819A812B813C81B90107D00F900F9070
:101320000F900F90CF91DF910895DF93CF9300D06E
:1013300000D000D0CDB7DEB79A8389837C836B83DE
:101340005E834D83ED81FE8189819A8191838083C3
:10135000E981FA818D819E8193838283E981FA817B
:101360008B819C8191838083EB81FC8189819A812F
:101370009383828326960FB6F894DEBF0FBECDBF4F
:10138000CF91DF910895DF93CF9300D00F92CDB727
:10139000DEB78B838B818695869586958F5F8A8352
:1013A0008B8187708B838A81282F30E0C901880F59
:1013B000991F820F931F4D96FC018081898389813B
:1013C000282F30E08B81882F90E0A90102C055952D
:1013D00047958A95E2F7CA0181700F900F900F90A0
:1013E000CF91DF910895DF93CF93CDB7DEB72B97E1
:1013F0000FB6F894DEBF0FBECDBF898780910A017A
:1014000090910B019E838D838D819E810697988795
:101410008F8355C0EF81F88590818985981709F0F1
:1014200043C01C8221C08C81282F30E08F81988599
:10143000820F931FFC01329640818C81882F90E0AF
:101440009C012F5F3F4F8F819885820F931FFC0176
:1014500032968081481729F0EF81F88525812B8706
:1014600038C08C818F5F8C838C818230E0F2EF8179
:10147000F885918181E08927882329F0EF81F8851B
:1014800082818A8708C0EF81F88582811A86882345
:1014900011F421E02A878A858B83EF81F8858B817F
:1014A00085832B812B8715C0EF81F88580859185F9
:1014B0009A83898389819A81069798878F838F8100
:1014C0009885069621E08830920709F0A3CF81E045
:1014D0008B878B852B960FB6F894DEBF0FBECDBFE2
:1014E000CF91DF9108950F931F93DF93CF9300D097
:1014F00000D000D0CDB7DEB780910A0190910B01EA
:101500009C838B838B819C8106979E838D831BC0DC
:101510000091880110918901ED81FE81808133DF86
:10152000282F8D819E81800F911FFC013296208390
:10153000ED81FE81808591859A83898389819A8155
:1015400006979E838D838D819E81069621E088304B
:101550009207F1F68091880190918901019690930C
:10156000890180938801809188019091890183305D
:10157000910521F4109289011092880126960FB6E8
:10158000F894DEBF0FBECDBFCF91DF911F910F91B9
:101590000895DF93CF9300D000D000D0CDB7DEB751
:1015A0006A837B838C839D8383E00E94D418898324
:1015B0008981813031F483E590E03BD481E08E83F2
:1015C00001C01E828E8126960FB6F894DEBF0FBE34
:1015D000CDBFCF91DF910895DF93CF93CDB7DEB725
:1015E000C554D0400FB6F894DEBF0FBECDBF1CAEC1
:1015F0001BAE82E089AF84EB90E09EAF8DAF88E2B6
:1016000095E0FE01FF9691838083FE01EF5BFF4F23
:101610008AE590E091838083CE01CD9607D689AD8F
:10162000282F332727FD309526963FAF2EAF2697DC
:1016300026968EAD9FAD2697009749F026962EAD43
:101640003FAD26972230310509F40AC1E8CF8CADB1
:10165000882309F005C180E090E0A8E4B3E48DABF5
:101660009EABAFABB8AF6DA97EA98FA998AD20E0B6
:1016700030E44CE155E40E94BB1BDC01CB0189AB9B
:101680009AABABABBCAB69A97AA98BA99CA920E0AA
:1016900030E040E85FE30E94681A88232CF481E080
:1016A00090E098AB8FA73FC069A97AA98BA99CA9A4
:1016B00020E03FEF4FE757E40E94B71B18164CF5A8
:1016C0006DA97EA98FA998AD20E030E040E251E4F9
:1016D0000E94BB1BDC01CB01BC01CD010E94D91AC9
:1016E000DC01CB0198AB8FA70FC08AEF90E09EA7DB
:1016F0008DA78DA59EA50197F1F79EA78DA78FA514
:1017000098A9019798AB8FA78FA598A9009769F71B
:1017100087C069A97AA98BA99CA90E94D91ADC0162
:10172000CB0198AB8FA78FA598A99CA78BA78BA55A
:101730009CA50197F1F79CA78BA772C080E090E071
:10174000A8ECB2E48FA398A7A9A7BAA76FA178A520
:1017500089A59AA520E030E44CE155E40E94BB1B2A
:10176000DC01CB018BA39CA3ADA3BEA36BA17CA189
:101770008DA19EA120E030E040E85FE30E94681A5E
:1017800088232CF481E090E09AA389A33FC06BA149
:101790007CA18DA19EA120E03FEF4FE757E40E947E
:1017A000B71B18164CF56FA178A589A59AA520E05E
:1017B00030E040E251E40E94BB1BDC01CB01BC01E4
:1017C000CD010E94D91ADC01CB019AA389A30FC0D5
:1017D0008AEF90E098A38F8F8F8D98A10197F1F7F2
:1017E00098A38F8F89A19AA101979AA389A389A110
:1017F0009AA1009769F714C06BA17CA18DA19EA14D
:101800000E94D91ADC01CB019AA389A389A19AA1CC
:101810009E8F8D8F8D8D9E8D0197F1F79E8F8D8F71
:101820008CAD482F50E0CA01880F991F9C01220FF0
:10183000331F220F331F820F931F840F951FFC014C
:10184000E45EFE4F0190F081E02D60E070E080E00A
:1018500090E00995882309F071CF82E089AFDFCE4F
:101860008BAD8CAF4AC18CAD482F50E0CA01880FB8
:10187000991F9C01220F331F220F331F820F931FCA
:10188000840F951F8D5E9E4FBC018CAD482F50E09C
:10189000CA01880F991F9C01220F331F220F331F8B
:1018A000820F931F840F951FFC01E65EFE4FA081FF
:1018B0008CAD482F50E0CA01880F991F9C01220F60
:1018C000331F220F331F820F931F840F951FFC01BC
:1018D000E55EFE4F8081B82F8CAD482F50E0CA01E5
:1018E000880F991F9C01220F331F220F331F820F75
:1018F000931F840F951FFC01E45EFE4F2081318110
:10190000CB016A2F4B2FD9D38AAF8AAD813009F42E
:1019100086CE8CAD882309F073C080E090E8ABE3FD
:10192000B5E4898F9A8FAB8FBC8F698D7A8D8B8D43
:101930009C8D20E030E44CE155E40E94BB1BDC01AF
:10194000CB018D8B9E8BAF8BB88F6D897E898F89F4
:10195000988D20E030E040E85FE30E94681A882319
:101960002CF481E090E09C8B8B8B3FC06D897E894D
:101970008F89988D20E03FEF4FE757E40E94B71B17
:1019800018164CF5698D7A8D8B8D9C8D20E030E09A
:1019900040E251E40E94BB1BDC01CB01BC01CD0144
:1019A0000E94D91ADC01CB019C8B8B8B0FC08AEF74
:1019B00090E09A8B898B89899A890197F1F79A8BA4
:1019C000898B8B899C8901979C8B8B8B8B899C89BC
:1019D000009769F78BC06D897E898F89988D0E94E9
:1019E000D91ADC01CB019C8B8B8B8B899C89988BC2
:1019F0008F878F8598890197F1F7988B8F8776C0AD
:101A00008CAD813009F072C080E090E8ABEBB4E4BB
:101A10008B879C87AD87BE876B857C858D859E85F2
:101A200020E030E44CE155E40E94BB1BDC01CB011B
:101A30008F839887A987BA876F81788589859A85EA
:101A400020E030E040E85FE30E94681A88232CF42D
:101A500081E090E09E838D833FC06F81788589858A
:101A60009A8520E03FEF4FE757E40E94B71B181616
:101A70004CF56B857C858D859E8520E030E040E2CD
:101A800051E40E94BB1BDC01CB01BC01CD010E94D3
:101A9000D91ADC01CB019E838D830FC08AEF90E0C1
:101AA0009C838B838B819C810197F1F79C838B8333
:101AB0008D819E8101979E838D838D819E8100976C
:101AC00069F714C06F81788589859A850E94D91A33
:101AD000DC01CB019E838D838D819E819A838983D6
:101AE00089819A810197F1F79A8389838CAD82303D
:101AF00009F4FFCF8CAD8F5F8CAF8CAD833008F4D1
:101B0000B2CE8DCDDF93CF93CDB7DEB767970FB64B
:101B1000F894DEBF0FBECDBF8F8B90918A018F8965
:101B2000891709F481C086E58F878F89888B72C0F9
:101B300080E090E0A8E4B2E48B879C87AD87BE8705
:101B40006B857C858D859E8520E030E44CE155E4F5
:101B50000E94BB1BDC01CB018F839887A987BA87C2
:101B60006F81788589859A8520E030E040E85FE3E1
:101B70000E94681A88232CF481E090E09E838D8374
:101B80003FC06F81788589859A8520E03FEF4FE7D8
:101B900057E40E94B71B18164CF56B857C858D8524
:101BA0009E8520E030E040E251E40E94BB1BDC0156
:101BB000CB01BC01CD010E94D91ADC01CB019E836F
:101BC0008D830FC08AEF90E09C838B838B819C81F7
:101BD0000197F1F79C838B838D819E8101979E8372
:101BE0008D838D819E81009769F714C06F81788500
:101BF00089859A850E94D91ADC01CB019E838D8349
:101C00008D819E819A83898389819A810197F1F7D9
:101C10009A838983CE010F9663ECF6D9882309F065
:101C200087CF8F8980938A0167960FB6F894DEBFBD
:101C30000FBECDBFCF91DF910895DF93CF93CDB786
:101C4000DEB766970FB6F894DEBF0FBECDBF80E556
:101C50008F8772C080E090E0A8E4B2E48B879C8715
:101C6000AD87BE876B857C858D859E8520E030E4C1
:101C70004CE155E40E94BB1BDC01CB018F839887AC
:101C8000A987BA876F81788589859A8520E030E0B9
:101C900040E85FE30E94681A88232CF481E090E01A
:101CA0009E838D833FC06F81788589859A8520E0EA
:101CB0003FEF4FE757E40E94B71B18164CF56B85B2
:101CC0007C858D859E8520E030E040E251E40E94D5
:101CD000BB1BDC01CB01BC01CD010E94D91ADC0188
:101CE000CB019E838D830FC08AEF90E09C838B8312
:101CF0008B819C810197F1F79C838B838D819E81E1
:101D000001979E838D838D819E81009769F714C012
:101D10006F81788589859A850E94D91ADC01CB016B
:101D20009E838D838D819E819A83898389819A8107
:101D30000197F1F79A838983CE010F9663EC64D9FA
:101D4000882309F087CFCE010F9661E0E5D88F8513
:101D5000809312018889882F90E0382F2227898963
:101D6000882F90E0822B932B90930D0180930C0190
:101D70008A89882F90E0382F22278B89882F90E03E
:101D8000822B932B90930F0180930E018C89882FC7
:101D900090E0382F22278D89882F90E0822B932B7B
:101DA000909311018093100166960FB6F894DEBFF0
:101DB0000FBECDBFCF91DF910895DF93CF93CDB705
:101DC000DEB727970FB6F894DEBF0FBECDBF9E8358
:101DD0008D830E949917AA2797FDA095BA2F898312
:101DE0009A83AB83BC8329DF8D819E81009771F03C
:101DF00089819A81AB81BC81ED81FE81BC01CD01DD
:101E00000995813019F481E08F8309C08091120116
:101E10008D3449F380911201823529F31F828F811D
:101E200027960FB6F894DEBF0FBECDBFCF91DF91DE
:101E30000895DF93CF93CDB7DEB767970FB6F894C9
:101E4000DEBF0FBECDBF8F8B8F898F8772C080E0C2
:101E500090E0A8E4B2E48B879C87AD87BE876B8552
:101E60007C858D859E8520E030E44CE155E40E9420
:101E7000BB1BDC01CB018F839887A987BA876F8151
:101E8000788589859A8520E030E040E85FE30E940C
:101E9000681A88232CF481E090E09E838D833FC0F4
:101EA0006F81788589859A8520E03FEF4FE757E479
:101EB0000E94B71B18164CF56B857C858D859E8519
:101EC00020E030E040E251E40E94BB1BDC01CB018A
:101ED000BC01CD010E94D91ADC01CB019E838D8308
:101EE0000FC08AEF90E09C838B838B819C8101974C
:101EF000F1F79C838B838D819E8101979E838D83D7
:101F00008D819E81009769F714C06F8178858985DE
:101F10009A850E94D91ADC01CB019E838D838D8125
:101F20009E819A83898389819A810197F1F79A83A7
:101F30008983CE010F9663EC67D8882309F087CF99
:101F40007CDE809112018D3409F47ECF80911201E4
:101F5000823509F479CF67960FB6F894DEBF0FBECD
:101F6000CDBFCF91DF910895DF93CF93CDB7DEB78B
:101F70006B970FB6F894DEBF0FBECDBF988F8F8BD7
:101F8000698F5B8F4A8F898DBDDD8F89988D909584
:101F900081959F4F988F8F8B84E48F878F89988D41
:101FA000892F990F990B888B8F89898B72C080E05C
:101FB00090E0A8E4B2E48B879C87AD87BE876B85F1
:101FC0007C858D859E8520E030E44CE155E40E94BF
:101FD000BB1BDC01CB018F839887A987BA876F81F0
:101FE000788589859A8520E030E040E85FE30E94AB
:101FF000681A88232CF481E090E09E838D833FC093
:102000006F81788589859A8520E03FEF4FE757E417
:102010000E94B71B18164CF56B857C858D859E85B7
:1020200020E030E040E251E40E94BB1BDC01CB0128
:10203000BC01CD010E94D91ADC01CB019E838D83A6
:102040000FC08AEF90E09C838B838B819C810197EA
:10205000F1F79C838B838D819E8101979E838D8375
:102060008D819E81009769F714C06F81788589857D
:102070009A850E94D91ADC01CB019E838D838D81C4
:102080009E819A83898389819A810197F1F79A8346
:102090008983CE010F9663EC0E940408882309F01F
:1020A00086CF8A8D9B8D89DE6B960FB6F894DEBF46
:1020B0000FBECDBFCF91DF910895DF93CF93CDB702
:1020C000DEB76C970FB6F894DEBF0FBECDBF988F0A
:1020D0008F8B698F4A8F3C8F2B8F898D13DD87E41F
:1020E0008F87EF89F88D80819181892F990F990BC6
:1020F000888BEF89F88D80819181898BEF89F88DAC
:1021000082819381892F990F990B8A8BEF89F88DA2
:10211000828193818B8B1C8A8A8D81958D8B72C075
:1021200080E090E0A8E4B2E48B879C87AD87BE870F
:102130006B857C858D859E8520E030E44CE155E4FF
:102140000E94BB1BDC01CB018F839887A987BA87CC
:102150006F81788589859A8520E030E040E85FE3EB
:102160000E94681A88232CF481E090E09E838D837E
:102170003FC06F81788589859A8520E03FEF4FE7E2
:1021800057E40E94B71B18164CF56B857C858D852E
:102190009E8520E030E040E251E40E94BB1BDC0160
:1021A000CB01BC01CD010E94D91ADC01CB019E8379
:1021B0008D830FC08AEF90E09C838B838B819C8101
:1021C0000197F1F79C838B838D819E8101979E837C
:1021D0008D838D819E81009769F714C06F8178850A
:1021E00089859A850E94D91ADC01CB019E838D8353
:1021F0008D819E819A83898389819A810197F1F7E4
:102200009A838983CE010F9663EC0E940408882389
:1022100009F086CF8B8D9C8DD0DD6C960FB6F8942F
:10222000DEBF0FBECDBFCF91DF910895DF93CF9377
:10223000CDB7DEB769970FB6F894DEBF0FBECDBF3E
:10224000998F888F89E4888BE88DF98D80819181C1
:10225000892F990F990B898BE88DF98D8081918158
:102260008A8BE88DF98D82819381892F990F990B43
:102270008B8BE88DF98D828193818C8BE88DF98D24
:102280008481958181958F878F85992787FD90958A
:10229000892F990F990B8D8B8F858E8BE88DF98DFA
:1022A0008081918190930D0180930C01E88DF98DCF
:1022B0008281938190930F0180930E01E88DF98DB7
:1022C00084819581909581959F4F90931101809382
:1022D000100172C080E090E0A8E4B2E48B879C8794
:1022E000AD87BE876B857C858D859E8520E030E43B
:1022F0004CE155E40E94BB1BDC01CB018F83988726
:10230000A987BA876F81788589859A8520E030E032
:1023100040E85FE30E94681A88232CF481E090E093
:102320009E838D833FC06F81788589859A8520E063
:102330003FEF4FE757E40E94B71B18164CF56B852B
:102340007C858D859E8520E030E040E251E40E944E
:10235000BB1BDC01CB01BC01CD010E94D91ADC0101
:10236000CB019E838D830FC08AEF90E09C838B838B
:102370008B819C810197F1F79C838B838D819E815A
:1023800001979E838D838D819E81009769F714C08C
:102390006F81788589859A850E94D91ADC01CB01E5
:1023A0009E838D838D819E819A83898389819A8181
:1023B0000197F1F79A838983CE01409663EC0E94DE
:1023C0000408882309F086CF69960FB6F894DEBF1B
:1023D0000FBECDBFCF91DF910895DF93CF93CDB7DF
:1023E000DEB76B970FB6F894DEBF0FBECDBF988FE8
:1023F0008F8B698F5B8F4A8F898D84DB8F89988D56
:10240000909581959F4F988F8F8B84E58F878F89CB
:10241000988D892F990F990B888B8F89898B72C022
:1024200080E090E0A8E4B2E48B879C87AD87BE870C
:102430006B857C858D859E8520E030E44CE155E4FC
:102440000E94BB1BDC01CB018F839887A987BA87C9
:102450006F81788589859A8520E030E040E85FE3E8
:102460000E94681A88232CF481E090E09E838D837B
:102470003FC06F81788589859A8520E03FEF4FE7DF
:1024800057E40E94B71B18164CF56B857C858D852B
:102490009E8520E030E040E251E40E94BB1BDC015D
:1024A000CB01BC01CD010E94D91ADC01CB019E8376
:1024B0008D830FC08AEF90E09C838B838B819C81FE
:1024C0000197F1F79C838B838D819E8101979E8379
:1024D0008D838D819E81009769F714C06F81788507
:1024E00089859A850E94D91ADC01CB019E838D8350
:1024F0008D819E819A83898389819A810197F1F7E1
:102500009A838983CE010F9663EC0E940408882386
:1025100009F086CF8A8D9B8D50DC6B960FB6F894B0
:10252000DEBF0FBECDBFCF91DF910895DF93CF9374
:1025300000D000D000D0CDB7DEB76A837B838C8318
:102540009D8383E031D689838981813031F483E5AD
:1025500090E06FDC81E08E8301C01E828E81269622
:102560000FB6F894DEBF0FBECDBFCF91DF910895B7
:102570000F931F93DF93CF93CDB7DEB7C156D040F3
:102580000FB6F894DEBF0FBECDBFFE01E85AFF4F75
:102590001082FE01E95AFF4F1082FE01EB5AFF4FF5
:1025A00082E08083FE01E75AFF4F84EB90E0918345
:1025B0008083FE01E75AFF4F88EA92E0938382838B
:1025C000FE01E75AFF4F8AE590E095838483CE01B0
:1025D000875A9F4F2BDE88E39FEF6EE140E050E08B
:1025E000C3DCFE01EF5AFF4F80E090E0AAE7B4E4BD
:1025F00080839183A283B3838E01035B1F4FFE010F
:10260000EF5AFF4F608171818281938120E030E435
:102610004CE155E40E94BB1BDC01CB01F801808337
:102620009183A283B383FE01E35BFF4F60817181DD
:102630008281938120E030E040E85FE349D788233E
:1026400044F4FE01E55BFF4F81E090E091838083DD
:1026500062C0FE01E35BFF4F6081718182819381E3
:1026600020E03FEF4FE757E40E94B71B18160CF02D
:1026700042C0FE01EF5AFF4F6081718182819381D8
:1026800020E030E040E251E40E94BB1BDC01CB01C2
:102690008E01055B1F4FBC01CD018BD7DC01CB0147
:1026A000F801918380831FC0FE01E75BFF4F8AEF33
:1026B00090E091838083FE01E75BFF4F80819181F1
:1026C0000197F1F7FE01E75BFF4F91838083DE0105
:1026D000A55BBF4FFE01E55BFF4F808191810197B4
:1026E00011969C938E93FE01E55BFF4F8081918153
:1026F0000097D1F626C08E01055B1F4FFE01E35BFC
:10270000FF4F608171818281938153D7DC01CB01BE
:10271000F80191838083DE01A95BBF4FFE01E55B79
:10272000FF4F808191818D939C93FE01E95BFF4F68
:10273000808191810197F1F7FE01E95BFF4F918361
:1027400080838CE49FEF6EE140E050E046DEFE01C6
:10275000ED5BFF4F80E090E0AAE7B4E480839183D3
:10276000A283B3838E01015C1F4FFE01ED5BFF4F1F
:10277000608171818281938120E030E44CE155E4F5
:10278000FAD7DC01CB01F80180839183A283B38364
:10279000FE01FF96608171818281938120E030E0AB
:1027A00040E85FE395D688232CF481E090E09EAF6B
:1027B0008DAF42C0FE01FF9660817181828193815D
:1027C00020E03FEF4FE757E4D2D7181654F5FE014B
:1027D000ED5BFF4F608171818281938120E030E069
:1027E00040E251E4C8D7DC01CB01BC01CD01E1D608
:1027F000DC01CB019EAF8DAF0FC08AEF90E09CAFA4
:102800008BAF8BAD9CAD0197F1F79CAF8BAF8DADCE
:102810009EAD01979EAF8DAF8DAD9EAD009769F7D0
:1028200015C0FE01FF966081718182819381C1D6BE
:10283000DC01CB019EAF8DAF8DAD9EAD9AAF89AF60
:1028400089AD9AAD0197F1F79AAF89AFFE01EB5AC6
:10285000FF4F8081282F332727FD3095A2963FAF69
:102860002EAFA297A2968EAD9FADA297009749F08A
:10287000A296EEADFFADA297E230F10509F407C1D3
:10288000E5CFFE01E85AFF4F8081882309F0FFC0A1
:1028900080E090E0A8E4B3E48DAB9EABAFABB8AF03
:1028A0006DA97EA98FA998AD20E030E44CE155E4F4
:1028B00062D7DC01CB0189AB9AABABABBCAB69A9EE
:1028C0007AA98BA99CA920E030E040E85FE300D61C
:1028D00088232CF481E090E098AB8FA73BC069A9D6
:1028E0007AA98BA99CA920E03FEF4FE757E43FD797
:1028F00018163CF56DA97EA98FA998AD20E030E0AF
:1029000040E251E438D7DC01CB01BC01CD0151D606
:10291000DC01CB0198AB8FA70FC08AEF90E09EA798
:102920008DA78DA59EA50197F1F79EA78DA78FA5D1
:1029300098A9019798AB8FA78FA598A9009769F7D9
:1029400080C069A97AA98BA99CA933D6DC01CB01E7
:1029500098AB8FA78FA598A99CA78BA78BA59CA5A3
:102960000197F1F79CA78BA76CC080E090E0A8ECE2
:10297000B2E48FA398A7A9A7BAA76FA178A589A544
:102980009AA520E030E44CE155E4F5D6DC01CB011A
:102990008BA39CA3ADA3BEA36BA17CA18DA19EA183
:1029A00020E030E040E85FE393D588232CF481E019
:1029B00090E09AA389A33BC06BA17CA18DA19EA1AD
:1029C00020E03FEF4FE757E4D2D618163CF56FA151
:1029D00078A589A59AA520E030E040E251E4CBD665
:1029E000DC01CB01BC01CD01E4D5DC01CB019AA314
:1029F00089A30FC08AEF90E098A38F8F8F8D98A145
:102A00000197F1F798A38F8F89A19AA101979AA3B3
:102A100089A389A19AA1009769F713C06BA17CA132
:102A20008DA19EA1C6D5DC01CB019AA389A389A162
:102A30009AA19E8F8D8F8D8D9E8D0197F1F79E8F20
:102A40008D8FFE01E85AFF4F8081482F50E0CA0168
:102A5000880F991F9C01220F331F220F331F820FF3
:102A6000931F840F951FFC01E35CFE4F0190F081E2
:102A7000E02D60E070E080E090E00995882309F0A7
:102A800074CFFE01EB5AFF4F82E08083DFCEFE0160
:102A9000E85AFF4FDE01A95ABF4F8C9180835FC176
:102AA000FE01E85AFF4F8081482F50E0CA01880F8D
:102AB000991F9C01220F331F220F331F820F931F78
:102AC000840F951F8C5C9E4FBC01FE01E85AFF4F9E
:102AD0008081482F50E0CA01880F991F9C01220F66
:102AE000331F220F331F820F931F840F951FFC018A
:102AF000E55CFE4FA081FE01E85AFF4F8081482F20
:102B000050E0CA01880F991F9C01220F331F220F2A
:102B1000331F820F931F840F951FFC01E45CFE4F4F
:102B20008081B82FFE01E85AFF4F8081482F50E086
:102B3000CA01880F991F9C01220F331F220F331FD8
:102B4000820F931F840F951FFC01E35CFE4F2081D1
:102B50003181CB016A2F4B2FB0DAFE01EA5AFF4FC9
:102B60008083FE01EA5AFF4F8081813009F46ECEE6
:102B7000FE01E85AFF4F8081882309F06DC080E094
:102B800090E8ABE3B5E4898F9A8FAB8FBC8F698DEA
:102B90007A8D8B8D9C8D20E030E44CE155E4EBD5B3
:102BA000DC01CB018D8B9E8BAF8BB88F6D897E89BD
:102BB0008F89988D20E030E040E85FE389D4882356
:102BC0002CF481E090E09C8B8B8B3BC06D897E89DF
:102BD0008F89988D20E03FEF4FE757E4C8D518164E
:102BE0003CF5698D7A8D8B8D9C8D20E030E040E244
:102BF00051E4C1D5DC01CB01BC01CD01DAD4DC014B
:102C0000CB019C8B8B8B0FC08AEF90E09A8B898BCA
:102C100089899A890197F1F79A8B898B8B899C898D
:102C200001979C8B8B8B8B899C89009769F787C058
:102C30006D897E898F89988DBCD4DC01CB019C8BFA
:102C40008B8B8B899C89988B8F878F85988901972F
:102C5000F1F7988B8F8773C0FE01E85AFF4F808190
:102C6000813009F06CC080E090E0AAEFB4E48B877B
:102C70009C87AD87BE876B857C858D859E8520E092
:102C800030E44CE155E477D5DC01CB018F839887A4
:102C9000A987BA876F81788589859A8520E030E099
:102CA00040E85FE315D488232CF481E090E09E8314
:102CB0008D833BC06F81788589859A8520E03FEFC1
:102CC0004FE757E454D518163CF56B857C858D8508
:102CD0009E8520E030E040E251E44DD5DC01CB019F
:102CE000BC01CD0166D4DC01CB019E838D830FC076
:102CF0008AEF90E09C838B838B819C810197F1F715
:102D00009C838B838D819E8101979E838D838D8192
:102D10009E81009769F713C06F81788589859A85B0
:102D200048D4DC01CB019E838D838D819E819A8363
:102D3000898389819A810197F1F79A838983FE01BA
:102D4000E85AFF4F8081823009F4FFCFDE01A85A94
:102D5000BF4FFE01E85AFF4F80818F5F8C93FE01C9
:102D6000E85AFF4F8081833008F49ACE6FCDDF930D
:102D7000CF9300D0CDB7DEB79A83898389819A81BA
:102D800090938C0180938B010F900F90CF91DF91E6
:102D900008950F931F93DF93CF9300D0CDB7DEB785
:102DA0009A838983E0E8F0E01082E1E8F0E089E0CE
:102DB000808308E810E089819A81CC01A0E0B0E02E
:102DC000BC01CD0122D49B01AC0160E876E988E129
:102DD0009BE482D3DC01CB01BC01CD0120E030E0DB
:102DE00040E05FE311D3DC01CB01BC01CD01E1D3B5
:102DF000DC01CB01F80191838083EFE6F0E082E013
:102E00008083AFE5B0E0EFE5F0E0808180688C93EF
:102E10000F900F90CF91DF911F910F9108951F9206
:102E20000F920FB60F9200905B000F9211242F9318
:102E30003F934F935F936F937F938F939F93AF9342
:102E4000BF93EF93FF93DF93CF93CDB7DEB780911E
:102E50008B0190918C01009729F0E0918B01F0910A
:102E60008C01099580918D0190918E01A0918F0127
:102E7000B091900180392FE5920721E0A20720E070
:102E8000B20710F00E948D0380918D0190918E0108
:102E9000A0918F01B09190010196A11DB11D809369
:102EA0008D0190938E01A0938F01B0939001CF91EB
:102EB000DF91FF91EF91BF91AF919F918F917F91A2
:102EC0006F915F914F913F912F910F9000925B0016
:102ED0000F900FBE0F901F901895DF93CF930F9216
:102EE000CDB7DEB789E20E94F309813019F481E0A1
:102EF000898301C0198289810F90CF91DF91089554
:102F0000DF93CF93CDB7DEB710928D0110928E0173
:102F100010928F0110929001CF91DF910895DF936D
:102F2000CF93CDB7DEB781E080939101CF91DF9150
:102F30000895DF93CF93CDB7DEB780918D01909147
:102F40008E01A0918F01B0919001BC01CD01CF9174
:102F5000DF910895DF93CF93CDB7DEB76C970FB6AF
:102F6000F894DEBF0FBECDBF83E79AE000DF80E0BC
:102F700090E0A8ECB2E4898F9A8FAB8FBC8F698DFB
:102F80007A8D8B8D9C8D20E030E44CE155E4F3D3B9
:102F9000DC01CB018D8B9E8BAF8BB88F6D897E89C9
:102FA0008F89988D20E030E040E85FE391D288235C
:102FB0002CF481E090E09C8B8B8B3BC06D897E89EB
:102FC0008F89988D20E03FEF4FE757E4D0D3181654
:102FD0003CF5698D7A8D8B8D9C8D20E030E040E250
:102FE00051E4C9D3DC01CB01BC01CD01E2D2DC014B
:102FF000CB019C8B8B8B0FC08AEF90E09A8B898BD7
:1030000089899A890197F1F79A8B898B8B899C8999
:1030100001979C8B8B8B8B899C89009769F713C0D8
:103020006D897E898F89988DC4D2DC01CB019C8B00
:103030008B8B8B899C89988B8F878F85988901973B
:10304000F1F7988B8F8788E260E040E00E94850866
:1030500089E260E040E00E94850888E060E040E0AE
:103060000E9485088AE060E040E00E9485088CE0CC
:1030700060E040E00E9485088EE060E040E00E9451
:103080008508E3E3F0E08FEF8083E4E3F0E0108273
:1030900082E390E00E94170188EE93E07ADE81E0FF
:1030A0000E9440070E94160488E20E94F3098823C8
:1030B000D9F380E090E0A0E2B1E48B879C87AD87F4
:1030C000BE876B857C858D859E8520E030E44CE154
:1030D00055E451D3DC01CB018F839887A987BA8748
:1030E0006F81788589859A8520E030E040E85FE34C
:1030F000EFD188232CF481E090E09E838D833BC048
:103100006F81788589859A8520E03FEF4FE757E406
:103110002ED318163CF56B857C858D859E8520E029
:1031200030E040E251E427D3DC01CB01BC01CD010A
:1031300040D2DC01CB019E838D830FC08AEF90E0EB
:103140009C838B838B819C810197F1F79C838B837C
:103150008D819E8101979E838D838D819E810097B5
:1031600069F713C06F81788589859A8522D2DC0141
:10317000CB019E838D838D819E819A8389838981F2
:103180009A810197F1F79A838983E4E3F0E08FEF66
:103190008083B6DEC4DE6C960FB6F894DEBF0FBE39
:1031A000CDBFCF91DF910895DF93CF9300D0CDB7FE
:1031B000DEB789838981833069F488E00E94F3094E
:1031C000882329F08AE00E94F309882319F481E01A
:1031D0008A8301C01A828A810F900F90CF91DF916C
:1031E00008951F920F920FB60F9200905B000F92FE
:1031F00011248F939F93AF93BF93EF93FF93DF932C
:10320000CF93CDB7DEB7809192018823D9F080911A
:103210009201815080939201A6ECB0E080919301DD
:10322000882F90E0FC01E656FE4F80818C938091C0
:1032300093018F5F8093930180919301803411F407
:1032400010929301CF91DF91FF91EF91BF91AF91D8
:103250009F918F910F9000925B000F900FBE0F9087
:103260001F9018951F920F920FB60F9200905B005F
:103270000F9211242F938F939F93EF93FF93DF93DC
:10328000CF930F92CDB7DEB7E0ECF0E08081898379
:103290008981882F90E08C7190700097D9F480918B
:1032A0009401882F90E0E6ECF0E02081FC01E652EA
:1032B000FE4F2083809194018F5F809394018091D1
:1032C0009401803411F410929401809195018F5FE4
:1032D000809395010F90CF91DF91FF91EF919F9196
:1032E0008F912F910F9000925B000F900FBE0F9067
:1032F0001F9018951F920F920FB60F9200905B00CF
:103300000F9211248F939F93AF93BF93EF93FF93EB
:10331000DF93CF93CDB7DEB7809196018823D9F0A4
:1033200080919601815080939601AEECB0E080913F
:103330009701882F90E0FC01E65EFD4F80818C9321
:10334000809197018F5F80939701809197018034DE
:1033500011F410929701CF91DF91FF91EF91BF91FE
:10336000AF919F918F910F9000925B000F900FBED5
:103370000F901F9018951F920F920FB60F9200900A
:103380005B000F9211242F938F939F93EF93FF93E2
:10339000DF93CF930F92CDB7DEB7E8ECF0E08081FA
:1033A00089838981882F90E08C7190700097D9F47F
:1033B00080919801882F90E0EEECF0E02081FC01F4
:1033C000E65AFD4F2083809198018F5F809398018A
:1033D00080919801803411F41092980180919901A4
:1033E0008F5F809399010F90CF91DF91FF91EF91C3
:1033F0009F918F912F910F9000925B000F900FBEC5
:103400000F901F9018955058BB27AA270ED075C152
:1034100066D130F06BD120F031F49F3F11F41EF4EF
:103420005BC10EF4E095E7FB51C1E92F77D180F342
:10343000BA17620773078407950718F071F49EF5B1
:103440008FC10EF4E0950B2EBA2FA02D0B01B90100
:1034500090010C01CA01A0011124FF27591B99F00A
:10346000593F50F4503E68F11A16F040A22F232F16
:10347000342F4427585FF3CF469537952795A79566
:10348000F0405395C9F77EF41F16BA0B620B730B0D
:10349000840BBAF09150A1F0FF0FBB1F661F771F7E
:1034A000881FC2F70EC0BA0F621F731F841F48F433
:1034B000879577956795B795F7959E3F08F0B3CFB9
:1034C0009395880F08F09927EE0F979587950895A3
:1034D000D9D008F481E008950CD00FC107D140F095
:1034E000FED030F021F45F3F19F0F0C0511139C126
:1034F000F3C014D198F39923C9F35523B1F3951B65
:10350000550BBB27AA2762177307840738F09F5F04
:103510005F4F220F331F441FAA1FA9F333D00E2E73
:103520003AF0E0E830D091505040E695001CCAF7E0
:1035300029D0FE2F27D0660F771F881FBB1F2617A5
:1035400037074807AB07B0E809F0BB0B802DBF0178
:10355000FF2793585F4F2AF09E3F510568F0B6C091
:1035600000C15F3FECF3983EDCF386957795679555
:10357000B795F7959F5FC9F7880F911D9695879529
:1035800097F90895E1E0660F771F881FBB1F621748
:1035900073078407BA0720F0621B730B840BBA0B06
:1035A000EE1F88F7E095089504D06894B111D9C052
:1035B0000895BCD088F09F5790F0B92F9927B75144
:1035C000A0F0D1F0660F771F881F991F1AF0BA95E7
:1035D000C9F712C0B13081F0C3D0B1E00895C0C0C6
:1035E000672F782F8827B85F39F0B93FCCF38695DD
:1035F00077956795B395D9F73EF49095809570953A
:1036000061957F4F8F4F9F4F0895E89409C097FBB6
:103610003EF490958095709561957F4F8F4F9F4FA9
:103620009923A9F0F92F96E9BB279395F6958795ED
:1036300077956795B795F111F8CFFAF4BB0F11F4B0
:1036400060FF1BC06F5F7F4F8F4F9F4F16C0882357
:1036500011F096E911C0772321F09EE8872F762F8D
:1036600005C0662371F096E8862F70E060E02AF0CE
:103670009A95660F771F881FDAF7880F96958795BA
:1036800097F90895990F0008550FAA0BE0E8FEEF8F
:1036900016161706E807F907C0F012161306E40716
:1036A000F50798F0621B730B840B950B39F40A260F
:1036B00061F0232B242B252B21F408950A2609F4ED
:1036C000A140A6958FEF811D811D089597F99F67F1
:1036D00080E870E060E008959FEF80EC089500249A
:1036E0000A941616170618060906089500240A9467
:1036F00012161306140605060895092E0394000CED
:1037000011F4882352F0BB0F40F4BF2B11F460FF7B
:1037100004C06F5F7F4F8F4F9F4F089557FD9058A4
:10372000440F551F59F05F3F71F04795880F97FB85
:10373000991F61F09F3F79F087950895121613063F
:103740001406551FF2CF4695F1DF08C0161617066E
:103750001806991FF1CF86957105610508940895A3
:10376000E894BB2766277727CB0197F908958ADF6E
:1037700008F48FEF08950BD0C0CFB1DF28F0B6DF8B
:1037800018F0952309F0A2CFA7CF1124EACFC6DF06
:10379000A0F3959FD1F3950F50E0551F629FF00164
:1037A000729FBB27F00DB11D639FAA27F00DB11DBD
:1037B000AA1F649F6627B00DA11D661F829F222746
:1037C000B00DA11D621F739FB00DA11D621F839FCD
:1037D000A00D611D221F749F3327A00D611D231FA3
:1037E000849F600D211D822F762F6A2F11249F57F1
:1037F00050408AF0E1F088234AF0EE0FFF1FBB1F14
:10380000661F771F881F91505040A9F79E3F5105B2
:1038100070F05CCFA6CF5F3FECF3983EDCF386956B
:1038200077956795B795F795E7959F5FC1F7FE2B5D
:10383000880F911D9695879597F908950F931F937B
:10384000CF93DF93689F8001699F100D789F100DC3
:103850001124C8010DD0EC01009721F060E070E068
:10386000A8010BD1CE01DF91CF911F910F91089547
:10387000CF93DF93BC018230910510F462E070E0D9
:10388000A0919C02B0919D02ED01E0E0F0E040E0EB
:1038900050E021C0888199818617970769F48A8151
:1038A0009B81309719F09383828304C090939D028B
:1038B00080939C02FE0134C06817790738F44115E3
:1038C000510519F08417950708F4AC01FE018A81AF
:1038D0009B819C01E9012097E9F641155105A9F169
:1038E000CA01861B970B049708F4BA01E0E0F0E0E8
:1038F0002AC08D919C91119784179507F9F464174C
:10390000750781F412968D919C911397309719F059
:103910009383828304C090939D0280939C02FD0157
:1039200032964FC0CA01861B970BFD01E80FF91FA5
:103930006193719302978D939C9343C0FD018281A3
:1039400093819C01D9011097A1F680919A029091E0
:103950009B02892B41F48091020190910301909385
:103960009B0280939A0240910401509105014115F8
:10397000510541F44DB75EB780910001909101016E
:10398000481B590B20919A0230919B02241735074E
:10399000B0F4CA01821B930B8617970780F0AB0126
:1039A0004E5F5F4F8417950750F0420F531F50939F
:1039B0009B0240939A02F9016193719302C0E0E087
:1039C000F0E0CF01DF91CF910895CF93DF9300977F
:1039D00009F450C0EC0122971B821A82A0919C022C
:1039E000B0919D02109709F140E050E0AC17BD077F
:1039F00008F1BB83AA83FE0121913191E20FF31FED
:103A0000AE17BF0779F48D919C911197280F391F3C
:103A10002E5F3F4F3983288312968D919C91139787
:103A20009B838A834115510571F4D0939D02C09305
:103A30009C0220C012968D919C911397AD01009726
:103A400011F0DC01D3CFFA01D383C28321913191EC
:103A5000E20FF31FCE17DF0769F488819981280FE1
:103A6000391F2E5F3F4FFA01318320838A819B816A
:103A700093838283DF91CF910895DC0101C06D9320
:0C3A800041505040E0F70895F894FFCF4B
:103A8C0020009E0200000100080108010000000057
:103A9C000000491801D6060000001E01C90A1801D1
:103AAC007607000000140100001801120700000046
:103ABC0014FF0000180118010000001E01961218D6
:103ACC00018C00000000140100001801BE00000071
:063ADC00000AFF000000DB
:00000001FF
