:1000000049C0000065C0000063C0000061C000007E
:100010005FC000005DC000005BC0000059C0000070
:1000200057C0000055C0000053C0000051C0000080
:100030000C94F20A4DC000004BC0000049C0000003
:1000400047C0000045C00000C1C1000041C0000021
:100050003FC000000C94970C3BC000000C94550C62
:1000600037C0000035C0000033C0000031C00000C0
:100070002FC000002DC000002BC0000029C00000D0
:100080000C94250D25C000000C94E30C21C0000049
:100090001FC0000011241FBECFEFD0E1DEBFCDBFD7
:1000A00011E0A0E0B1E0EEEAF1E200E00BBF02C037
:1000B00007900D92AC31B107D9F722E0ACE1B1E085
:1000C00001C01D92A336B207E1F703D00C94D510FE
:1000D00097CFCF93DF93CDB7DEB76E970FB6F89477
:1000E000DEBF0FBECDBF1A8219820E94410B80E095
:1000F00090E0AAE7B4E48B839C83AD83BE8320E0C9
:1001000030E44CE155E46B817C818D819E810E94BD
:10011000240FDC01CB018F839887A987BA8720E061
:1001200030E040E85FE36F81788589859A850E9499
:10013000D60D88232CF481E090E09C878B873FC00C
:1001400020E03FEF4FE757E46F81788589859A85F6
:100150000E94200F18164CF520E030E040E251E4F8
:100160006B817C818D819E810E94240FDC01CB01FB
:10017000BC01CD010E94420EDC01CB019C878B8724
:100180000FC08AEF90E09E878D878D859E850197B1
:10019000F1F79E878D878B859C8501979C878B8740
:1001A0008B859C85892B69F714C06F81788589853B
:1001B0009A850E94420EDC01CB019C878B878B8540
:1001C0009C85988B8F878F8598890197F1F7988BFD
:1001D0008F8783C041E060E08FE16DD400D68FE16E
:1001E00081D5813009F077C081E090E09A838983DE
:1001F00080E090E0AAE7B4E4898B9A8BAB8BBC8B50
:1002000020E030E44CE155E469897A898B899C8946
:100210000E94240FDC01CB018D8B9E8BAF8BB88F9E
:1002200020E030E040E85FE36D897E898F89988D1A
:100230000E94D60D88232CF481E090E09A8F898F5C
:100240003FC020E03FEF4FE757E46D897E898F89FB
:10025000988D0E94200F18164CF520E030E040E207
:1002600051E469897A898B899C890E94240FDC0179
:10027000CB01BC01CD010E94420EDC01CB019A8F63
:10028000898F0FC08AEF90E09C8F8B8F8B8D9C8D18
:100290000197F1F79C8F8B8F898D9A8D01979A8F9B
:1002A000898F898D9A8D892B69F714C06D897E8914
:1002B0008F89988D0E94420EDC01CB019A8F898F25
:1002C000898D9A8D9E8F8D8F8D8D9E8D0197F1F7E3
:1002D0009E8F8D8F02C01A82198289819A81892B03
:1002E00009F478CF89819A81019741F484E390E001
:1002F0002FEFFC0120830E94470AF8CFF8CE0F931E
:100300001F93CF93DF9300D0CDB7DEB79A83898355
:100310008DE290E02DE230E0F90120812863FC01BC
:10032000208384E990E0FC011182108288E990E04A
:10033000FC01118210828AE990E0FC011182108296
:100340008CE990E0FC011182108280E990E02EEFB0
:10035000FC01208381E990E02AE1FC01208306E989
:1003600010E089819A81880F991F880F991F880F43
:10037000991FCC01A0E0B0E0BC01CD010E946E0E3F
:10038000DC01CB019C01AD0160E876E988E19BE4EA
:100390000E94DA0DDC01CB0120E030E040E05FE3B9
:1003A000BC01CD010E94710DDC01CB01BC01CD016E
:1003B0000E94420EDC01CB01F801918380830F90F3
:1003C0000F90DF91CF911F910F9108951F920F927F
:1003D00000905F000F92112400905B000F922F930A
:1003E0003F934F935F938F939F93EF93FF93CF939D
:1003F000DF9300D000D0CDB7DEB78DEE90E0FC01EA
:1004000080818B831982A4C08DEE90E02981229592
:10041000207FFC0120838EEE90E0FC01808182959C
:1004200086958770882F90E081709927892B09F431
:1004300070C08FEE90E020E8FC0120838EEE90E00B
:100440002EEE30E0F90120812F7DFC01208382EF28
:1004500090E0FC018081829586958770282F83EF3C
:1004600090E0FC018081882F90E0880F991F880F11
:10047000991F880F991F822B8C831A8226C08C812A
:10048000882F90E081509048880F991F845E9E4F7E
:10049000FC01208131818C81882F90E00197805D63
:1004A0009E4FFC018081482F50E08A81882F90E088
:1004B000840F951F820F931F2AEF30E0F9012081EE
:1004C000FC0120838A818F5F8A838A818830B8F219
:1004D0008C81882F90E00197805D9E4FFC012081E8
:1004E0002F5FFC012083253041F48C81882F90E020
:1004F0000197805D9E4FFC0110828C81882F90E0D7
:1005000001978C5B9E4FFC0120812F5FFC012083B3
:1005100023C08EEE90E0FC018081829586958695C1
:100520008370882F90E081709927892B71F08FEE6E
:1005300090E0FC0110828EEE90E02EEE30E0F901AA
:1005400020812F7BFC01208307C089818F5F8983F5
:1005500089818F3008F458CF8DEE90E02B81FC011B
:1005600020838AED90E02AED30E0F9012081FC0142
:1005700020830F900F900F900F90DF91CF91FF91FC
:10058000EF919F918F915F914F913F912F910F909C
:1005900000925B000F9000925F000F901F901895E3
:1005A000CF93DF9300D0CDB7DEB788ED90E021E0A8
:1005B000FC01208319823EC08DEE90E029812295B6
:1005C000207FFC0120838EEE90E0FC0110828FEEF4
:1005D00090E0FC01108283EF90E0FC01108282EF3A
:1005E00090E0FC01108281EF90E0FC01108280EF2E
:1005F00090E0FC01108287EF90E0FC01108286EF12
:1006000090E0FC01108285EF90E0FC01108284EF05
:1006100090E0FC0110821A8207C08AEF90E0FC0192
:1006200010828A818F5F8A838A818830B0F38981C2
:100630008F5F898389818F3008F4BECF88ED90E089
:1006400022E0FC01208382EE90E021E0FC01208387
:1006500083EE90E028E0FC01208384EE90E02EE51C
:10066000FC01208385EE90E0FC0110828BED90E090
:1006700020EBFC0120838FED90E02FE7FC0120832D
:100680008EED90E02FEFFC01208378940F900F9077
:10069000DF91CF910895CF93DF9300D000D0CDB7F5
:1006A000DEB79C838B838DEE90E0FC0180818A8392
:1006B000000089ED90E0FC01808182958F70882F89
:1006C00090E081709927892BA1F789ED90E0FC01DA
:1006D0008081869586958695882F90E081709927F0
:1006E000892B39F7198249C08DEE90E02981229536
:1006F000207FFC0120838FEE90E0FC0180818295B9
:10070000869586958370882321F089818F5F898300
:1007100034C08FEE90E02FE0FC01208383EF90E067
:100720002B813C813327369527953695279536952D
:100730002795FC01208382EF90E02B812295220FE8
:10074000207EFC01208386EF90E020EEFC012083D8
:1007500087EF90E02FEFFC0120838FEE90E02FEEEB
:1007600030E0F90120812068FC0120838DEE90E0CB
:100770002A81FC01208381E00AC089818F3008F43E
:10078000B3CF8DEE90E02A81FC01208380E00F90B2
:100790000F900F900F90DF91CF9108950F931F93BB
:1007A000CF93DF9300D0CDB7DEB78A83F9DE19820D
:1007B0002FC08981882F90E001966DDF8981882F75
:1007C00090E0880F991F8C01045E1E4F61E070E07D
:1007D00085E090E00E94870FF801918380838981F2
:1007E000882F90E02981222F30E04981442F50E06A
:1007F00060E04C5B5E4FFA016083265C3E4FF9017E
:100800006083805D9E4FFC01608389818F5F898357
:1008100099818A81981768F20F900F90DF91CF919C
:100820001F910F910895CF93DF9300D000D0CDB7E3
:10083000DEB79B838A836C8300008C81882F90E0D5
:1008400001978C5B9E4FFC0180818823B1F3198254
:100850002CC08981882F90E02A813B81820F931FD1
:100860002C81222F30E021503048220F331F245E8C
:100870003E4FF901408151812C81222F30E02150DF
:100880003109265C3E4FF9012081622F70E02981F9
:10089000222F30E0260F371F240F351FF90120814A
:1008A000FC01208389818F5F89838981883088F268
:1008B0008C81882F90E00197865C9E4FFC012081FF
:1008C0002F5FFC012083253041F48C81882F90E03C
:1008D0000197865C9E4FFC0110828C81882F90E0EE
:1008E00001979C012C5B3E4FF901208121508C5BCC
:1008F0009E4FFC01208380E00F900F900F900F908F
:10090000DF91CF910895CF93DF9300D000D000D036
:10091000CDB7DEB79D838C836E83000089ED90E0B8
:10092000FC01808182958F70882F90E081709927DB
:10093000892BA1F789ED90E0FC0180818695869551
:100940008695882F90E081709927892B39F78DEE55
:1009500090E0FC0180818B831A8215C08DEE90E0BF
:100960002A812295207FFC0120838FEE90E0FC01FC
:1009700080818295869586958370882309F406C0C8
:100980008A818F5F8A838A818F3040F38A818F309A
:1009900011F48FEF39C082EF90E02E812295220F63
:1009A000207EFC01208383EF90E02E812695269502
:1009B0002695FC0120838FEE90E028E0FC01208347
:1009C000198210C08AEF90E02981222F30E04C81FB
:1009D0005D81240F351FF9012081FC01208389816D
:1009E0008F5F89838981883068F38FEE90E02FEEE6
:1009F00030E0F90120812064FC0120838DEE90E03D
:100A00002B81FC01208380E026960FB6F894DEBF90
:100A10000FBECDBFDF91CF910895CF93DF9300D06C
:100A200000D000D0CDB7DEB79A8389837C836B83F7
:100A30005E834D838D819E8129813A81FC013183C2
:100A4000208389819A812D813E81FC013383228319
:100A500089819A812B813C81FC01318320838B81A8
:100A60009C8129813A81FC013383228326960FB62B
:100A7000F894DEBF0FBECDBFDF91CF910895CF9325
:100A8000DF9300D000D0CDB7DEB79A8389837C8313
:100A90006B838B819C81FC01428153812B813C8142
:100AA00089819A81B901B9DF0F900F900F900F9053
:100AB000DF91CF910895CF93DF93CDB7DEB72B971A
:100AC0000FB6F894DEBF0FBECDBF89876A874B870C
:100AD00080910801909109019C838B838B819C817B
:100AE00006979A83898315C089819A81FC01908138
:100AF0008985981711F481E0BBC089819A81FC0136
:100B0000808591859E838D838D819E8106979A83B2
:100B1000898389819A8106968650914029F7898533
:100B20008695869586958F5F8F8389858770888760
:100B30008A85813009F055C08F81882F90E09C0113
:100B400021503109C901880F991F820F931F819687
:100B5000AC018F81882F90E09C0121503109C9019F
:100B6000880F991F820F931F8196FC018081682F47
:100B70008885282F30E081E090E002C0880F991F1F
:100B80002A95E2F7862BFA0180838F81882F90E0E7
:100B90009C0121503109C901880F991F820F931FB1
:100BA0008296AC018F81882F90E09C012150310901
:100BB000C901880F991F820F931F8296FC018081C3
:100BC000682F8885282F30E081E090E002C0880FF0
:100BD000991F2A95E2F780958623FA01808380E0A9
:100BE00047C08F81882F90E09C0121503109C901B5
:100BF000880F991F820F931F8196AC018F81882FD8
:100C000090E09C0121503109C901880F991F820F82
:100C1000931F8196FC018081682F8885282F30E002
:100C200081E090E002C0880F991F2A95E2F7809535
:100C30008623FA0180838AE090E00E94A10F9A83C4
:100C4000898389819A81892B11F481E011C089817E
:100C50009A812985FC01208389819A812B85FC0159
:100C6000218389819A81069666E071E008DF80E041
:100C70002B960FB6F894DEBF0FBECDBFDF91CF919C
:100C80000895CF93DF9300D01F92CDB7DEB78B834B
:100C90008B818695869586958F5F89838B818770FA
:100CA0008B838981882F90E09C0121503109C901F3
:100CB000880F991F820F931F8096FC0180818A8381
:100CC0008A81882F90E02B81222F30E002C09595F9
:100CD00087952A95E2F781700F900F900F90DF9122
:100CE000CF910895CF93DF93CDB7DEB729970FB695
:100CF000F894DEBF0FBECDBF898780910801909127
:100D000009019D838C838C819D8106979A838983B9
:100D100055C089819A81FC0190818985981709F0D5
:100D200041C01B821FC08B81882F90E029813A81AE
:100D3000820F931F0296FC0140818B81882F90E0E7
:100D4000019629813A81820F931F0296FC018081CE
:100D5000481729F089819A81FC01858137C08B81F0
:100D60008F5F8B838B818230F0F289819A81FC01C5
:100D7000918181E08927882329F089819A81FC016A
:100D8000828108C089819A81FC01928181E0992346
:100D900009F080E0888789819A812885FC01258374
:100DA000888514C089819A81FC01808591859F8303
:100DB0008E838E819F8106979A83898389819A8108
:100DC00006968650914009F0A4CF81E029960FB68F
:100DD000F894DEBF0FBECDBFDF91CF9108950F9382
:100DE0001F93CF93DF9300D000D000D0CDB7DEB7F4
:100DF00080910801909109019C838B838B819C8158
:100E000006979A8389831DC000914E0110914F016E
:100E100089819A81FC01808134DF282F89819A8120
:100E2000800F911F0296FC01208389819A81FC0129
:100E3000808591859E838D838D819E8106979A837F
:100E4000898389819A81069686509140E9F680913E
:100E50004E0190914F01019690934F0180934E0166
:100E6000039721F410924F0110924E0126960FB66F
:100E7000F894DEBF0FBECDBFDF91CF911F910F91D0
:100E80000895CF93DF93CDB7DEB767970FB6F89489
:100E9000DEBF0FBECDBF8F8B809150019F89981709
:100EA00009F47BC086E58F878F89888B6CC080E0D2
:100EB00090E0A8E4B2E489839A83AB83BC8320E00A
:100EC00030E44CE155E469817A818B819C81BCD707
:100ED000DC01CB018D839E83AF83B88720E030E0B7
:100EE00040E85FE36D817E818F8198855FD688239E
:100EF0002CF481E090E09A8789873BC020E03FEFA7
:100F00004FE757E46D817E818F81988599D71816B8
:100F10003CF520E030E040E251E469817A818B8148
:100F20009C8192D7DC01CB01BC01CD01ABD6DC01A9
:100F3000CB019A8789870FC08AEF90E09C878B87C7
:100F40008B859C850197F1F79C878B8789859A858E
:100F500001979A87898789859A85892B69F713C0B4
:100F60006D817E818F8198858DD6DC01CB019A873A
:100F7000898789859A859E878D878D859E8501972E
:100F8000F1F79E878D87CE010F9663ECBCDC88233A
:100F900009F08DCF8F898093500167960FB6F89432
:100FA000DEBF0FBECDBFDF91CF910895CF93DF930A
:100FB000CDB7DEB766970FB6F894DEBF0FBECDBFD4
:100FC00080E58F876CC080E090E0A8E4B2E489837C
:100FD0009A83AB83BC8320E030E44CE155E4698123
:100FE0007A818B819C8130D7DC01CB018D839E83FC
:100FF000AF83B88720E030E040E85FE36D817E8119
:101000008F819885D3D588232CF481E090E09A874E
:1010100089873BC020E03FEF4FE757E46D817E8139
:101020008F8198850DD718163CF520E030E040E21E
:1010300051E469817A818B819C8106D7DC01CB01E7
:10104000BC01CD011FD6DC01CB019A8789870FC077
:101050008AEF90E09C878B878B859C850197F1F7C1
:101060009C878B8789859A8501979A878987898547
:101070009A85892B69F713C06D817E818F81988550
:1010800001D6DC01CB019A87898789859A859E875D
:101090008D878D859E850197F1F79E878D87CE017F
:1010A0000F9663EC30DC882309F08DCFCE010F96CC
:1010B00061E0B9DB8F85809310018889882F90E0EB
:1010C000382F22278989882F90E0822B932B9093A9
:1010D0000B0180930A018A89882F90E0382F2227FC
:1010E0008B89882F90E0822B932B90930D01809316
:1010F0000C018C89882F90E0382F22278D89882F2A
:1011000090E0822B932B90930F0180930E016696B3
:101110000FB6F894DEBF0FBECDBFDF91CF9108951B
:10112000CF93DF9300D000D000D0CDB7DEB79E8341
:101130008D83AAD3092E000CAA0BBB0B89839A833B
:10114000AB83BC8333DF8D819E81892B71F08981D4
:101150009A81AB81BC812D813E81BC01CD01F90119
:101160000995813011F481E009C0809110018D341E
:1011700049F380911001823529F380E026960FB65D
:10118000F894DEBF0FBECDBFDF91CF910895CF930E
:10119000DF93CDB7DEB76C970FB6F894DEBF0FBE06
:1011A000CDBF988F8F8B698F4A8F3C8F2B8F898D06
:1011B00068DE87E48F878F89988DFC01808191811B
:1011C000892F990F990B888B8F89988DFC018081CD
:1011D0009181898B8F89988DFC0182819381892FE0
:1011E000990F990B8A8B8F89988DFC01828193814D
:1011F0008B8B1C8A8A8D8D8B6CC080E090E0A8E47C
:10120000B2E489839A83AB83BC8320E030E44CE171
:1012100055E469817A818B819C8116D6DC01CB01F2
:101220008D839E83AF83B88720E030E040E85FE3A2
:101230006D817E818F819885B9D488232CF481E0DB
:1012400090E09A8789873BC020E03FEF4FE757E463
:101250006D817E818F819885F3D518163CF520E04D
:1012600030E040E251E469817A818B819C81ECD548
:10127000DC01CB01BC01CD0105D5DC01CB019A8796
:1012800089870FC08AEF90E09C878B878B859C8530
:101290000197F1F79C878B8789859A8501979A87B3
:1012A000898789859A85892B69F713C06D817E812D
:1012B0008F819885E7D4DC01CB019A87898789855E
:1012C0009A859E878D878D859E850197F1F79E87EC
:1012D0008D87CE010F9663EC16DB882309F08DCF46
:1012E0008B8D9C8D1DDF6C960FB6F894DEBF0FBE04
:1012F000CDBFDF91CF910895CF93DF93CDB7DEB708
:1013000068970FB6F894DEBF0FBECDBF988F8F8B56
:1013100089E48F878F89988DFC0180819181892F45
:10132000990F990B888B8F89988DFC018081918111
:10133000898B8F89988DFC0182819381892F990FE8
:10134000990B8A8B8F89988DFC01828193818B8B7D
:101350001C8A8F89988DFC01848195818D8B8F8962
:10136000988DFC018081918190930B0180930A01FB
:101370008F89988DFC018281938190930D018093D8
:101380000C018F89988DFC018481958190930F01C8
:1013900080930E016CC080E090E0A8E4B2E4898301
:1013A0009A83AB83BC8320E030E44CE155E469814F
:1013B0007A818B819C8148D5DC01CB018D839E8312
:1013C000AF83B88720E030E040E85FE36D817E8145
:1013D0008F819885EBD388232CF481E090E09A8765
:1013E00089873BC020E03FEF4FE757E46D817E8166
:1013F0008F81988525D518163CF520E030E040E235
:1014000051E469817A818B819C811ED5DC01CB01FD
:10141000BC01CD0137D4DC01CB019A8789870FC08D
:101420008AEF90E09C878B878B859C850197F1F7ED
:101430009C878B8789859A8501979A878987898573
:101440009A85892B69F713C06D817E818F8198857C
:1014500019D4DC01CB019A87898789859A859E8773
:101460008D878D859E850197F1F79E878D87CE01AB
:101470000F9663EC48DA882309F08DCF68960FB693
:10148000F894DEBF0FBECDBFDF91CF910895CF930B
:10149000DF93CDB7DEB72B970FB6F894DEBF0FBE44
:1014A000CDBF19821A8281E08B831E821D8218862D
:1014B0001F821A861986CE0105961EDF8B81882F22
:1014C00090E0019709F040C08A8189833AC040E0EA
:1014D00050E08981282F30E06BE0629FC001639F5C
:1014E000900D1124875E9E4FDC01EC918981282F9D
:1014F00030E06BE0629FC001639F900D1124885E15
:101500009E4FDC017C918981282F30E06BE0629F47
:10151000C001639F900D11248F5E9E4F9A014E2F44
:10152000672F35DE8C838C81813009F40DC0898171
:10153000882321F08981813009F4FFCF89818F5F71
:1015400089838981882319F2B9CF0F931F93CF9391
:10155000DF9300D0CDB7DEB79A83898380E890E02F
:10156000FC01108281E890E029E0FC01208308E87A
:1015700010E089819A81CC01A0E0B0E0BC01CD01EE
:10158000ADD3DC01CB019C01AD0160E876E988E1D7
:101590009BE410D3DC01CB0120E030E040E05FE3CE
:1015A000BC01CD019FD2DC01CB01BC01CD016AD3CE
:1015B000DC01CB01F801918380838FE690E022E08B
:1015C000FC0120838FE590E02FE530E0F9012081D8
:1015D0002068FC0120830F900F90DF91CF911F9125
:1015E0000F9108951F920F9200905F000F921124A7
:1015F00000905B000F922F933F934F935F936F93F5
:101600007F938F939F93AF93BF93EF93FF93CF936A
:10161000DF93CDB7DEB78091550190915601892BAC
:1016200031F08091550190915601FC01099580910E
:10163000510190915201A0915301B0915401019632
:10164000A11DB11D8093510190935201A0935301AC
:10165000B0935401DF91CF91FF91EF91BF91AF9182
:101660009F918F917F916F915F914F913F912F91BA
:101670000F9000925B000F9000925F000F901F9000
:101680001895CF93DF93CDB7DEB76C970FB6F8946C
:10169000DEBF0FBECDBF80E090E0AAE7B4E489834F
:1016A0009A83AB83BC8320E030E44CE155E469814C
:1016B0007A818B819C81C8D3DC01CB018D839E8391
:1016C000AF83B88720E030E040E85FE36D817E8142
:1016D0008F8198856BD288232CF481E090E09A87E3
:1016E00089873BC020E03FEF4FE757E46D817E8163
:1016F0008F819885A5D318163CF520E030E040E2B4
:1017000051E469817A818B819C819ED3DC01CB017C
:10171000BC01CD01B7D2DC01CB019A8789870FC00C
:101720008AEF90E09C878B878B859C850197F1F7EA
:101730009C878B8789859A8501979A878987898570
:101740009A85892B69F713C06D817E818F81988579
:1017500099D2DC01CB019A87898789859A859E87F2
:101760008D878D859E850197F1F79E878D8783E311
:1017700090E02FEFFC01208384E390E02FEFFC0149
:10178000208380E090E0AAE7B4E48F87988BA98B50
:10179000BA8B20E030E44CE155E46F857889898983
:1017A0009A8952D3DC01CB018B8B9C8BAD8BBE8B8A
:1017B00020E030E040E85FE36B897C898D899E8979
:1017C000F5D188232CF481E090E0988F8F8B3BC07B
:1017D00020E03FEF4FE757E46B897C898D899E8934
:1017E0002FD318163CF520E030E040E251E46F853D
:1017F000788989899A8928D3DC01CB01BC01CD0184
:1018000041D2DC01CB01988F8F8B0FC08AEF90E023
:101810009A8F898F898D9A8D0197F1F79A8F898F89
:101820008F89988D0197988F8F8B8F89988D892BB1
:1018300069F713C06B897C898D899E8923D2DC016D
:10184000CB01988F8F8B8F89988D9C8F8B8F8B8DF1
:101850009C8D0197F1F79C8F8B8F84E390E0FC01C6
:10186000108282E390E00E947F0188EE93E06DDEBB
:1018700081E00E94CE036C960FB6F894DEBF0FBED7
:10188000CDBFDF91CF910895CF93DF93CDB7DEB772
:101890008091510190915201A0915301B091540156
:1018A000BC01CD01DF91CF9108951F920F9200905E
:1018B0005F000F92112400905B000F922F933F93D3
:1018C0008F939F93EF93FF93CF93DF93CDB7DEB7C3
:1018D000809197018823D1F0809197018150809366
:1018E000970186EC90E020919801222F30E0295A50
:1018F0003E4FF9012081FC012083809198018F5F88
:1019000080939801803411F410929801DF91CF9167
:10191000FF91EF919F918F913F912F910F900092A6
:101920005B000F9000925F000F901F9018951F9220
:101930000F9200905F000F92112400905B000F92B5
:101940002F933F938F939F93EF93FF93CF93DF93C7
:101950001F92CDB7DEB780EC90E0FC0180818983D7
:101960008981882F90E08C719927892BD1F48091FF
:10197000D901882F90E026EC30E0F90120818756CC
:101980009E4FFC0120838091D9018F5F8093D90104
:10199000803411F41092D9018091DA018F5F809325
:1019A000DA010F90DF91CF91FF91EF919F918F918D
:1019B0003F912F910F9000925B000F9000925F007B
:1019C0000F901F9018951F920F9200905F000F923A
:1019D000112400905B000F922F933F938F939F935E
:1019E000EF93FF93CF93DF93CDB7DEB780911B02C8
:1019F0008823D1F080911B02815080931B028EECD2
:101A000090E020911C02222F30E025523E4FF90138
:101A10002081FC01208380911C028F5F80931C0237
:101A2000803411F410921C02DF91CF91FF91EF915D
:101A30009F918F913F912F910F9000925B000F909B
:101A400000925F000F901F9018951F920F920090C8
:101A50005F000F92112400905B000F922F933F9331
:101A60008F939F93EF93FF93CF93DF931F92CDB705
:101A7000DEB788EC90E0FC01808189838981882F22
:101A800090E08C719927892BD1F480915D02882F89
:101A900090E02EEC30E0F9012081835E9D4FFC0147
:101AA000208380915D028F5F80935D02803411F40A
:101AB00010925D0280915E028F5F80935E020F90B4
:101AC000DF91CF91FF91EF919F918F913F912F9156
:101AD0000F9000925B000F9000925F000F901F909C
:101AE00018955058BB27AA270ED070C161D130F08D
:101AF00066D120F031F49F3F11F41EF456C10EF46C
:101B0000E095E7FB4CC1E92F72D180F3BA17620769
:101B100073078407950718F071F49EF58AC10EF4D7
:101B2000E0950B2EBA2FA02D0B01B90190010C01ED
:101B3000CA01A0011124FF27591B99F0593F50F405
:101B4000503E68F11A16F040A22F232F342F44275D
:101B5000585FF3CF469537952795A795F040539555
:101B6000C9F77EF41F16BA0B620B730B840BBAF025
:101B70009150A1F0FF0FBB1F661F771F881FC2F790
:101B80000EC0BA0F621F731F841F48F487957795A4
:101B90006795B795F7959E3F08F0B3CF9395880F5B
:101BA00008F09927EE0F979587950895D4D008F4FB
:101BB00081E008950CD00AC102D140F0F9D030F094
:101BC00021F45F3F19F0EBC0511134C1EEC00FD1C9
:101BD00098F39923C9F35523B1F3951B550BBB27F4
:101BE000AA2762177307840738F09F5F5F4F220FA1
:101BF000331F441FAA1FA9F333D00E2E3AF0E0E89A
:101C000030D091505040E695001CCAF729D0FE2FE5
:101C100027D0660F771F881FBB1F26173707480777
:101C2000AB07B0E809F0BB0B802DBF01FF2793582D
:101C30005F4F2AF09E3F510568F0B1C0FBC05F3F87
:101C4000ECF3983EDCF3869577956795B795F79515
:101C50009F5FC9F7880F911D9695879597F908950D
:101C6000E1E0660F771F881FBB1F621773078407A9
:101C7000BA0720F0621B730B840BBA0BEE1F88F7B8
:101C8000E0950895BCD088F09F5790F0B92F992720
:101C9000B751A0F0D1F0660F771F881F991F1AF077
:101CA000BA95C9F712C0B13081F0C3D0B1E0089540
:101CB000C0C0672F782F8827B85F39F0B93FCCF3C1
:101CC000869577956795B395D9F73EF4909580956D
:101CD000709561957F4F8F4F9F4F0895E89409C08D
:101CE00097FB3EF490958095709561957F4F8F4F4F
:101CF0009F4F9923A9F0F92F96E9BB279395F69565
:101D0000879577956795B795F111F8CFFAF4BB0FE2
:101D100011F460FF1BC06F5F7F4F8F4F9F4F16C046
:101D2000882311F096E911C0772321F09EE8872FD0
:101D3000762F05C0662371F096E8862F70E060E08C
:101D40002AF09A95660F771F881FDAF7880F969505
:101D5000879597F90895990F0008550FAA0BE0E8A9
:101D6000FEEF16161706E807F907C0F0121613065D
:101D7000E407F50798F0621B730B840B950B39F49D
:101D80000A2661F0232B242B252B21F408950A2603
:101D900009F4A140A6958FEF811D811D089597F943
:101DA0009F6780E870E060E008959FEF80EC089501
:101DB00000240A941616170618060906089500242A
:101DC0000A9412161306140605060895092E0394A4
:101DD000000C11F4882352F0BB0F40F4BF2B11F418
:101DE00060FF04C06F5F7F4F8F4F9F4F089557FD77
:101DF0009058440F551F59F05F3F71F04795880F79
:101E000097FB991F61F09F3F79F08795089512160F
:101E100013061406551FF2CF4695F1DF08C01616BB
:101E200017061806991FF1CF86957105610508946C
:101E30000895E894BB2766277727CB0197F9089583
:101E40008ADF08F48FEF08950BD0C0CFB1DF28F000
:101E5000B6DF18F0952309F0A2CFA7CF1124EACF5F
:101E6000C6DFA0F3959FD1F3950F50E0551F629FF9
:101E7000F001729FBB27F00DB11D639FAA27F00DE3
:101E8000B11DAA1F649F6627B00DA11D661F829F0A
:101E90002227B00DA11D621F739FB00DA11D621FEF
:101EA000839FA00D611D221F749F3327A00D611D0C
:101EB000231F849F600D211D822F762F6A2F1124EE
:101EC0009F5750408AF0E1F088234AF0EE0FFF1F41
:101ED000BB1F661F771F881F91505040A9F79E3F78
:101EE000510570F05CCFA6CF5F3FECF3983EDCF37A
:101EF000869577956795B795F795E7959F5FC1F7B5
:101F0000FE2B880F911D9695879597F908950F934D
:101F10001F93CF93DF93869F8001879F100D969F1D
:101F2000100D1124C8010DD0EC01009721F0A8017B
:101F300060E070E033D1CE01DF91CF911F910F911E
:101F40000895CF93DF938230910510F482E090E002
:101F5000E0916102F091620220E030E0C0E0D0E068
:101F6000309711F14081518148175907C0F0481747
:101F7000590761F482819381209719F09B838A83AA
:101F80002BC0909362028093610226C02115310517
:101F900019F04217530718F49A01BE01DF01EF014F
:101FA0000280F381E02DDCCF2115310509F1281BDA
:101FB000390B2430310590F412968D919C91139732
:101FC0006115710521F0FB019383828304C0909316
:101FD000620280936102FD01329644C0FD01E20F6E
:101FE000F31F81939193225031092D933C933AC072
:101FF00020915F0230916002232B41F42091020175
:10200000309103013093600220935F022091000120
:10201000309101012115310541F42DB73EB74091B2
:10202000040150910501241B350BE0915F02F091F2
:102030006002E217F307A0F42E1B3F0B28173907A5
:1020400078F0AC014E5F5F4F2417350748F04E0F14
:102050005F1F5093600240935F028193919302C08F
:10206000E0E0F0E0CF01DF91CF9108950F931F934F
:10207000CF93DF93009709F48CC0FC013297138251
:10208000128200916102109162020115110581F422
:1020900020813181820F931F20915F023091600275
:1020A0002817390779F5F0936002E0935F0271C059
:1020B000D80140E050E0AE17BF0750F412962D91C2
:1020C0003C911397AD012115310509F1D901F3CFE9
:1020D0009D01DA013383228360817181860F971F0E
:1020E0008217930769F4EC0128813981260F371F85
:1020F0002E5F3F4F318320838A819B81938382832C
:10210000452B29F4F0936202E093610242C01396DA
:10211000FC93EE931297ED01499159919E01240F82
:10212000351FE217F30771F480819181840F951FA9
:10213000029611969C938E938281938113969C9321
:102140008E931297E0E0F0E0D80112968D919C9169
:102150001397009719F0F8018C01F6CF8D919C919F
:1021600098012E5F3F4F820F931F20915F023091A5
:1021700060022817390769F4309729F41092620237
:102180001092610202C013821282109360020093C7
:102190005F02DF91CF911F910F910895DC0101C083
:0E21A0006D9341505040E0F70895F894FFCF42
:1021AE00000063022000060106010000000000008E
:0C21BE00496400640000000041010000C2
:00000001FF
