S01200006D616C6F5F676F766E6F2E73726563E1
S113000049C0000065C0000063C0000061C000007A
S11300105FC000005DC000005BC0000059C000006C
S113002057C0000055C0000053C0000051C000007C
S11300300C94CB144DC000004BC0000049C000001C
S113004047C0000045C00000C8C5000041C0000012
S11300503FC000000C94DF163BC000000C949E16B9
S113006037C0000035C0000033C0000031C00000BC
S11300702FC000002DC000002BC0000029C00000CC
S11300800C94681725C000000C94271721C00000A9
S11300901FC0000011241FBECFEFD0E1DEBFCDBFD3
S11300A011E0A0E0B1E0E6EEF5E300E00BBF02C032
S11300B007900D92A435B107D9F712E0A4E5B1E099
S11300C001C01D92A53AB107E1F732D10C94F11A9F
S11300D097CFDF93CF93CDB7DEB764970FB6F8947D
S11300E0DEBF0FBECDBF9A8B898B80EA90E06EE1B4
S11300F040E050E00E94BD0D80E090E0A8ECB2E446
S11301008B879C87AD87BE876B857C858D859E8517
S113011020E030E44CE155E40E946819DC01CB0195
S11301208F839887A987BA876F81788589859A850F
S113013020E030E040E85FE30E94151888232CF4A7
S113014081E090E09E838D833FC06F8178858985AF
S11301509A8520E03FEF4FE757E40E946419181690
S11301604CF56B857C858D859E8520E030E040E2F2
S113017051E40E946819DC01CB01BC01CD010E944D
S11301808618DC01CB019E838D830FC08AEF90E03B
S11301909C838B838B819C810197F1F79C838B8358
S11301A08D819E8101979E838D838D819E81009791
S11301B069F714C06F81788589859A850E948618AD
S11301C0DC01CB019E838D838D819E819A838983FB
S11301D089819A810197F1F79A83898384ED9EEF4F
S11301E06EE140E050E00E94BD0D89899A89009734
S11301F041F486EA9FEF6EE140E050E00E94E50F93
S113020007C08AE590E06EE140E050E00E94E50F0F
S113021080E090E069D287EF93E061E440E050E051
S11302200E94BD0D8CE99FEF61E440E050E00E9424
S1130230BD0D87E390E061E440E050E00E94E50FEB
S11302400E946C13988B8F878F8598899C8B8B8BDE
S11302508B899C898230910599F18B899C898330A3
S1130260910554F48B899C890097B1F08B899C8902
S113027081309105D1F053C08B899C8984309105DC
S1130280A9F18B899C89843091052CF18B899C89F7
S113029085309105B1F143C010929F0210929E02E5
S11302A080E061E00E94280A3AC081E090E09093E7
S11302B09F0280939E0281E061E00E94280A2FC081
S11302C082E090E090939F0280939E0282E061E03E
S11302D00E94280A24C083E090E090939F028093B8
S11302E09E0283E061E00E94280A19C084E090E045
S11302F090939F0280939E0284E061E00E94280A0A
S11303000EC085E090E090939F0280939E0280E06F
S113031061E00E94280A84E061E00E94280A649651
S11303200FB6F894DEBF0FBECDBFCF91DF91089515
S1130330DF93CF93CDB7DEB70E945E1589E00E94AC
S1130340CA0A813099F48091540191E08927882365
S113035031F081E090E0BDDE81E080935401E4E37C
S1130360F0E08FEF80830E94A00BE8CF80915401CE
S113037091E08927882331F080E090E0AADE81E0D3
S113038080935401E4E3F0E08FEF80830E948510B2
S1130390D5CF0F931F93DF93CF9300D0CDB7DEB7A4
S11303A09A838983ADE2B0E0EDE2F0E08081886376
S11303B08C93E4E9F0E011821082E8E9F0E0118224
S11303C01082EAE9F0E011821082ECE9F0E0118297
S11303D01082E0E9F0E08EEB8083E1E9F0E08AE16D
S11303E0808306E910E089819A81CC01A0E0B0E025
S11303F0BC01CD010E94B218DC01CB01BC01CD01CE
S113040020E030E040E051E40E946819DC01CB01B7
S11304109C01AD0160E876E988E19BE40E9419182B
S1130420DC01CB01BC01CD0120E030E040E05FE322
S11304300E94B117DC01CB01BC01CD010E948618DA
S1130440DC01CB01F801918380830F900F90CF9151
S1130450DF911F910F910895EF92FF920F931F93D5
S1130460DF93CF9300D000D0CDB7DEB79C838B83CE
S1130470E6E9F0E080819181CC01A0E0B0E0BC012C
S1130480CD010E94B218DC01CB01BC01CD0120E0FA
S113049030E04FE753E40E941918DC01CB017C01E2
S11304A08D018B819C81AA2797FDA095BA2FBC0151
S11304B0CD010E94B4189B01AC01C801B7010E9490
S11304C06819DC01CB01BC01CD0120E030E040E043
S11304D05FE30E94B117DC01CB01BC01CD010E9496
S11304E08618DC01CB019A838983E9E9F0E08981EC
S11304F09A81892F99278083E8E9F0E089818083B4
S11305000F900F900F900F90CF91DF911F910F914B
S1130510FF90EF900895EF92FF920F931F93DF9354
S1130520CF9300D000D0CDB7DEB79C838B83E6E9B0
S1130530F0E080819181CC01A0E0B0E0BC01CD016C
S11305400E94B218DC01CB01BC01CD0120E030E0F7
S11305504FE753E40E941918DC01CB017C018D01A3
S11305608B819C81AA2797FDA095BA2FBC01CD0150
S11305700E94B4189B01AC01C801B7010E9468191C
S1130580DC01CB01BC01CD0120E030E040E05FE3C1
S11305900E94B117DC01CB01BC01CD010E94861879
S11305A0DC01CB019A838983EBE9F0E089819A81AC
S11305B0892F99278083EAE9F0E0898180830F906D
S11305C00F900F900F90CF91DF911F910F91FF909B
S11305D0EF900895DF93CF930F92CDB7DEB7898361
S11305E08981992787FD9095A92FB92FBC01CD0149
S11305F00E94B418DC01CB01BC01CD0120E030E045
S113060044EB52E40E941918DC01CB01BC01CD017A
S113061026E636E646E351EC0E946819DC01CB017C
S1130620BC01CD0120E030E04CE653E40E94B11758
S1130630DC01CB019C01AD0160E070E08FE793E445
S11306400E94B017DC01CB01BC01CD010E948118CE
S1130650DC01CB0101DF0F90CF91DF910895DF938F
S1130660CF930F92CDB7DEB789838981992787FD10
S11306709095A92FB92FBC01CD010E94B418DC01BB
S1130680CB01BC01CD0120E030E044EB52E40E94F8
S11306901918DC01CB01BC01CD0126E636E646E3A0
S11306A051EC0E946819DC01CB01BC01CD0120E0B2
S11306B030E04CE653E40E94B117DC01CB019C010D
S11306C0AD0160E070E08FE793E40E94B017DC01B5
S11306D0CB01BC01CD010E948118DC01CB011BDFE1
S11306E00F90CF91DF910895DF93CF9300D0CDB7D2
S11306F0DEB79A8389830F900F90CF91DF9108958D
S1130700DF93CF93CDB7DEB76C970FB6F894DEBF07
S11307100FBECDBF8AEA5EDF80E090E0AAE7B4E4D2
S1130720898F9A8FAB8FBC8F698D7A8D8B8D9C8DC1
S113073020E030E44CE155E40E946819DC01CB016F
S11307408D8B9E8BAF8BB88F6D897E898F89988DA9
S113075020E030E040E85FE30E94151888232CF481
S113076081E090E09C8B8B8B3FC06D897E898F8963
S1130770988D20E03FEF4FE757E40E946419181664
S11307804CF5698D7A8D8B8D9C8D20E030E040E2B4
S113079051E40E946819DC01CB01BC01CD010E9427
S11307A08618DC01CB019C8B8B8B0FC08AEF90E009
S11307B09A8B898B89899A890197F1F79A8B898B0E
S11307C08B899C8901979C8B8B8B8B899C89009747
S11307D069F714C06D897E898F89988D0E94861867
S11307E0DC01CB019C8B8B8B8B899C89988B8F87AD
S11307F08F8598890197F1F7988B8F8780E02FDF99
S113080080E090E0AAE7B4E48B879C87AD87BE873D
S11308106B857C858D859E8520E030E44CE155E434
S11308200E946819DC01CB018F839887A987BA8756
S11308306F81788589859A8520E030E040E85FE320
S11308400E94151888232CF481E090E09E838D8308
S11308503FC06F81788589859A8520E03FEF4FE717
S113086057E40E94641918164CF56B857C858D85B8
S11308709E8520E030E040E251E40E946819DC01EA
S1130880CB01BC01CD010E948618DC01CB019E8303
S11308908D830FC08AEF90E09C838B838B819C8136
S11308A00197F1F79C838B838D819E8101979E83B1
S11308B08D838D819E81009769F714C06F8178853F
S11308C089859A850E948618DC01CB019E838D83DD
S11308D08D819E819A83898389819A810197F1F719
S11308E09A8389836C960FB6F894DEBF0FBECDBF92
S11308F0CF91DF910895DF93CF93CDB7DEB7AA9759
S11309000FB6F894DEBF0FBECDBF8AE5A8DE80E047
S113091090E0AAE7B4E48FA398A7A9A7BAA76FA108
S113092078A589A59AA520E030E44CE155E40E941D
S11309306819DC01CB018BA39CA3ADA3BEA36BA15F
S11309407CA18DA19EA120E030E040E85FE30E94FD
S1130950151888232CF481E090E09AA389A33FC062
S11309606BA17CA18DA19EA120E03FEF4FE757E44E
S11309700E94641918164CF56FA178A589A59AA54B
S113098020E030E040E251E40E946819DC01CB0130
S1130990BC01CD010E948618DC01CB019AA389A376
S11309A00FC08AEF90E098A38F8F8F8D98A1019745
S11309B0F1F798A38F8F89A19AA101979AA389A38C
S11309C089A19AA1009769F714C06BA17CA18DA19C
S11309D09EA10E948618DC01CB019AA389A389A158
S11309E09AA19E8F8D8F8D8D9E8D0197F1F79E8F8D
S11309F08D8F85E5EFDD80E090E0AAE7B4E4898F90
S1130A009A8FAB8FBC8F698D7A8D8B8D9C8D20E0F6
S1130A1030E44CE155E40E946819DC01CB018D8B74
S1130A209E8BAF8BB88F6D897E898F89988D20E0DE
S1130A3030E040E85FE30E94151888232CF481E03D
S1130A4090E09C8B8B8B3FC06D897E898F89988DBC
S1130A5020E03FEF4FE757E40E94641918164CF565
S1130A60698D7A8D8B8D9C8D20E030E040E251E4DD
S1130A700E946819DC01CB01BC01CD010E948618DB
S1130A80DC01CB019C8B8B8B0FC08AEF90E09A8B9F
S1130A90898B89899A890197F1F79A8B898B8B893C
S1130AA09C8901979C8B8B8B8B899C89009769F718
S1130AB014C06D897E898F89988D0E948618DC0107
S1130AC0CB019C8B8B8B8B899C89988B8F878F8593
S1130AD098890197F1F7988B8F8780E0C0DD80E0DB
S1130AE090E0AAEFB3E48B879C87AD87BE876B85C4
S1130AF07C858D859E8520E030E44CE155E40E94A0
S1130B006819DC01CB018F839887A987BA876F8125
S1130B10788589859A8520E030E040E85FE30E948B
S1130B20151888232CF481E090E09E838D833FC0C8
S1130B306F81788589859A8520E03FEF4FE757E4F8
S1130B400E94641918164CF56B857C858D859E85ED
S1130B5020E030E040E251E40E946819DC01CB015E
S1130B60BC01CD010E948618DC01CB019E838D83DC
S1130B700FC08AEF90E09C838B838B819C810197CB
S1130B80F1F79C838B838D819E8101979E838D8356
S1130B908D819E81009769F714C06F81788589855E
S1130BA09A850E948618DC01CB019E838D838D81FA
S1130BB09E819A83898389819A810197F1F79A8327
S1130BC0898381E090E090DDAA960FB6F894DEBFA9
S1130BD00FBECDBFCF91DF9108951F920F920FB634
S1130BE00F9200905B000F9211242F933F934F9329
S1130BF05F938F939F93AF93BF93EF93FF93DF9391
S1130C00CF9300D000D0CDB7DEB7EDEEF0E0808119
S1130C108C831B829CC0EDEEF0E08B818295807FFB
S1130C208083EEEEF0E08081829586958770882F30
S1130C3090E081709070882309F46EC0EFEEF0E0CC
S1130C4080E88083AEEEB0E0EEEEF0E080818F7D50
S1130C508C93E2EFF0E08081829586958770282F4F
S1130C60E3EFF0E08081882F90E0880F991F880FD0
S1130C70991F880F991F822B8A8319822AC08A811F
S1130C80282F30E081E090E0821B930B880F991F9E
S1130C90909581959F4FFC01EB5AFE4F4081518105
S1130CA08A81882F90E00197FC01E759FE4F8081EB
S1130CB0282F30E08981882F90E0820F931FDA017A
S1130CC0A80FB91FEAEFF0E080818C9389818F5FD0
S1130CD089838981883098F28A81882F90E00197EE
S1130CE0FC01E759FE4F80818F5F808380818530CE
S1130CF041F48A81882F90E00197FC01E759FE4F67
S1130D0010828A81882F90E00197FC01E358FE4FFE
S1130D1080818F5F80831FC0EEEEF0E0808182953A
S1130D20869586958370882F90E0817090708823D3
S1130D3059F0EFEEF0E01082AEEEB0E0EEEEF0E04F
S1130D4080818F7B8C9307C08B818F5F8B838B819A
S1130D508F3008F460CFEDEEF0E08C818083AAED53
S1130D60B0E0EAEDF0E080818C930F900F900F904B
S1130D700F90CF91DF91FF91EF91BF91AF919F9130
S1130D808F915F914F913F912F910F9000925B0053
S1130D900F900FBE0F901F901895DF93CF9300D044
S1130DA0CDB7DEB7E8EDF0E081E080831A8232C08F
S1130DB0EDEEF0E08A818295807F8083EEEEF0E0B4
S1130DC01082EFEEF0E01082E3EFF0E01082E2EF49
S1130DD0F0E01082E1EFF0E01082E0EFF0E010824A
S1130DE0E7EFF0E01082E6EFF0E01082E5EFF0E0EC
S1130DF01082E4EFF0E01082198206C0EAEFF0E01E
S1130E00108289818F5F898389818830B8F38A81D0
S1130E108F5F8A838A818F3058F2E8EDF0E082E0B8
S1130E208083E2EEF0E081E08083E3EEF0E088E0AE
S1130E308083E4EEF0E08EE58083E5EEF0E010825E
S1130E40EBEDF0E080EB8083EFEDF0E08FE7808363
S1130E50EEEDF0E08FEF808378940F900F90CF91B8
S1130E60DF910895DF93CF9300D000D00F92CDB7D8
S1130E70DEB79C838B83EDEEF0E080818983E9ED1E
S1130E80F0E0808182958F70882F90E0817090705F
S1130E908823A9F7E9EDF0E080818695869586950B
S1130EA0882F90E081709070882349F71A823FC0A0
S1130EB0EDEEF0E08A818295807F8083EFEEF0E0B2
S1130EC080818295869586958370882369F5EFEEF7
S1130ED0F0E08FE08083E3EFF0E08B819C81907001
S1130EE09695879596958795969587958083E2EF55
S1130EF0F0E08B818295880F807E8083E6EFF0E0BE
S1130F0080EE8083E7EFF0E08FEF8083AFEEB0E018
S1130F10EFEEF0E0808180688C93EDEEF0E0898163
S1130F20808381E08D830CC08A818F5F8A838A816C
S1130F308F3008F4BDCFEDEEF0E0898180831D820F
S1130F408D810F900F900F900F900F90CF91DF91A4
S1130F5008950F931F93DF93CF9300D0CDB7DEB7DF
S1130F608A831BDF198236C08981882F90E001961D
S1130F7079DF8981882F90E0880F991F8C010B5AA3
S1130F801E4F85E090E061E070E00E94CB19F8010B
S1130F90918380838981482F50E08981282F30E014
S1130FA08981882F90E0FC01E358FE4F1082FC01F8
S1130FB0E358FE4F8081F901ED58FE4F8083F9011B
S1130FC0ED58FE4F8081FA01E759FE4F80838981F5
S1130FD08F5F898399818A81981730F20F900F90DF
S1130FE0CF91DF911F910F910895DF93CF9300D09C
S1130FF000D0CDB7DEB79B838A836C838C81882F26
S113100090E00197FC01E358FE4F80818823B1F3FF
S1131010198230C08981282F30E08A819B81DC01CC
S1131020A20FB31F8C81282F30E081E090E0821B57
S1131030930B880F991F909581959F4FFC01EB5A54
S1131040FE4F408151818C81882F90E00197FC01F3
S1131050ED58FE4F8081282F30E08981882F90E061
S1131060820F931FFA01E80FF91F80818C93898105
S11310708F5F89838981883068F28C81882F90E022
S11310800197FC01ED58FE4F80818F5F8083808142
S1131090853041F48C81882F90E00197FC01ED5854
S11310A0FE4F10828C81882F90E09C0121503040AB
S11310B0F901E358FE4F80818150F901E358FE4F56
S11310C0808380E00F900F900F900F90CF91DF916D
S11310D00895DF93CF93CDB7DEB727970FB6F89473
S11310E0DEBF0FBECDBF9D838C836E83E9EDF0E040
S11310F0808182958F70882F90E081709070882312
S1131100A9F7E9EDF0E08081869586958695882F8C
S113111090E081709070882349F7EDEEF0E08081D3
S113112089831A8212C0EDEEF0E08A818295807F75
S11311308083EFEEF0E080818295869586958370BA
S1131140882331F08A818F5F8A838A818F3058F3B4
S11311508A818F3019F48FEF8F8332C0E2EFF0E091
S11311608E818295880F807E8083E3EFF0E08E810C
S11311708695869586958083EFEEF0E088E08083FF
S11311801B820FC0AAEFB0E08B81282F30E08C8146
S11311909D81FC01E20FF31F80818C938B818F5F13
S11311A08B838B81883070F3AFEEB0E0EFEEF0E02C
S11311B0808180648C93EDEEF0E0898180831F82CE
S11311C08F8127960FB6F894DEBF0FBECDBFCF91A7
S11311D0DF910895DF93CF93CDB7DEB72C970FB689
S11311E0F894DEBF0FBECDBF89876A874B87809195
S11311F00801909109019C838B838B819C810697C4
S113120098878F8314C0EF81F8859081898598171A
S113121019F421E02C87C9C0EF81F8858085918578
S11312209A83898389819A81069798878F838F818E
S11312309885069621E08630920729F78985869558
S1131240869586958F5F8E83898587708D838A8541
S1131250813009F048C08E81282F30E0C901880F01
S1131260991F820F931F4E96DC018E81282F30E048
S1131270C901880F991F820F931F4E96FC0180812C
S1131280482F8D81282F30E081E090E002C0880F44
S1131290991F2A95E2F7842B8C938E81282F30E0B6
S11312A0C901880F991F820F931F4F96DC018E810D
S11312B0282F30E0C901880F991F820F931F4F9682
S11312C0FC018081482F8D81282F30E081E090E05F
S11312D0022E02C0880F991F0A94E2F78095842396
S11312E08C931C8662C08E81282F30E0C901880F40
S11312F0991F820F931F4E96DC018E81282F30E0B8
S1131300C901880F991F820F931F4E96FC0180819B
S1131310482F8D81282F30E081E090E002C0880FB3
S1131320991F2A95E2F7809584238C938E81282F28
S113133030E0C901880F991F820F931F4F96DC017B
S11313408E81282F30E0C901880F991F820F931FC7
S11313504F96FC018081482F8D81282F30E081E059
S113136090E002C0880F991F2A95E2F7842B8C9392
S11313708AE090E00E94E51998878F838F81988591
S1131380009719F481E08C8710C0EF81F885898576
S11313908083EF81F8858B8581838F81988506967C
S11313A026E031E0B9010BD01C868C852C960FB653
S11313B0F894DEBF0FBECDBFCF91DF910895DF93C8
S11313C0CF9300D000D0CDB7DEB79A8389837C83D6
S11313D06B83EB81FC814281538189819A812B81CA
S11313E03C81B90107D00F900F900F900F90CF91CF
S11313F0DF910895DF93CF9300D000D000D0CDB714
S1131400DEB79A8389837C836B835E834D83ED810E
S1131410FE8189819A8191838083E981FA818D811A
S11314209E8193838283E981FA818B819C8191835C
S11314308083EB81FC8189819A81938382832696C0
S11314400FB6F894DEBF0FBECDBFCF91DF910895E4
S1131450DF93CF9300D000D0CDB7DEB78B836C83FE
S11314608B818695869586958F5F8A838B8187701D
S11314708B838A81282F30E0C901880F991F820F3E
S1131480931F4F96FC0180819181A281B38189834E
S11314908C81882319F18A81282F30E0C901880FB3
S11314A0991F820F931F4F96FC018981482F50E0AA
S11314B08B81282F30E081E090E0022E02C0880F5B
S11314C0991F0A94E2F7842B952BAA2797FDA095E0
S11314D0BA2F80839183A283B38324C08A81282F67
S11314E030E0C901880F991F820F931F4F96FC01AA
S11314F08981482F50E08B81282F30E081E090E0F3
S1131500022E02C0880F991F0A94E2F780959095E5
S113151084239523AA2797FDA095BA2F80839183CE
S1131520A283B38380E00F900F900F900F90CF9120
S1131530DF910895DF93CF9300D00F92CDB7DEB73C
S11315408B838B818695869586958F5F8A838B8125
S113155087708B838A81282F30E0C901880F991FF7
S1131560820F931F4D96FC01808189838981282FE6
S113157030E08B81882F90E0A90102C055954795F2
S11315808A95E2F7CA0181700F900F900F90CF9166
S1131590DF910895DF93CF93CDB7DEB72B970FB6C6
S11315A0F894DEBF0FBECDBF89878091080190916A
S11315B009019E838D838D819E81069798878F83F1
S11315C055C0EF81F88590818985981709F043C04B
S11315D01C8221C08C81282F30E08F819885820F56
S11315E0931FFC01329640818C81882F90E09C01EE
S11315F02F5F3F4F8F819885820F931FFC01329696
S11316008081481729F0EF81F88525812B8738C020
S11316108C818F5F8C838C818230E0F2EF81F8853E
S1131620918181E08927882329F0EF81F8858281DF
S11316308A8708C0EF81F88582811A86882311F48D
S113164021E02A878A858B83EF81F8858B818583C6
S11316502B812B8715C0EF81F885808591859A832E
S1131660898389819A81069798878F838F8198854A
S1131670069621E08630920709F0A3CF81E08B879C
S11316808B852B960FB6F894DEBF0FBECDBFCF91DE
S1131690DF9108950F931F93DF93CF9300D000D071
S11316A000D0CDB7DEB780910801909109019C83E9
S11316B08B838B819C8106979E838D831BC00091B5
S11316C0870110918801ED81FE81808133DF282F0D
S11316D08D819E81800F911FFC0132962083ED81C4
S11316E0FE81808591859A83898389819A81069771
S11316F09E838D838D819E81069621E0863092079C
S1131700F1F6809187019091880101969093880168
S1131710809387018091870190918801833091059E
S113172021F4109288011092870126960FB6F8943E
S1131730DEBF0FBECDBFCF91DF911F910F910895F2
S1131740DF93CF93CDB7DEB72B970FB6F894DEBFF8
S11317500FBECDBF1C821B8281E0898385E590E0AA
S11317609E838D838EE992E098878F8386EA9FEF2C
S11317709A878987CE01059658D38981882F90E06E
S113178081309105D1F78B818C835CC08C81482F8B
S113179050E0CA01880F991F9C01220F331F220FAA
S11317A0331F820F931F840F951F8F5E9E4FBC01C2
S11317B08C81482F50E0CA01880F991F9C01220F89
S11317C0331F220F331F820F931F840F951FFC01B9
S11317D0E85EFE4FA0818C81482F50E0CA01880F3B
S11317E0991F9C01220F331F220F331F820F931F57
S11317F0840F951FFC01E75EFE4FB0818C81482F5A
S113180050E0CA01880F991F9C01220F331F220F39
S1131810331F820F931F840F951FFC01E65EFE4F5A
S113182020813181CB016A2F4B2F48D28A838A8150
S1131830813009F4A2CF8C81882309F4FFCF8C81F5
S11318408F5F8C838C81882309F4A0CF96CFDF939C
S1131850CF93CDB7DEB767970FB6F894DEBF0FBE50
S1131860CDBF8F8B909189018F89891709F481C02D
S113187086E58F878F89888B72C080E090E0A8E42A
S1131880B2E48B879C87AD87BE876B857C858D850D
S11318909E8520E030E44CE155E40E946819DC01A7
S11318A0CB018F839887A987BA876F8178858985CB
S11318B09A8520E030E040E85FE30E941518882311
S11318C02CF481E090E09E838D833FC06F81788506
S11318D089859A8520E03FEF4FE757E40E94641919
S11318E018164CF56B857C858D859E8520E030E04F
S11318F040E251E40E946819DC01CB01BC01CD0136
S11319000E948618DC01CB019E838D830FC08AEF71
S113191090E09C838B838B819C810197F1F79C835E
S11319208B838D819E8101979E838D838D819E8182
S1131930009769F714C06F81788589859A850E941C
S11319408618DC01CB019E838D838D819E819A83D1
S1131950898389819A810197F1F79A838983CE01DA
S11319600F9663ECB6DB882309F087CF8F898093C9
S1131970890167960FB6F894DEBF0FBECDBFCF9135
S1131980DF910895DF93CF93CDB7DEB766970FB697
S1131990F894DEBF0FBECDBF80E58F8772C080E0B4
S11319A090E0A8E4B2E48B879C87AD87BE876B8503
S11319B07C858D859E8520E030E44CE155E40E94D1
S11319C06819DC01CB018F839887A987BA876F8157
S11319D0788589859A8520E030E040E85FE30E94BD
S11319E0151888232CF481E090E09E838D833FC0FA
S11319F06F81788589859A8520E03FEF4FE757E42A
S1131A000E94641918164CF56B857C858D859E851E
S1131A1020E030E040E251E40E946819DC01CB018F
S1131A20BC01CD010E948618DC01CB019E838D830D
S1131A300FC08AEF90E09C838B838B819C810197FC
S1131A40F1F79C838B838D819E8101979E838D8387
S1131A508D819E81009769F714C06F81788589858F
S1131A609A850E948618DC01CB019E838D838D812B
S1131A709E819A83898389819A810197F1F79A8358
S1131A808983CE010F9663EC24DB882309F087CF8A
S1131A90CE010F9661E0A9DA8F85809310018889C1
S1131AA0882F90E0382F22278989882F90E0822B75
S1131AB0932B90930B0180930A018A89882F90E0DD
S1131AC0382F22278B89882F90E0822B932B909399
S1131AD00D0180930C018C89882F90E0382F2227E8
S1131AE08D89882F90E0822B932B90930F01809304
S1131AF00E0166960FB6F894DEBF0FBECDBFCF9130
S1131B00DF910895DF93CF93CDB7DEB727970FB654
S1131B10F894DEBF0FBECDBF9E838D83B3D7AA27B3
S1131B2097FDA095BA2F89839A83AB83BC832ADF60
S1131B308D819E81009771F089819A81AB81BC81EE
S1131B40ED81FE81BC01CD010995813019F481E05C
S1131B508F8309C0809110018D3449F38091100165
S1131B60823529F31F828F8127960FB6F894DEBF42
S1131B700FBECDBFCF91DF910895DF93CF93CDB743
S1131B80DEB76B970FB6F894DEBF0FBECDBF988F4C
S1131B908F8B698F5B8F4A8F898D59DE84E48F87A1
S1131BA08F89988D892F990F990B888B8F89898BB1
S1131BB072C080E090E0A8E4B2E48B879C87AD8794
S1131BC0BE876B857C858D859E8520E030E44CE165
S1131BD055E40E946819DC01CB018F839887A9879B
S1131BE0BA876F81788589859A8520E030E040E85E
S1131BF05FE30E94151888232CF481E090E09E8313
S1131C008D833FC06F81788589859A8520E03FEF79
S1131C104FE757E40E94641918164CF56B857C85D0
S1131C208D859E8520E030E040E251E40E946819F1
S1131C30DC01CB01BC01CD010E948618DC01CB0183
S1131C409E838D830FC08AEF90E09C838B838B816E
S1131C509C810197F1F79C838B838D819E810197F1
S1131C609E838D838D819E81009769F714C06F8157
S1131C70788589859A850E948618DC01CB019E832C
S1131C808D838D819E819A83898389819A8101972D
S1131C90F1F79A838983CE010F9663EC1ADA8823CD
S1131CA009F087CF8A8D9B8D2DDF6B960FB6F89444
S1131CB0DEBF0FBECDBFCF91DF910895DF93CF93E9
S1131CC0CDB7DEB76C970FB6F894DEBF0FBECDBFAD
S1131CD0988F8F8B698F4A8F3C8F2B8F898DB7DDBF
S1131CE087E48F87EF89F88D80819181892F990FFF
S1131CF0990B888BEF89F88D80819181898BEF898D
S1131D00F88D82819381892F990F990B8A8BEF89A2
S1131D10F88D828193818B8B1C8A8A8D8D8B72C006
S1131D2080E090E0A8E4B2E48B879C87AD87BE870F
S1131D306B857C858D859E8520E030E44CE155E4FF
S1131D400E946819DC01CB018F839887A987BA8721
S1131D506F81788589859A8520E030E040E85FE3EB
S1131D600E94151888232CF481E090E09E838D83D3
S1131D703FC06F81788589859A8520E03FEF4FE7E2
S1131D8057E40E94641918164CF56B857C858D8583
S1131D909E8520E030E040E251E40E946819DC01B5
S1131DA0CB01BC01CD010E948618DC01CB019E83CE
S1131DB08D830FC08AEF90E09C838B838B819C8101
S1131DC00197F1F79C838B838D819E8101979E837C
S1131DD08D838D819E81009769F714C06F8178850A
S1131DE089859A850E948618DC01CB019E838D83A8
S1131DF08D819E819A83898389819A810197F1F7E4
S1131E009A838983CE010F9663EC63D9882309F002
S1131E1087CF8B8D9C8D76DE6C960FB6F894DEBFE3
S1131E200FBECDBFCF91DF910895DF93CF93CDB790
S1131E30DEB768970FB6F894DEBF0FBECDBF988F9C
S1131E408F8B89E48F87EF89F88D80819181892F29
S1131E50990F990B888BEF89F88D80819181898BFB
S1131E60EF89F88D82819381892F990F990B8A8B41
S1131E70EF89F88D828193818B8BEF89F88D848132
S1131E809581892F990F990B8C8BEF89F88D84811B
S1131E9095818D8BEF89F88D8081918190930B01D1
S1131EA080930A01EF89F88D8281938190930D01CB
S1131EB080930C01EF89F88D8481958190930F01B3
S1131EC080930E0172C080E090E0A8E4B2E48B87B6
S1131ED09C87AD87BE876B857C858D859E8520E03C
S1131EE030E44CE155E40E946819DC01CB018F8396
S1131EF09887A987BA876F81788589859A8520E034
S1131F0030E040E85FE30E94151888232CF481E058
S1131F1090E09E838D833FC06F81788589859A8503
S1131F2020E03FEF4FE757E40E94641918164CF580
S1131F306B857C858D859E8520E030E040E251E410
S1131F400E946819DC01CB01BC01CD010E948618F6
S1131F50DC01CB019E838D830FC08AEF90E09C83CC
S1131F608B838B819C810197F1F79C838B838D817B
S1131F709E8101979E838D838D819E81009769F751
S1131F8014C06F81788589859A850E948618DC0142
S1131F90CB019E838D838D819E819A8389838981E0
S1131FA09A810197F1F79A838983CE010F9663ECA6
S1131FB090D8882309F087CF68960FB6F894DEBFCF
S1131FC00FBECDBFCF91DF910895DF93CF93CDB7EF
S1131FD0DEB76B970FB6F894DEBF0FBECDBF988FF8
S1131FE08F8B698F5B8F4A8F898D31DC84E58F8776
S1131FF08F89988D892F9927888B8F89898B71C0B8
S113200080E090E0A8E4B2E48B879C87AD87BE872C
S11320106B857C858D859E8520E030E44CE155E41C
S11320200E946819DC01CB018F839887A987BA873E
S11320306F81788589859A8520E030E040E85FE308
S1132040F4D788232CF481E090E09E838D833FC0F5
S11320506F81788589859A8520E03FEF4FE757E4C3
S11320600E94641918164CF56B857C858D859E85B8
S113207020E030E040E251E40E946819DC01CB0129
S1132080BC01CD010E948618DC01CB019E838D83A7
S11320900FC08AEF90E09C838B838B819C81019796
S11320A0F1F79C838B838D819E8101979E838D8321
S11320B08D819E81009769F714C06F817885898529
S11320C09A850E948618DC01CB019E838D838D81C5
S11320D09E819A83898389819A810197F1F79A83F2
S11320E08983CE010F9663EC0E946908882309F066
S11320F087CF8A8D9B8D06DD6B960FB6F894DEBF75
S11321000FBECDBFCF91DF910895DF93CF93CDB7AD
S1132110DEB72D970FB6F894DEBF0FBECDBF1C827D
S11321201B82C1D4898385E590E09E838D838CEFE7
S113213093E098878F838AE590E09A878987CE0118
S1132140059673DE8981282F30E03D872C878C85A6
S11321509D858330910509F4E2C02C853D852430AA
S1132160310564F48C859D8581309105A1F02C8521
S11321703D852230310509F470C0E4CF8C859D85FE
S11321808430910509F42DC12C853D852530310518
S113219009F489C1D7CF8B818C835BC08C81482F94
S11321A050E0CA01880F991F9C01220F331F220F90
S11321B0331F820F931F840F951F845E9E4FBC01B3
S11321C08C81482F50E0CA01880F991F9C01220F6F
S11321D0331F220F331F820F931F840F951FFC019F
S11321E0ED5DFE4FA0818C81482F50E0CA01880F1D
S11321F0991F9C01220F331F220F331F820F931F3D
S1132200840F951FFC01EC5DFE4FB0818C81482F3B
S113221050E0CA01880F991F9C01220F331F220F1F
S1132220331F820F931F840F951FFC01EB5DFE4F3C
S113223020813181CB016A2F4B2F40DD8A838A8133
S1132240813059F08C81882309F4FFCF8C818F5F12
S11322508C838C81882309F4A1CF8B818C835BC010
S11322608C81482F50E0CA01880F991F9C01220FCE
S1132270331F220F331F820F931F840F951F895D15
S11322809E4FBC018C81482F50E0CA01880F991FD2
S11322909C01220F331F220F331F820F931F840FC1
S11322A0951FFC01E25DFE4FA0818C81482F50E018
S11322B0CA01880F991F9C01220F331F220F331F5D
S11322C0820F931F840F951FFC01E15DFE4FB081C7
S11322D08C81482F50E0CA01880F991F9C01220F5E
S11322E0331F220F331F820F931F840F951FFC018E
S11322F0E05DFE4F20813181CB016A2F4B2FDEDC64
S11323008A838A81813059F08C81882309F4FFCF34
S11323108C818F5F8C838C81882309F4A1CF8B817E
S11323208C835BC08C81482F50E0CA01880F991FB1
S11323309C01220F331F220F331F820F931F840F20
S1132340951F8E5C9E4FBC018C81482F50E0CA01C2
S1132350880F991F9C01220F331F220F331F820FF6
S1132360931F840F951FFC01E75CFE4FA0818C81B5
S1132370482F50E0CA01880F991F9C01220F331F78
S1132380220F331F820F931F840F951FFC01E65CFD
S1132390FE4FB0818C81482F50E0CA01880F991FED
S11323A09C01220F331F220F331F820F931F840FB0
S11323B0951FFC01E55CFE4F20813181CB016A2F22
S11323C04B2F7CDC8A838A81813059F08C8188236D
S11323D009F4FFCF8C818F5F8C838C81882309F46F
S11323E0A1CF8B818C835BC08C81482F50E0CA01C4
S11323F0880F991F9C01220F331F220F331F820F56
S1132400931F840F951F835C9E4FBC018C81482FC2
S113241050E0CA01880F991F9C01220F331F220F1D
S1132420331F820F931F840F951FFC01EC5BFE4F3B
S1132430A0818C81482F50E0CA01880F991F9C010C
S1132440220F331F220F331F820F931F840F951FF8
S1132450FC01EB5BFE4FB0818C81482F50E0CA0138
S1132460880F991F9C01220F331F220F331F820FE5
S1132470931F840F951FFC01EA5BFE4F208131817D
S1132480CB016A2F4B2F1ADC8A838A81813059F061
S11324908C81882309F4FFCF8C818F5F8C838C819E
S11324A0882309F4A1CF8B818C835CC08C81482F55
S11324B050E0CA01880F991F9C01220F331F220F7D
S11324C0331F820F931F840F951F885B9E4FBC019F
S11324D08C81482F50E0CA01880F991F9C01220F5C
S11324E0331F220F331F820F931F840F951FFC018C
S11324F0E15BFE4FA0818C81482F50E0CA01880F18
S1132500991F9C01220F331F220F331F820F931F29
S1132510840F951FFC01E05BFE4FB0818C81482F36
S113252050E0CA01880F991F9C01220F331F220F0C
S1132530331F820F931F840F951FFC01EF5AFE4F28
S113254020813181CB016A2F4B2FB8DB8A838A81AA
S1132550813009F4F7CD8C81882309F4FFCF8C8175
S11325608F5F8C838C81882309F4A0CFEBCDDF931C
S1132570CF9300D0CDB7DEB79A83898389819A81BE
S113258090938B0180938A010F900F90CF91DF91EC
S11325900895DF93CF9300D000D0CDB7DEB78091FC
S11325A09101909192018130910589F48091930178
S11325B090919401009759F480919501909196011E
S11325C0009729F481E090E09A83898378C0809110
S11325D0910190919201009791F4809193019091CF
S11325E094018130910559F480919501909196015F
S11325F0009729F482E090E09A83898360C08091F7
S1132600910190919201009791F48091930190919E
S11326109401009761F48091950190919601813025
S1132620910529F483E090E09A83898348C08091DE
S11326309101909192018130910591F480919301DF
S1132640909194018130910559F480919501909174
S11326509601009729F484E090E09A8389832FC03F
S11326608091910190919201009799F48091930146
S1132670909194018130910561F48091950190913C
S113268096018130910529F485E090E09A8389834D
S113269016C08091910190919201009779F48091F4
S11326A0930190919401009749F480919501909140
S11326B09601009719F41A82198201C004C0898115
S11326C09A819C838B838B819C810F900F900F90B8
S11326D00F90CF91DF910895DF93CF93CDB7DEB7FD
S11326E0A0970FB6F894DEBF0FBECDBF80E090E098
S11326F0A8ECB2E4898F9A8FAB8FBC8F698D7A8DE9
S11327008B8D9C8D20E030E44CE155E4E1D5DC0177
S1132710CB018D8B9E8BAF8BB88F6D897E898F8912
S1132720988D20E030E040E85FE37FD488232CF4E8
S113273081E090E09C8B8B8B3BC06D897E898F8977
S1132740988D20E03FEF4FE757E4BED518163CF5CF
S1132750698D7A8D8B8D9C8D20E030E040E251E4D0
S1132760B7D5DC01CB01BC01CD01D0D4DC01CB0158
S11327709C8B8B8B0FC08AEF90E09A8B898B898915
S11327809A890197F1F79A8B898B8B899C89019798
S11327909C8B8B8B8B899C89009769F713C06D89FF
S11327A07E898F89988DB2D4DC01CB019C8B8B8B75
S11327B08B899C89988B8F878F8598890197F1F7EE
S11327C0988B8F871E8E1D8E8FC089E00E94CA0A47
S11327D0882F90E090939201809391018AE00E9467
S11327E0CA0A882F90E090939401809393018BE020
S11327F00E94CA0A882F90E09093960180939501D5
S1132800C8DE98A38F8F80E090E0A8ECB2E48B87B9
S11328109C87AD87BE876B857C858D859E8520E0F2
S113282030E44CE155E454D5DC01CB018F83988727
S1132830A987BA876F81788589859A8520E030E0F9
S113284040E85FE3F2D388232CF481E090E09E8398
S11328508D833BC06F81788589859A8520E03FEF21
S11328604FE757E431D518163CF56B857C858D858B
S11328709E8520E030E040E251E42AD5DC01CB0122
S1132880BC01CD0143D4DC01CB019E838D830FC0F9
S11328908AEF90E09C838B838B819C810197F1F775
S11328A09C838B838D819E8101979E838D838D81F3
S11328B09E81009769F713C06F81788589859A8511
S11328C025D4DC01CB019E838D838D819E819A83E7
S11328D0898389819A810197F1F79A8389838D8D00
S11328E09E8D01969E8F8D8F8D8D9E8D8530910549
S11328F00CF46BCF8F8D98A1A0960FB6F894DEBF21
S11329000FBECDBFCF91DF9108950F931F93DF9337
S1132910CF9300D0CDB7DEB79A838983E0E8F0E0A7
S11329201082E1E8F0E089E0808308E810E0898122
S11329309A81CC01A0E0B0E0BC01CD0113D49B018D
S1132940AC0160E876E988E19BE473D3DC01CB0158
S1132950BC01CD0120E030E040E05FE302D3DC01C4
S1132960CB01BC01CD01D2D3DC01CB01F8019183B1
S11329708083EFE6F0E082E08083AFE5B0E0EFE54E
S1132980F0E0808180688C930F900F90CF91DF915D
S11329901F910F9108951F920F920FB60F920090FE
S11329A05B000F9211242F933F934F935F936F9388
S11329B07F938F939F93AF93BF93EF93FF93DF9393
S11329C0CF93CDB7DEB780918A0190918B010097A8
S11329D029F0E0918A01F0918B01099580918C0195
S11329E090918D01A0918E01B0918F01803828E3E0
S11329F0920721E0A20720E0B20710F00E948003B2
S1132A0080918C0190918D01A0918E01B0918F01E4
S1132A100196A11DB11D80938C0190938D01A0930B
S1132A208E01B0938F01CF91DF91FF91EF91BF9110
S1132A30AF919F918F917F916F915F914F913F9152
S1132A402F910F9000925B000F900FBE0F901F907C
S1132A501895DF93CF93CDB7DEB710928C01109207
S1132A608D0110928E0110928F01CF91DF91089504
S1132A70DF93CF93CDB7DEB781E080939001CF9100
S1132A80DF910895DF93CF93CDB7DEB780918C01AA
S1132A9090918D01A0918E01B0918F01BC01CD0167
S1132AA0CF91DF910895DF93CF93CDB7DEB78091B7
S1132AB09E0290919F02CF91DF910895DF93CF936F
S1132AC0CDB7DEB76C970FB6F894DEBF0FBECDBF9F
S1132AD08AE49BE04CDD80E090E0A8ECB2E4898FCE
S1132AE09A8FAB8FBC8F698D7A8D8B8D9C8D20E0F6
S1132AF030E44CE155E4ECD3DC01CB018D8B9E8BAF
S1132B00AF8BB88F6D897E898F89988D20E030E0F6
S1132B1040E85FE38AD288232CF481E090E09C8B28
S1132B208B8B3BC06D897E898F89988D20E03FEF28
S1132B304FE757E4C9D318163CF5698D7A8D8B8D10
S1132B409C8D20E030E040E251E4C2D3DC01CB01B3
S1132B50BC01CD01DBD2DC01CB019C8B8B8B0FC084
S1132B608AEF90E09A8B898B89899A890197F1F78A
S1132B709A8B898B8B899C8901979C8B8B8B8B89F6
S1132B809C89009769F713C06D897E898F89988D18
S1132B90BDD2DC01CB019C8B8B8B8B899C89988B60
S1132BA08F878F8598890197F1F7988B8F8788E0B5
S1132BB060E041E00E94EA0889E060E041E00E94B0
S1132BC0EA088AE060E041E00E94EA088BE060E005
S1132BD041E00E94EA088CE060E041E00E94EA08DB
S1132BE080E061E040E00E94EA0881E061E040E0CA
S1132BF00E94EA0882E061E040E00E94EA0883E083
S1132C0061E040E00E94EA0884E061E040E00E9464
S1132C10EA08E3E3F0E08FEF8083E4E3F0E08FEF92
S1132C20808382E390E00E94C90188EE93E06DDE28
S1132C3081E00E94A9070E947B046CC080E090E0C0
S1132C40A0E2B1E48B879C87AD87BE876B857C85CA
S1132C508D859E8520E030E44CE155E439D3DC01D8
S1132C60CB018F839887A987BA876F8178858985F7
S1132C709A8520E030E040E85FE3D7D188232CF444
S1132C8081E090E09E838D833BC06F817885898548
S1132C909A8520E03FEF4FE757E416D318163CF52A
S1132CA06B857C858D859E8520E030E040E251E493
S1132CB00FD3DC01CB01BC01CD0128D2DC01CB0157
S1132CC09E838D830FC08AEF90E09C838B838B81DE
S1132CD09C810197F1F79C838B838D819E81019761
S1132CE09E838D838D819E81009769F713C06F81C8
S1132CF0788589859A850AD2DC01CB019E838D83F0
S1132D008D819E819A83898389819A810197F1F7C4
S1132D109A83898388E00E94CA0A882309F08ECFA7
S1132D20E4E3F0E0108295DEA3DE6C960FB6F8942F
S1132D30DEBF0FBECDBFCF91DF9108951F920F92DA
S1132D400FB60F9200905B000F9211248F939F9304
S1132D50AF93BF93EF93FF93DF93CF93CDB7DEB7DA
S1132D60809195018823D9F08091950181508093B9
S1132D709501A6ECB0E080919601882F90E0FC01CB
S1132D80E356FE4F80818C93809196018F5F8093F0
S1132D90960180919601803411F410929601CF919E
S1132DA0DF91FF91EF91BF91AF919F918F910F9020
S1132DB000925B000F900FBE0F901F9018951F920A
S1132DC00F920FB60F9200905B000F9211242F9375
S1132DD08F939F93EF93FF93DF93CF930F92CDB78E
S1132DE0DEB7E0ECF0E0808189838981882F90E070
S1132DF08C7190700097D9F480919701882F90E09E
S1132E00E6ECF0E02081FC01E352FE4F2083809148
S1132E1097018F5F8093970180919701803411F41B
S1132E2010929701809198018F5F809398010F9081
S1132E30CF91DF91FF91EF919F918F912F910F90FF
S1132E4000925B000F900FBE0F901F9018951F9279
S1132E500F920FB60F9200905B000F9211248F9384
S1132E609F93AF93BF93EF93FF93DF93CF93CDB72C
S1132E70DEB7809199018823D9F08091990181501E
S1132E8080939901AEECB0E080919A01882F90E094
S1132E90FC01E35EFD4F80818C9380919A018F5FEA
S1132EA080939A0180919A01803411F410929A01CE
S1132EB0CF91DF91FF91EF91BF91AF919F918F914E
S1132EC00F9000925B000F900FBE0F901F9018950B
S1132ED01F920F920FB60F9200905B000F92112475
S1132EE02F938F939F93EF93FF93DF93CF930F923F
S1132EF0CDB7DEB7E8ECF0E0808189838981882F43
S1132F0090E08C7190700097D9F480919B01882F88
S1132F1090E0EEECF0E02081FC01E35AFD4F2083C9
S1132F2080919B018F5F80939B0180919B018034F2
S1132F3011F410929B0180919C018F5F80939C01FE
S1132F400F90CF91DF91FF91EF919F918F912F91EE
S1132F500F9000925B000F900FBE0F901F9018957A
S1132F605058BB27AA270ED075C166D130F06BD15B
S1132F7020F031F49F3F11F41EF45BC10EF4E09590
S1132F80E7FB51C1E92F77D180F3BA1762077307C2
S1132F908407950718F071F49EF58FC10EF4E0953F
S1132FA00B2EBA2FA02D0B01B90190010C01CA01FF
S1132FB0A0011124FF27591B99F0593F50F4503EAA
S1132FC068F11A16F040A22F232F342F4427585F9C
S1132FD0F3CF469537952795A795F0405395C9F7B4
S1132FE07EF41F16BA0B620B730B840BBAF091506C
S1132FF0A1F0FF0FBB1F661F771F881FC2F70EC00B
S1133000BA0F621F731F841F48F4879577956795DD
S1133010B795F7959E3F08F0B3CF9395880F08F0C6
S11330209927EE0F979587950895D9D008F481E0F4
S113303008950CD00FC107D140F0FED030F021F438
S11330405F3F19F0F0C0511139C1F3C014D198F3A6
S11330509923C9F35523B1F3951B550BBB27AA2715
S113306062177307840738F09F5F5F4F220F331F87
S1133070441FAA1FA9F333D00E2E3AF0E0E830D053
S113308091505040E695001CCAF729D0FE2F27D056
S1133090660F771F881FBB1F261737074807AB0724
S11330A0B0E809F0BB0B802DBF01FF2793585F4F99
S11330B02AF09E3F510568F0B6C000C15F3FECF3B3
S11330C0983EDCF3869577956795B795F7959F5F5E
S11330D0C9F7880F911D9695879597F90895E1E0B2
S11330E0660F771F881FBB1F621773078407BA0711
S11330F020F0621B730B840BBA0BEE1F88F7E0956C
S1133100089504D06894B111D9C00895BCD088F052
S11331109F5790F0B92F9927B751A0F0D1F0660FBF
S1133120771F881F991F1AF0BA95C9F712C0B130DA
S113313081F0C3D0B1E00895C0C0672F782F8827ED
S1133140B85F39F0B93FCCF3869577956795B39519
S1133150D9F73EF490958095709561957F4F8F4F88
S11331609F4F0895E89409C097FB3EF4909580958D
S1133170709561957F4F8F4F9F4F9923A9F0F92F39
S113318096E9BB279395F695879577956795B795B7
S1133190F111F8CFFAF4BB0F11F460FF1BC06F5F9D
S11331A07F4F8F4F9F4F16C0882311F096E911C0AF
S11331B0772321F09EE8872F762F05C0662371F0D0
S11331C096E8862F70E060E02AF09A95660F771FE4
S11331D0881FDAF7880F9695879597F90895990FC0
S11331E00008550FAA0BE0E8FEEF16161706E807CD
S11331F0F907C0F012161306E407F50798F0621BEE
S1133200730B840B950B39F40A2661F0232B242BC2
S1133210252B21F408950A2609F4A140A6958FEFE1
S1133220811D811D089597F99F6780E870E060E033
S113323008959FEF80EC089500240A94161617064B
S113324018060906089500240A9412161306140693
S113325005060895092E0394000C11F4882352F0F6
S1133260BB0F40F4BF2B11F460FF04C06F5F7F4FAE
S11332708F4F9F4F089557FD9058440F551F59F095
S11332805F3F71F04795880F97FB991F61F09F3F4F
S113329079F087950895121613061406551FF2CF78
S11332A04695F1DF08C0161617061806991FF1CFC8
S11332B086957105610508940895E894BB276627EF
S11332C07727CB0197F908958ADF08F48FEF0895E3
S11332D00BD0C0CFB1DF28F0B6DF18F0952309F08A
S11332E0A2CFA7CF1124EACFC6DFA0F3959FD1F3D5
S11332F0950F50E0551F629FF001729FBB27F00DA0
S1133300B11D639FAA27F00DB11DAA1F649F6627F4
S1133310B00DA11D661F829F2227B00DA11D621F43
S1133320739FB00DA11D621F839FA00D611D221FFD
S1133330749F3327A00D611D231F849F600D211DE1
S1133340822F762F6A2F11249F5750408AF0E1F084
S113335088234AF0EE0FFF1FBB1F661F771F881FCD
S113336091505040A9F79E3F510570F05CCFA6CF15
S11333705F3FECF3983EDCF3869577956795B795B8
S1133380F795E7959F5FC1F7FE2B880F911D9695E2
S1133390879597F908950F931F93CF93DF93689FB1
S11333A08001699F100D789F100D1124C8010DD064
S11333B0EC01009721F060E070E0A8010BD1CE0190
S11333C0DF91CF911F910F910895CF93DF93BC01AB
S11333D08230910510F462E070E0A091A302B091F4
S11333E0A402ED01E0E0F0E040E050E021C088817B
S11333F099818617970769F48A819B81309719F020
S11334009383828304C09093A4028093A302FE0159
S113341034C06817790738F44115510519F0841739
S1133420950708F4AC01FE018A819B819C01E901A6
S11334302097E9F641155105A9F1CA01861B970B9E
S1133440049708F4BA01E0E0F0E02AC08D919C9161
S1133450119784179507F9F46417750781F4129688
S11334608D919C911397309719F09383828304C0B4
S11334709093A4028093A302FD0132964FC0CA0127
S1133480861B970BFD01E80FF91F61937193029757
S11334908D939C9343C0FD01828193819C01D9014A
S11334A01097A1F68091A1029091A202892B41F478
S11334B080910201909103019093A2028093A10252
S11334C040910401509105014115510541F44DB756
S11334D05EB78091000190910101481B590B209126
S11334E0A1023091A20224173507B0F4CA01821B4D
S11334F0930B8617970780F0AB014E5F5F4F8417DD
S1133500950750F0420F531F5093A2024093A1021B
S1133510F9016193719302C0E0E0F0E0CF01DF9123
S1133520CF910895CF93DF93009709F450C0EC0135
S113353022971B821A82A091A302B091A402109731
S113354009F140E050E0AC17BD0708F1BB83AA8342
S1133550FE0121913191E20FF31FAE17BF0779F4F9
S11335608D919C911197280F391F2E5F3F4F3983FE
S1133570288312968D919C9113979B838A8341157E
S1133580510571F4D093A402C093A30220C01296F3
S11335908D919C911397AD01009711F0DC01D3CF6D
S11335A0FA01D383C28321913191E20FF31FCE1725
S11335B0DF0769F488819981280F391F2E5F3F4FF7
S11335C0FA01318320838A819B8193838283DF91F3
S11335D0CF910895DC0101C06D9341505040E0F754
S10935E00895F894FFCFEA
S11335E62000A502000006010601000000000000FC
S11335F6495500F4010000006E0100005500C404A2
S1133606000000410100005500C40400000041010F
S113361600005500C404000000410100005500C428
S113362604000000410100005500C40400000041EC
S1073636010000008B
S9030000FC
