:1000000049C0000065C0000063C0000061C000007E
:100010005FC000005DC000005BC0000059C0000070
:1000200057C0000055C0000053C0000051C0000080
:1000300016C700004DC000004BC0000049C00000C2
:1000400047C0000045C00000BDC4000041C0000022
:100050003FC000000C94E7083BC000000C94A608C9
:1000600037C0000035C0000033C0000031C00000C0
:100070002FC000002DC000002BC0000029C00000D0
:100080000C94700925C000000C942F0921C00000B9
:100090001FC0000011241FBECFEFD0E1DEBFCDBFD7
:1000A00011E0A0E0B1E0E6EFF9E100E00BBF02C033
:1000B00007900D92A630B107D9F712E0A6E0B1E0A3
:1000C00001C01D92AB34B107E1F703D00C94F90CD9
:1000D00097CFDF93CF93CDB7DEB76C970FB6F89479
:1000E000DEBF0FBECDBF31D7E4E3F0E08FEF8083FA
:1000F00080E090E0AAE7B4E4898F9A8FAB8FBC8F41
:10010000698D7A8D8B8D9C8D20E030E44CE155E437
:100110000E94700BDC01CB018D8B9E8BAF8BB88F57
:100120006D897E898F89988D20E030E040E85FE31B
:100130000E941D0A88232CF481E090E09C8B8B8B1D
:100140003FC06D897E898F89988D20E03FEF4FE712
:1001500057E40E946C0B18164CF5698D7A8D8B8DC7
:100160009C8D20E030E040E251E40E94700BDC0105
:10017000CB01BC01CD010E948E0ADC01CB019C8B1E
:100180008B8B0FC08AEF90E09A8B898B89899A8933
:100190000197F1F79A8B898B8B899C8901979C8BAE
:1001A0008B8B8B899C89009769F714C06D897E8938
:1001B0008F89988D0E948E0ADC01CB019C8B8B8BE2
:1001C0008B899C89988B8F878F8598890197F1F708
:1001D000988B8F87E4E3F0E0108280E090E0AAE75C
:1001E000B4E48B879C87AD87BE876B857C858D85C6
:1001F0009E8520E030E44CE155E40E94700BDC0168
:10020000CB018F839887A987BA876F817885898585
:100210009A8520E030E040E85FE30E941D0A8823D1
:100220002CF481E090E09E838D833FC06F817885C0
:1002300089859A8520E03FEF4FE757E40E946C0BD9
:1002400018164CF56B857C858D859E8520E030E009
:1002500040E251E40E94700BDC01CB01BC01CD01F6
:100260000E948E0ADC01CB019E838D830FC08AEF32
:1002700090E09C838B838B819C810197F1F79C8319
:100280008B838D819E8101979E838D838D819E813D
:10029000009769F729CF6F81788589859A850E94B3
:1002A0008E0ADC01CB019E838D838D819E819A8392
:1002B000898389819A810197F1F79A83898314CF81
:1002C0000F931F93DF93CF9300D0CDB7DEB79A8300
:1002D0008983ADE2B0E0EDE2F0E0808188638C9349
:1002E000E4E9F0E011821082E8E9F0E01182108286
:1002F000EAE9F0E011821082ECE9F0E0118210826C
:10030000E0E9F0E08EEB8083E1E9F0E08AE18083D0
:1003100006E910E089819A81CC01A0E0B0E0BC013F
:10032000CD010E94BA0ADC01CB01BC01CD0120E065
:1003300030E040E051E40E94700BDC01CB019C01F5
:10034000AD0160E876E988E19BE40E94210ADC01C6
:10035000CB01BC01CD0120E030E040E05FE30E9432
:10036000B909DC01CB01BC01CD010E948E0ADC0180
:10037000CB01F801918380830F900F90CF91DF9193
:100380001F910F910895EF92FF920F931F93DF93A8
:10039000CF9300D000D0CDB7DEB79C838B83E6E946
:1003A000F0E080819181CC01A0E0B0E0BC01CD0102
:1003B0000E94BA0ADC01CB01BC01CD0120E030E093
:1003C0004FE753E40E94210ADC01CB017C018D013F
:1003D0008B819C81AA2797FDA095BA2FBC01CD01E6
:1003E0000E94BC0A9B01AC01C801B7010E94700BBE
:1003F000DC01CB01BC01CD0120E030E040E05FE357
:10040000B8D7DC01CB01BC01CD010E948E0ADC0112
:10041000CB019A838983E9E9F0E089819A81892F68
:1004200099278083E8E9F0E0898180830F900F901D
:100430000F900F90CF91DF911F910F91FF90EF9050
:100440000895DF93CF930F92CDB7DEB7898389816B
:10045000992787FD9095A92FB92FBC01CD010E9446
:10046000BC0ADC01CB01BC01CD0120E030E044EB53
:1004700052E4E7D7DC01CB01BC01CD0126E636E62C
:1004800046E351EC0E94700BDC01CB01BC01CD01B5
:1004900020E030E04CE653E46CD7DC01CB019C015A
:1004A000AD0160E070E08FE793E462D7DC01CB013F
:1004B000BC01CD010E94890ADC01CB0164DF0F90F1
:1004C000CF91DF910895EF92FF920F931F93DF93E7
:1004D000CF9300D000D0CDB7DEB79C838B83E6E905
:1004E000F0E080819181CC01A0E0B0E0BC01CD01C1
:1004F0000E94BA0ADC01CB01BC01CD0120E030E052
:100500004FE753E49ED7DC01CB017C018D018B8149
:100510009C81AA2797FDA095BA2FBC01CD010E940E
:10052000BC0A9B01AC01C801B7010E94700BDC0141
:10053000CB01BC01CD0120E030E040E05FE319D702
:10054000DC01CB01BC01CD01E9D7DC01CB019A83F1
:100550008983EBE9F0E089819A81892F992780834B
:10056000EAE9F0E0898180830F900F900F900F905F
:10057000CF91DF911F910F91FF90EF900895DF933E
:10058000CF930F92CDB7DEB789838981992787FDF5
:100590009095A92FB92FBC01CD01EED7DC01CB017D
:1005A000BC01CD0120E030E044EB52E44AD7DC014D
:1005B000CB01BC01CD0126E636E646E351EC0E94B4
:1005C000700BDC01CB01BC01CD0120E030E04CE63A
:1005D00053E4CFD6DC01CB019C01AD0160E070E0BB
:1005E0008FE793E4C5D6DC01CB01BC01CD0191D7E7
:1005F000DC01CB0168DF0F90CF91DF910895DF938D
:10060000CF93CDB7DEB76C970FB6F894DEBF0FBEB1
:10061000CDBF8AEA16DF80E090E0AAE7B4E4898FD4
:100620009A8FAB8FBC8F698D7A8D8B8D9C8D20E0DE
:1006300030E44CE155E40E94700BDC01CB018D8B62
:100640009E8BAF8BB88F6D897E898F89988D20E0C6
:1006500030E040E85FE3F1D688232CF481E090E0BD
:100660009C8B8B8B3DC06D897E898F89988D20E016
:100670003FEF4FE757E40E946C0B181644F5698D65
:100680007A8D8B8D9C8D20E030E040E251E40E9419
:10069000700BDC01CB01BC01CD0140D7DC01CB01EB
:1006A0009C8B8B8B0FC08AEF90E09A8B898B89890A
:1006B0009A890197F1F79A8B898B8B899C8901978D
:1006C0009C8B8B8B8B899C89009769F713C06D89F4
:1006D0007E898F89988D22D7DC01CB019C8B8B8BF7
:1006E0008B899C89988B8F878F8598890197F1F7E3
:1006F000988B8F8780E043DF80E090E0AAE7B4E446
:100700008B879C87AD87BE876B857C858D859E8515
:1007100020E030E44CE155E4E3D7DC01CB018F83EA
:100720009887A987BA876F81788589859A8520E01F
:1007300030E040E85FE381D688232CF481E090E04C
:100740009E838D833BC06F81788589859A8520E063
:100750003FEF4FE757E4C0D718163CF56B857C8513
:100760008D859E8520E030E040E251E4B9D7DC0180
:10077000CB01BC01CD01D2D6DC01CB019E838D83A0
:100780000FC08AEF90E09C838B838B819C810197C3
:10079000F1F79C838B838D819E8101979E838D834E
:1007A0008D819E81009769F713C06F817885898557
:1007B0009A85B4D6DC01CB019E838D838D819E8189
:1007C0009A83898389819A810197F1F79A83898332
:1007D0006C960FB6F894DEBF0FBECDBFCF91DF9100
:1007E0000895DF93CF93CDB7DEB76C970FB6F8942B
:1007F000DEBF0FBECDBF8AE5C2DE80E090E0AAE793
:10080000B4E4898F9A8FAB8FBC8F698D7A8D8B8D75
:100810009C8D20E030E44CE155E462D7DC01CB0153
:100820008D8B9E8BAF8BB88F6D897E898F89988DCC
:1008300020E030E040E85FE300D688232CF481E03C
:1008400090E09C8B8B8B3BC06D897E898F89988DC6
:1008500020E03FEF4FE757E43FD718163CF5698D8E
:100860007A8D8B8D9C8D20E030E040E251E438D7CA
:10087000DC01CB01BC01CD0151D6DC01CB019C8B4D
:100880008B8B0FC08AEF90E09A8B898B89899A892C
:100890000197F1F79A8B898B8B899C8901979C8BA7
:1008A0008B8B8B899C89009769F713C06D897E8932
:1008B0008F89988D33D6DC01CB019C8B8B8B8B89F8
:1008C0009C89988B8F878F8598890197F1F7988BF2
:1008D0008F8785E5B6DD80E090E0AAE7B4E48B87FA
:1008E0009C87AD87BE876B857C858D859E8520E046
:1008F00030E44CE155E4F4D6DC01CB018F839887DA
:10090000A987BA876F81788589859A8520E030E04C
:1009100040E85FE392D588232CF481E090E09E8349
:100920008D833BC06F81788589859A8520E03FEF74
:100930004FE757E4D1D618163CF56B857C858D853D
:100940009E8520E030E040E251E4CAD6DC01CB01D4
:10095000BC01CD01E3D5DC01CB019E838D830FC0AB
:100960008AEF90E09C838B838B819C810197F1F7C8
:100970009C838B838D819E8101979E838D838D8146
:100980009E81009769F713C06F81788589859A8564
:10099000C5D5DC01CB019E838D838D819E819A8399
:1009A000898389819A810197F1F79A83898380E00D
:1009B000E6DD6C960FB6F894DEBF0FBECDBFCF91CB
:1009C000DF9108951F920F920FB60F9200905B0077
:1009D0000F9211242F933F934F935F938F939F9385
:1009E000AF93BF93EF93FF93DF93CF9300D000D0EB
:1009F000CDB7DEB7EDEEF0E080818C831B829CC02A
:100A0000EDEEF0E08B818295807F8083EEEEF0E06A
:100A10008081829586958770882F90E08170907094
:100A2000882309F46EC0EFEEF0E080E88083AEEE3C
:100A3000B0E0EEEEF0E080818F7D8C93E2EFF0E0AD
:100A40008081829586958770282FE3EFF0E0808182
:100A5000882F90E0880F991F880F991F880F991F82
:100A6000822B8A8319822AC08A81282F30E081E074
:100A700090E0821B930B880F991F909581959F4F53
:100A8000FC01EA5FFE4F408151818A81882F90E00E
:100A90000197FC01E65EFE4F8081282F30E08981BE
:100AA000882F90E0820F931FDA01A80FB91FEAEF99
:100AB000F0E080818C9389818F5F89838981883080
:100AC00098F28A81882F90E00197FC01E65EFE4F44
:100AD00080818F5F80838081853041F48A81882F77
:100AE00090E00197FC01E65EFE4F10828A81882F1C
:100AF00090E00197FC01E25DFE4F80818F5F808373
:100B00001FC0EEEEF0E08081829586958695837019
:100B1000882F90E081709070882359F0EFEEF0E01C
:100B20001082AEEEB0E0EEEEF0E080818F7B8C9331
:100B300007C08B818F5F8B838B818F3008F460CFF0
:100B4000EDEEF0E08C818083AAEDB0E0EAEDF0E01C
:100B500080818C930F900F900F900F90CF91DF9129
:100B6000FF91EF91BF91AF919F918F915F914F91C5
:100B70003F912F910F9000925B000F900FBE0F904E
:100B80001F901895DF93CF9300D0CDB7DEB7E8ED77
:100B9000F0E081E080831A8232C0EDEEF0E08A81DD
:100BA0008295807F8083EEEEF0E01082EFEEF0E041
:100BB0001082E3EFF0E01082E2EFF0E01082E1EF6C
:100BC000F0E01082E0EFF0E01082E7EFF0E010825A
:100BD000E6EFF0E01082E5EFF0E01082E4EFF0E005
:100BE0001082198206C0EAEFF0E0108289818F5FDF
:100BF000898389818830B8F38A818F5F8A838A816B
:100C00008F3058F2E8EDF0E082E08083E2EEF0E031
:100C100081E08083E3EEF0E088E08083E4EEF0E0C2
:100C20008EE58083E5EEF0E01082EBEDF0E080EB06
:100C30008083EFEDF0E08FE78083EEEDF0E08FEF63
:100C4000808378940F900F90CF91DF910895DF9378
:100C5000CF9300D000D00F92CDB7DEB79C838B83AB
:100C6000EDEEF0E080818983E9EDF0E0808182950E
:100C70008F70882F90E0817090708823A9F7E9ED3C
:100C8000F0E08081869586958695882F90E081702A
:100C90009070882349F71A823FC0EDEEF0E08A8118
:100CA0008295807F8083EFEEF0E08081829586954B
:100CB00086958370882369F5EFEEF0E08FE08083FE
:100CC000E3EFF0E08B819C819070969587959695E7
:100CD0008795969587958083E2EFF0E08B818295EA
:100CE000880F807E8083E6EFF0E080EE8083E7EF80
:100CF000F0E08FEF8083AFEEB0E0EFEEF0E08081C8
:100D000080688C93EDEEF0E08981808381E08D83B3
:100D10000CC08A818F5F8A838A818F3008F4BDCFAF
:100D2000EDEEF0E0898180831D828D810F900F9020
:100D30000F900F900F90CF91DF9108950F931F9315
:100D4000DF93CF9300D0CDB7DEB78A831BDF198244
:100D500035C08981882F90E0019679DF8981882FBD
:100D600090E0880F991F8C010A5F1E4F85E090E08C
:100D700061E070E018D5F801918380838981482F64
:100D800050E08981282F30E08981882F90E0FC0194
:100D9000E25DFE4F1082FC01E25DFE4F8081F901B1
:100DA000EC5DFE4F8083F901EC5DFE4F8081FA011E
:100DB000E65EFE4F808389818F5F898399818A8176
:100DC000981738F20F900F90CF91DF911F910F91EC
:100DD00008950F931F93DF93CF9300D0CDB7DEB765
:100DE0009A838983E0E8F0E01082E1E8F0E089E0AE
:100DF000808308E810E089819A81CC01A0E0B0E00E
:100E0000BC01CD01B7D39B01AC0160E876E988E174
:100E10009BE417D3DC01CB01BC01CD0120E030E025
:100E200040E05FE3A6D2DC01CB01BC01CD0176D36B
:100E3000DC01CB01F80191838083EFE6F0E082E0F2
:100E40008083AFE5B0E0EFE5F0E0808180688C93CF
:100E50000F900F90CF91DF911F910F9108951F92E6
:100E60000F920FB60F9200905B000F9211242F93F8
:100E70003F934F935F936F937F938F939F93AF9322
:100E8000BF93EF93FF93DF93CF93CDB7DEB78091FE
:100E9000380190913901009729F0E0913801F091E3
:100EA0003901099580913A0190913B01A0913C0153
:100EB000B0913D01803828E3920721E0A20720E0AD
:100EC000B20708F08EDC80913A0190913B01A0912D
:100ED0003C01B0913D010196A11DB11D80933A01E5
:100EE00090933B01A0933C01B0933D01CF91DF91E2
:100EF000FF91EF91BF91AF919F918F917F916F91F2
:100F00005F914F913F912F910F9000925B000F9056
:100F10000FBE0F901F901895DF93CF93CDB7DEB71C
:100F200010923A0110923B0110923C0110923D0147
:100F3000CF91DF910895DF93CF93CDB7DEB781E0F6
:100F400080933E01CF91DF910895DF93CF93CDB78A
:100F5000DEB76C970FB6F894DEBF0FBECDBF80E052
:100F600090E0AAE7B4E4898F9A8FAB8FBC8F698D2C
:100F70007A8D8B8D9C8D20E030E44CE155E4B0D32C
:100F8000DC01CB018D8B9E8BAF8BB88F6D897E89F9
:100F90008F89988D20E030E040E85FE34ED28823CF
:100FA0002CF481E090E09C8B8B8B3BC06D897E891B
:100FB0008F89988D20E03FEF4FE757E48DD31816C7
:100FC0003CF5698D7A8D8B8D9C8D20E030E040E280
:100FD00051E486D3DC01CB01BC01CD019FD2DC0101
:100FE000CB019C8B8B8B0FC08AEF90E09A8B898B07
:100FF00089899A890197F1F79A8B898B8B899C89CA
:1010000001979C8B8B8B8B899C89009769F713C008
:101010006D897E898F89988D81D2DC01CB019C8B73
:101020008B8B8B899C89988B8F878F85988901976B
:10103000F1F7988B8F87E3E3F0E08FEF8083E4E3B1
:10104000F0E08FEF808380E090E0AAE7B4E48B8744
:101050009C87AD87BE876B857C858D859E8520E0CE
:1010600030E44CE155E43CD3DC01CB018F8398871D
:10107000A987BA876F81788589859A8520E030E0D5
:1010800040E85FE3DAD188232CF481E090E09E838E
:101090008D833BC06F81788589859A8520E03FEFFD
:1010A0004FE757E419D318163CF56B857C858D8581
:1010B0009E8520E030E040E251E412D3DC01CB0118
:1010C000BC01CD012BD2DC01CB019E838D830FC0EF
:1010D0008AEF90E09C838B838B819C810197F1F751
:1010E0009C838B838D819E8101979E838D838D81CF
:1010F0009E81009769F713C06F81788589859A85ED
:101100000DD2DC01CB019E838D838D819E819A83DC
:10111000898389819A810197F1F79A838983E4E32E
:10112000F0E0108282E390E0CBD888EE93E051DECD
:1011300081E004DE64DAF0DEFEDE6C960FB6F89431
:10114000DEBF0FBECDBFCF91DF9108951F920F92EA
:101150000FB60F9200905B000F9211248F939F9314
:10116000AF93BF93EF93FF93DF93CF93CDB7DEB7EA
:1011700080913F018823D9F080913F018150809375
:101180003F01A6ECB0E080914001882F90E0FC0187
:10119000E95BFE4F80818C93809140018F5F80934B
:1011A000400180914001803411F410924001CF91B0
:1011B000DF91FF91EF91BF91AF919F918F910F9030
:1011C00000925B000F900FBE0F901F9018951F921A
:1011D0000F920FB60F9200905B000F9211242F9385
:1011E0008F939F93EF93FF93DF93CF930F92CDB79E
:1011F000DEB7E0ECF0E0808189838981882F90E080
:101200008C7190700097D9F480914101882F90E003
:10121000E6ECF0E02081FC01E957FE4F208380914D
:1012200041018F5F8093410180914101803411F42D
:1012300010924101809142018F5F809342010F9093
:10124000CF91DF91FF91EF919F918F912F910F900F
:1012500000925B000F900FBE0F901F9018951F9289
:101260000F920FB60F9200905B000F9211248F9394
:101270009F93AF93BF93EF93FF93DF93CF93CDB73C
:10128000DEB7809143018823D9F0809143018150DA
:1012900080934301AEECB0E080914401882F90E050
:1012A000FC01E953FE4F80818C93809144018F5F54
:1012B0008093440180914401803411F410924401E0
:1012C000CF91DF91FF91EF91BF91AF919F918F915E
:1012D0000F9000925B000F900FBE0F901F9018951B
:1012E0001F920F920FB60F9200905B000F92112485
:1012F0002F938F939F93EF93FF93DF93CF930F924F
:10130000CDB7DEB7E8ECF0E0808189838981882F52
:1013100090E08C7190700097D9F480914501882FEE
:1013200090E0EEECF0E02081FC01E95FFD4F2083CE
:10133000809145018F5F8093450180914501803404
:1013400011F410924501809146018F5F8093460110
:101350000F90CF91DF91FF91EF919F918F912F91FE
:101360000F9000925B000F900FBE0F901F9018958A
:101370005058BB27AA270ED075C166D130F06BD16B
:1013800020F031F49F3F11F41EF45BC10EF4E095A0
:10139000E7FB51C1E92F77D180F3BA1762077307D2
:1013A0008407950718F071F49EF58FC10EF4E0954F
:1013B0000B2EBA2FA02D0B01B90190010C01CA010F
:1013C000A0011124FF27591B99F0593F50F4503EBA
:1013D00068F11A16F040A22F232F342F4427585FAC
:1013E000F3CF469537952795A795F0405395C9F7C4
:1013F0007EF41F16BA0B620B730B840BBAF091507C
:10140000A1F0FF0FBB1F661F771F881FC2F70EC01A
:10141000BA0F621F731F841F48F4879577956795ED
:10142000B795F7959E3F08F0B3CF9395880F08F0D6
:101430009927EE0F979587950895D9D008F481E004
:1014400008950CD00FC107D140F0FED030F021F448
:101450005F3F19F0F0C0511139C1F3C014D198F3B6
:101460009923C9F35523B1F3951B550BBB27AA2725
:1014700062177307840738F09F5F5F4F220F331F97
:10148000441FAA1FA9F333D00E2E3AF0E0E830D063
:1014900091505040E695001CCAF729D0FE2F27D066
:1014A000660F771F881FBB1F261737074807AB0734
:1014B000B0E809F0BB0B802DBF01FF2793585F4FA9
:1014C0002AF09E3F510568F0B6C000C15F3FECF3C3
:1014D000983EDCF3869577956795B795F7959F5F6E
:1014E000C9F7880F911D9695879597F90895E1E0C2
:1014F000660F771F881FBB1F621773078407BA0721
:1015000020F0621B730B840BBA0BEE1F88F7E0957B
:10151000089504D06894B111D9C00895BCD088F062
:101520009F5790F0B92F9927B751A0F0D1F0660FCF
:10153000771F881F991F1AF0BA95C9F712C0B130EA
:1015400081F0C3D0B1E00895C0C0672F782F8827FD
:10155000B85F39F0B93FCCF3869577956795B39529
:10156000D9F73EF490958095709561957F4F8F4F98
:101570009F4F0895E89409C097FB3EF4909580959D
:10158000709561957F4F8F4F9F4F9923A9F0F92F49
:1015900096E9BB279395F695879577956795B795C7
:1015A000F111F8CFFAF4BB0F11F460FF1BC06F5FAD
:1015B0007F4F8F4F9F4F16C0882311F096E911C0BF
:1015C000772321F09EE8872F762F05C0662371F0E0
:1015D00096E8862F70E060E02AF09A95660F771FF4
:1015E000881FDAF7880F9695879597F90895990FD0
:1015F0000008550FAA0BE0E8FEEF16161706E807DD
:10160000F907C0F012161306E407F50798F0621BFD
:10161000730B840B950B39F40A2661F0232B242BD2
:10162000252B21F408950A2609F4A140A6958FEFF1
:10163000811D811D089597F99F6780E870E060E043
:1016400008959FEF80EC089500240A94161617065B
:1016500018060906089500240A94121613061406A3
:1016600005060895092E0394000C11F4882352F006
:10167000BB0F40F4BF2B11F460FF04C06F5F7F4FBE
:101680008F4F9F4F089557FD9058440F551F59F0A5
:101690005F3F71F04795880F97FB991F61F09F3F5F
:1016A00079F087950895121613061406551FF2CF88
:1016B0004695F1DF08C0161617061806991FF1CFD8
:1016C00086957105610508940895E894BB276627FF
:1016D0007727CB0197F908958ADF08F48FEF0895F3
:1016E0000BD0C0CFB1DF28F0B6DF18F0952309F09A
:1016F000A2CFA7CF1124EACFC6DFA0F3959FD1F3E5
:10170000950F50E0551F629FF001729FBB27F00DAF
:10171000B11D639FAA27F00DB11DAA1F649F662704
:10172000B00DA11D661F829F2227B00DA11D621F53
:10173000739FB00DA11D621F839FA00D611D221F0D
:10174000749F3327A00D611D231F849F600D211DF1
:10175000822F762F6A2F11249F5750408AF0E1F094
:1017600088234AF0EE0FFF1FBB1F661F771F881FDD
:1017700091505040A9F79E3F510570F05CCFA6CF25
:101780005F3FECF3983EDCF3869577956795B795C8
:10179000F795E7959F5FC1F7FE2B880F911D9695F2
:1017A000879597F908950F931F93CF93DF93689FC1
:1017B0008001699F100D789F100D1124C8010DD074
:1017C000EC01009721F060E070E0A8010BD1CE01A0
:1017D000DF91CF911F910F910895CF93DF93BC01BB
:1017E0008230910510F462E070E0A0914902B0915E
:1017F0004A02ED01E0E0F0E040E050E021C08881E5
:1018000099818617970769F48A819B81309719F02F
:101810009383828304C090934A0280934902FE011D
:1018200034C06817790738F44115510519F0841749
:10183000950708F4AC01FE018A819B819C01E901B6
:101840002097E9F641155105A9F1CA01861B970BAE
:10185000049708F4BA01E0E0F0E02AC08D919C9171
:10186000119784179507F9F46417750781F4129698
:101870008D919C911397309719F09383828304C0C4
:1018800090934A0280934902FD0132964FC0CA01EB
:10189000861B970BFD01E80FF91F61937193029767
:1018A0008D939C9343C0FD01828193819C01D9015A
:1018B0001097A1F68091470290914802892B41F43C
:1018C0008091020190910301909348028093470216
:1018D00040910401509105014115510541F44DB766
:1018E0005EB78091000190910101481B590B209136
:1018F00047023091480224173507B0F4CA01821B11
:10190000930B8617970780F0AB014E5F5F4F8417EC
:10191000950750F0420F531F5093480240934702DF
:10192000F9016193719302C0E0E0F0E0CF01DF9133
:10193000CF910895CF93DF93009709F450C0EC0145
:1019400022971B821A82A0914902B0914A021097F5
:1019500009F140E050E0AC17BD0708F1BB83AA8352
:10196000FE0121913191E20FF31FAE17BF0779F409
:101970008D919C911197280F391F2E5F3F4F39830E
:10198000288312968D919C9113979B838A8341158E
:10199000510571F4D0934A02C093490220C01296B7
:1019A0008D919C911397AD01009711F0DC01D3CF7D
:1019B000FA01D383C28321913191E20FF31FCE1735
:1019C000DF0769F488819981280F391F2E5F3F4F07
:1019D000FA01318320838A819B8193838283DF9103
:1019E000CF910895DC0101C06D9341505040E0F764
:0619F0000895F894FFCFFA
:0619F60020004B0200007E
:00000001FF
