S01200006D616C6F5F676F766E6F2E73726563E1
S113000049C0000065C0000063C0000061C000007A
S11300105FC000005DC000005BC0000059C000006C
S113002057C0000055C0000053C0000051C000007C
S11300300C94D3094DC000004BC0000049C000001F
S113004047C0000045C00000CAC0000041C0000015
S11300503FC000000C94710B3BC000000C94300BAB
S113006037C0000035C0000033C0000031C00000BC
S11300702FC000002DC000002BC0000029C00000CC
S11300800C94FA0B25C000000C94B90B21C000009D
S11300901FC0000011241FBECFEFD0E1DEBFCDBFD3
S11300A011E0A0E0B1E0E0E0FFE100E00BBF02C03E
S11300B007900D92AC31B107D9F712E0ACE1B1E091
S11300C001C01D92A336B107E1F703D00C947E0F53
S11300D097CFDF93CF9300D0CDB7DEB71A821982C2
S11300E00E941F0A10C08FE160E041E075D340D543
S11300F08FE1BED4813029F481E090E09A83898332
S113010002C01A82198289819A81009761F38981D8
S11301109A8181309105B9F7E4E3F0E08FEF8083B1
S11301207DD5FACF0F931F93DF93CF9300D0CDB734
S1130130DEB79A838983ADE2B0E0EDE2F0E080813E
S113014088638C93E4E9F0E011821082E8E9F0E03E
S113015011821082EAE9F0E011821082ECE9F0E009
S113016011821082E0E9F0E08EEF8083E1E9F0E0B3
S11301708AE1808306E910E089819A81880F991FBA
S1130180880F991F880F991FCC01A0E0B0E0BC0133
S1130190CD010E943F0D9B01AC0160E876E988E146
S11301A09BE40E94AB0CDC01CB01BC01CD0120E03F
S11301B030E040E05FE30E94420CDC01CB01BC0173
S11301C0CD010E94130DDC01CB01F80191838083E2
S11301D00F900F90CF91DF911F910F9108951F926F
S11301E00F920FB60F9200905B000F9211242F9381
S11301F03F934F935F938F939F93AF93BF93EF93EB
S1130200FF93DF93CF9300D000D0CDB7DEB7EDEEF0
S1130210F0E080818C831B829CC0EDEEF0E08B814A
S11302208295807F8083EEEEF0E0808182958695D2
S11302308770882F90E081709070882309F46EC0D5
S1130240EFEEF0E080E88083AEEEB0E0EEEEF0E0BA
S113025080818F7D8C93E2EFF0E08081829586959A
S11302608770282FE3EFF0E08081882F90E0880FDB
S1130270991F880F991F880F991F822B8A831982CF
S11302802AC08A81282F30E081E090E0821B930B02
S1130290880F991F909581959F4FFC01E45EFE4F56
S11302A0408151818A81882F90E00197FC01E05DB3
S11302B0FE4F8081282F30E08981882F90E0820FC3
S11302C0931FDA01A80FB91FEAEFF0E080818C9345
S11302D089818F5F89838981883098F28A81882F08
S11302E090E00197FC01E05DFE4F80818F5F808389
S11302F08081853041F48A81882F90E00197FC0148
S1130300E05DFE4F10828A81882F90E00197FC0106
S1130310EC5BFE4F80818F5F80831FC0EEEEF0E0C8
S113032080818295869586958370882F90E0817070
S11303309070882359F0EFEEF0E01082AEEEB0E05A
S1130340EEEEF0E080818F7B8C9307C08B818F5F12
S11303508B838B818F3008F460CFEDEEF0E08C81DD
S11303608083AAEDB0E0EAEDF0E080818C930F90F9
S11303700F900F900F90CF91DF91FF91EF91BF916C
S1130380AF919F918F915F914F913F912F910F90DA
S113039000925B000F900FBE0F901F901895DF9393
S11303A0CF9300D0CDB7DEB7E8EDF0E081E08083F5
S11303B01A8232C0EDEEF0E08A818295807F8083DC
S11303C0EEEEF0E01082EFEEF0E01082E3EFF0E00A
S11303D01082E2EFF0E01082E1EFF0E01082E0EF53
S11303E0F0E01082E7EFF0E01082E6EFF0E0108238
S11303F0E5EFF0E01082E4EFF0E01082198206C02D
S1130400EAEFF0E0108289818F5F898389818830E7
S1130410B8F38A818F5F8A838A818F3058F2E8ED3E
S1130420F0E082E08083E2EEF0E081E08083E3EEBE
S1130430F0E088E08083E4EEF0E08EE58083E5EE92
S1130440F0E01082EBEDF0E080EB8083EFEDF0E084
S11304508FE78083EEEDF0E08FEF808378940F9048
S11304600F90CF91DF910895DF93CF9300D000D008
S11304700F92CDB7DEB79C838B83EDEEF0E08081E5
S11304808983E9EDF0E0808182958F70882F90E078
S1130490817090708823A9F7E9EDF0E0808186955A
S11304A086958695882F90E081709070882349F70F
S11304B01A823FC0EDEEF0E08A818295807F8083CE
S11304C0EFEEF0E08081829586958695837088238F
S11304D069F5EFEEF0E08FE08083E3EFF0E08B81ED
S11304E09C81907096958795969587959695879516
S11304F08083E2EFF0E08B818295880F807E808399
S1130500E6EFF0E080EE8083E7EFF0E08FEF8083AA
S1130510AFEEB0E0EFEEF0E0808180688C93EDEE1A
S1130520F0E08981808381E08D830CC08A818F5FB4
S11305308A838A818F3008F4BDCFEDEEF0E08981A3
S113054080831D828D810F900F900F900F900F90DC
S1130550CF91DF9108950F931F93DF93CF9300D032
S1130560CDB7DEB78A831BDF198236C08981882F15
S113057090E0019679DF8981882F90E0880F991F98
S11305808C01045E1E4F85E090E061E070E00E9403
S1130590580EF801918380838981482F50E0898126
S11305A0282F30E08981882F90E0FC01EC5BFE4F1E
S11305B01082FC01EC5BFE4F8081F901E65CFE4F8A
S11305C08083F901E65CFE4F8081FA01E05DFE4F15
S11305D0808389818F5F898399818A81981730F21A
S11305E00F900F90CF91DF911F910F910895DF939A
S11305F0CF9300D000D0CDB7DEB79B838A836C83C2
S11306008C81882F90E00197FC01EC5BFE4F808188
S11306108823B1F3198230C08981282F30E08A8180
S11306209B81DC01A20FB31F8C81282F30E081E075
S113063090E0821B930B880F991F909581959F4F93
S1130640FC01E45EFE4F408151818C81882F90E053
S11306500197FC01E65CFE4F8081282F30E0898100
S1130660882F90E0820F931FFA01E80FF91F808111
S11306708C9389818F5F89838981883068F28C812A
S1130680882F90E00197FC01E65CFE4F80818F5F2C
S113069080838081853041F48C81882F90E001979C
S11306A0FC01E65CFE4F10828C81882F90E09C0157
S11306B021503040F901EC5BFE4F80818150F901FB
S11306C0EC5BFE4F808380E00F900F900F900F90B3
S11306D0CF91DF910895DF93CF93CDB7DEB72797FE
S11306E00FB6F894DEBF0FBECDBF9D838C836E839F
S11306F0E9EDF0E0808182958F70882F90E0817021
S113070090708823A9F7E9EDF0E0808186958695BD
S11307108695882F90E081709070882349F7EDEEDC
S1130720F0E0808189831A8212C0EDEEF0E08A81C4
S11307308295807F8083EFEEF0E0808182958695BC
S113074086958370882331F08A818F5F8A838A81BA
S11307508F3058F38A818F3019F48FEF8F8332C032
S1130760E2EFF0E08E818295880F807E8083E3EF54
S1130770F0E08E818695869586958083EFEEF0E095
S113078088E080831B820FC0AAEFB0E08B81282F02
S113079030E08C819D81FC01E20FF31F80818C93FA
S11307A08B818F5F8B838B81883070F3AFEEB0E0E9
S11307B0EFEEF0E0808180648C93EDEEF0E08981CF
S11307C080831F828F8127960FB6F894DEBF0FBEF9
S11307D0CDBFCF91DF910895DF93CF93CDB7DEB72F
S11307E02C970FB6F894DEBF0FBECDBF89876A87FA
S11307F04B8780910801909109019C838B838B81A5
S11308009C81069798878F8314C0EF81F885908127
S11308108985981719F421E02C87A7C0EF81F88502
S1130820808591859A83898389819A81069798879F
S11308308F838F819885069621E08630920729F769
S113084089858695869586958F5F8E838985877041
S11308508D838A85813009F048C08E81282F30E04D
S1130860C901880F991F820F931F4E96DC018E8158
S1130870282F30E0C901880F991F820F931F4E96CD
S1130880FC018081482F8D81282F30E081E090E0A9
S113089002C0880F991F2A95E2F7842B8C938E81CE
S11308A0282F30E0C901880F991F820F931F4F969C
S11308B0DC018E81282F30E0C901880F991F820F37
S11308C0931F4F96FC018081482F8D81282F30E0A3
S11308D081E090E0022E02C0880F991F0A94E2F78B
S11308E0809584238C931C8640C08E81282F30E011
S11308F0C901880F991F820F931F4E96DC018E81C8
S1130900282F30E0C901880F991F820F931F4E963C
S1130910FC018081482F8D81282F30E081E090E018
S113092002C0880F991F2A95E2F7809584238C933F
S11309308AE090E00E94720E98878F838F81988559
S1130940009719F481E08C8710C0EF81F8858985C0
S11309508083EF81F8858B8581838F8198850696C6
S113096026E031E0B9010BD01C868C852C960FB69D
S1130970F894DEBF0FBECDBFCF91DF910895DF9312
S1130980CF9300D000D0CDB7DEB79A8389837C8320
S11309906B83EB81FC814281538189819A812B8114
S11309A03C81B90107D00F900F900F900F90CF9119
S11309B0DF910895DF93CF9300D000D000D0CDB75E
S11309C0DEB79A8389837C836B835E834D83ED8159
S11309D0FE8189819A8191838083E981FA818D8165
S11309E09E8193838283E981FA818B819C819183A7
S11309F08083EB81FC8189819A819383828326960B
S1130A000FB6F894DEBF0FBECDBFCF91DF9108952E
S1130A10DF93CF9300D00F92CDB7DEB78B838B815A
S1130A208695869586958F5F8A838B8187708B8365
S1130A308A81282F30E0C901880F991F820F931FE4
S1130A404D96FC01808189838981282F30E08B8138
S1130A50882F90E0A90102C0559547958A95E2F741
S1130A60CA0181700F900F900F90CF91DF9108957C
S1130A70DF93CF93CDB7DEB72B970FB6F894DEBFD5
S1130A800FBECDBF898780910801909109019E8393
S1130A908D838D819E81069798878F8355C0EF81C2
S1130AA0F88590818985981709F043C01C8221C07C
S1130AB08C81282F30E08F819885820F931FFC0151
S1130AC0329640818C81882F90E09C012F5F3F4FAC
S1130AD08F819885820F931FFC013296808148177D
S1130AE029F0EF81F88525812B8738C08C818F5FB1
S1130AF08C838C818230E0F2EF81F885918181E0F2
S1130B008927882329F0EF81F88582818A8708C0A4
S1130B10EF81F88582811A86882311F421E02A87DF
S1130B208A858B83EF81F8858B8185832B812B8745
S1130B3015C0EF81F885808591859A8389838981A1
S1130B409A81069798878F838F819885069621E0EE
S1130B508630920709F0A3CF81E08B878B852B9693
S1130B600FB6F894DEBF0FBECDBFCF91DF910895CD
S1130B700F931F93DF93CF9300D000D000D0CDB755
S1130B80DEB780910801909109019C838B838B814E
S1130B909C8106979E838D831BC000914E0110910A
S1130BA04F01ED81FE81808133DF282F8D819E816D
S1130BB0800F911FFC0132962083ED81FE81808598
S1130BC091859A83898389819A8106979E838D83EF
S1130BD08D819E81069621E086309207F1F6809100
S1130BE04E0190914F01019690934F0180934E01D5
S1130BF080914E0190914F018330910521F4109220
S1130C004F0110924E0126960FB6F894DEBF0FBE28
S1130C10CDBFCF91DF911F910F910895DF93CF93B3
S1130C20CDB7DEB72B970FB6F894DEBF0FBECDBF9E
S1130C301C821B8281E089831E821D8218861F828A
S1130C401A861986CE010596A5D28981882F90E04F
S1130C5081309105D1F78B818C835CC08C81482FC6
S1130C6050E0CA01880F991F9C01220F331F220FE5
S1130C70331F820F931F840F951F8F5E9E4FBC01FD
S1130C808C81482F50E0CA01880F991F9C01220FC4
S1130C90331F220F331F820F931F840F951FFC01F4
S1130CA0E85EFE4FA0818C81482F50E0CA01880F76
S1130CB0991F9C01220F331F220F331F820F931F92
S1130CC0840F951FFC01E75EFE4FB0818C81482F95
S1130CD050E0CA01880F991F9C01220F331F220F75
S1130CE0331F820F931F840F951FFC01E65EFE4F96
S1130CF020813181CB016A2F4B2F9BD18A838A813A
S1130D00813009F4A2CF8C81882309F4FFCF8C8130
S1130D108F5F8C838C81882309F4A0CF96CFDF93D7
S1130D20CF93CDB7DEB767970FB6F894DEBF0FBE8B
S1130D30CDBF8F8B909150018F89891709F47BC0A7
S1130D4086E58F878F89888B6CC080E090E0A8E46B
S1130D50B2E48B879C87AD87BE876B857C858D8548
S1130D609E8520E030E44CE155E43FD7DC01CB0123
S1130D708F839887A987BA876F81788589859A85B3
S1130D8020E030E040E85FE3E2D588232CF481E002
S1130D9090E09E838D833BC06F81788589859A8599
S1130DA020E03FEF4FE757E41CD718163CF56B855E
S1130DB07C858D859E8520E030E040E251E415D7A6
S1130DC0DC01CB01BC01CD012ED6DC01CB019E831D
S1130DD08D830FC08AEF90E09C838B838B819C81F1
S1130DE00197F1F79C838B838D819E8101979E836C
S1130DF08D838D819E81009769F713C06F817885FB
S1130E0089859A8510D6DC01CB019E838D838D81E3
S1130E109E819A83898389819A810197F1F79A83C4
S1130E208983CE010F9663EC56DC882309F08DCFBD
S1130E308F898093500167960FB6F894DEBF0FBE7A
S1130E40CDBFCF91DF910895DF93CF93CDB7DEB7B8
S1130E5066970FB6F894DEBF0FBECDBF80E58F87CF
S1130E606CC080E090E0A8E4B2E48B879C87AD87F7
S1130E70BE876B857C858D859E8520E030E44CE1C2
S1130E8055E4B3D6DC01CB018F839887A987BA8751
S1130E906F81788589859A8520E030E040E85FE3BA
S1130EA056D588232CF481E090E09E838D833BC04B
S1130EB06F81788589859A8520E03FEF4FE757E475
S1130EC090D618163CF56B857C858D859E8520E033
S1130ED030E040E251E489D6DC01CB01BC01CD0114
S1130EE0A2D5DC01CB019E838D830FC08AEF90E0F5
S1130EF09C838B838B819C810197F1F79C838B83EB
S1130F008D819E8101979E838D838D819E81009723
S1130F1069F713C06F81788589859A8584D5DC014A
S1130F20CB019E838D838D819E819A838983898160
S1130F309A810197F1F79A838983CE010F9663EC26
S1130F40CADB882309F08DCFCE010F9661E04FDB19
S1130F508F85809310018889882F90E0382F22276D
S1130F608989882F90E0822B932B90930B01809397
S1130F700A018A89882F90E0382F22278B89882FAD
S1130F8090E0822B932B90930D0180930C018C891C
S1130F90882F90E0382F22278D89882F90E0822B8C
S1130FA0932B90930F0180930E0166960FB6F894DD
S1130FB0DEBF0FBECDBFCF91DF910895DF93CF93F6
S1130FC0CDB7DEB727970FB6F894DEBF0FBECDBFFF
S1130FD09E838D8334D3AA2797FDA095BA2F898346
S1130FE09A83AB83BC8330DF8D819E81009771F03F
S1130FF089819A81AB81BC81ED81FE81BC01CD01E7
S11310000995813019F481E08F8309C08091100122
S11310108D3449F380911001823529F31F828F8129
S113102027960FB6F894DEBF0FBECDBFCF91DF91E8
S11310300895DF93CF93CDB7DEB76C970FB6F894CE
S1131040DEBF0FBECDBF988F8F8B698F4A8F3C8FC9
S11310502B8F898D64DE87E48F87EF89F88D8081FB
S11310609181892F990F990B888BEF89F88D808155
S11310709181898BEF89F88D82819381892F990FD2
S1131080990B8A8BEF89F88D828193818B8B1C8AD3
S11310908A8D8D8B6CC080E090E0A8E4B2E48B87ED
S11310A09C87AD87BE876B857C858D859E8520E07A
S11310B030E44CE155E499D5DC01CB018F8398876A
S11310C0A987BA876F81788589859A8520E030E081
S11310D040E85FE33CD488232CF481E090E09E83D5
S11310E08D833BC06F81788589859A8520E03FEFA9
S11310F04FE757E476D518163CF56B857C858D85CE
S11311009E8520E030E040E251E46FD5DC01CB0164
S1131110BC01CD0188D4DC01CB019E838D830FC03B
S11311208AEF90E09C838B838B819C810197F1F7FC
S11311309C838B838D819E8101979E838D838D817A
S11311409E81009769F713C06F81788589859A8598
S11311506AD4DC01CB019E838D838D819E819A8329
S1131160898389819A810197F1F79A838983CE01D2
S11311700F9663ECB0DA882309F08DCF8B8D9C8DAC
S11311801DDF6C960FB6F894DEBF0FBECDBFCF91B6
S1131190DF910895DF93CF93CDB7DEB768970FB68D
S11311A0F894DEBF0FBECDBF988F8F8B89E48F87F5
S11311B0EF89F88D80819181892F990F990B888B04
S11311C0EF89F88D80819181898BEF89F88D8281F7
S11311D09381892F990F990B8A8BEF89F88D8281DE
S11311E093818B8B1C8AEF89F88D848195818D8BFB
S11311F0EF89F88D8081918190930B0180930A018E
S1131200EF89F88D8281938190930D0180930C0175
S1131210EF89F88D8481958190930F0180930E015D
S11312206CC080E090E0A8E4B2E48B879C87AD8733
S1131230BE876B857C858D859E8520E030E44CE1FE
S113124055E4D3D4DC01CB018F839887A987BA876F
S11312506F81788589859A8520E030E040E85FE3F6
S113126076D388232CF481E090E09E838D833BC069
S11312706F81788589859A8520E03FEF4FE757E4B1
S1131280B0D418163CF56B857C858D859E8520E051
S113129030E040E251E4A9D4DC01CB01BC01CD0132
S11312A0C2D3DC01CB019E838D830FC08AEF90E013
S11312B09C838B838B819C810197F1F79C838B8327
S11312C08D819E8101979E838D838D819E81009760
S11312D069F713C06F81788589859A85A4D3DC0169
S11312E0CB019E838D838D819E819A83898389819D
S11312F09A810197F1F79A838983CE010F9663EC63
S1131300EAD9882309F08DCF68960FB6F894DEBF2A
S11313100FBECDBFCF91DF9108950F931F93DF933D
S1131320CF9300D0CDB7DEB79A838983E0E8F0E0AD
S11313301082E1E8F0E089E0808308E810E0898128
S11313409A81CC01A0E0B0E0BC01CD0198D39B010F
S1131350AC0160E876E988E19BE4FDD2DC01CB01D5
S1131360BC01CD0120E030E040E05FE38CD2DC0141
S1131370CB01BC01CD0157D3DC01CB01F801918332
S11313808083EFE6F0E082E08083AFE5B0E0EFE554
S1131390F0E0808180688C930F900F90CF91DF9163
S11313A01F910F9108951F920F920FB60F92009004
S11313B05B000F9211242F933F934F935F936F938E
S11313C07F938F939F93AF93BF93EF93FF93DF9399
S11313D0CF93CDB7DEB78091510190915201009720
S11313E029F0E0915101F091520109958091530146
S11313F090915401A0915501B09156010196A11DFF
S1131400B11D8093530190935401A0935501B0935F
S11314105601CF91DF91FF91EF91BF91AF919F91D1
S11314208F917F916F915F914F913F912F910F9089
S113143000925B000F900FBE0F901F901895DF93E2
S1131440CF93CDB7DEB76C970FB6F894DEBF0FBE5F
S1131450CDBF80E090E0AAE7B4E4898F9A8FAB8F88
S1131460BC8F698D7A8D8B8D9C8D20E030E44CE1AE
S113147055E4BBD3DC01CB018D8B9E8BAF8BB88F36
S11314806D897E898F89988D20E030E040E85FE3A4
S11314905ED288232CF481E090E09C8B8B8B3BC044
S11314A06D897E898F89988D20E03FEF4FE757E45F
S11314B098D318163CF5698D7A8D8B8D9C8D20E020
S11314C030E040E251E491D3DC01CB01BC01CD0119
S11314D0AAD2DC01CB019C8B8B8B0FC08AEF90E0EE
S11314E09A8B898B89899A890197F1F79A8B898BD1
S11314F08B899C8901979C8B8B8B8B899C8900970A
S113150069F713C06D897E898F89988D8CD2DC012F
S1131510CB019C8B8B8B8B899C89988B8F878F8538
S113152098890197F1F7988B8F87E3E3F0E08FEFC9
S11315308083E4E3F0E08FEF808380E090E0AAE72B
S1131540B4E48B879C87AD87BE876B857C858D854E
S11315509E8520E030E44CE155E447D3DC01CB0127
S11315608F839887A987BA876F81788589859A85BB
S113157020E030E040E85FE3EAD188232CF481E006
S113158090E09E838D833BC06F81788589859A85A1
S113159020E03FEF4FE757E424D318163CF56B8562
S11315A07C858D859E8520E030E040E251E41DD3AA
S11315B0DC01CB01BC01CD0136D2DC01CB019E8321
S11315C08D830FC08AEF90E09C838B838B819C81F9
S11315D00197F1F79C838B838D819E8101979E8374
S11315E08D838D819E81009769F713C06F81788503
S11315F089859A8518D2DC01CB019E838D838D81E8
S11316009E819A83898389819A810197F1F79A83CC
S11316108983E4E3F0E0108282E390E00E94920088
S113162088EE93E07ADE81E00E94AB026C960FB6FE
S1131630F894DEBF0FBECDBFCF91DF910895DF9345
S1131640CF93CDB7DEB78091530190915401A0910F
S11316505501B0915601BC01CD01CF91DF910895A0
S11316601F920F920FB60F9200905B000F921124FD
S11316708F939F93AF93BF93EF93FF93DF93CF9396
S1131680CDB7DEB7809157018823D9F080915701F7
S1131690815080935701A6ECB0E080915801882FC7
S11316A090E0FC01E15AFE4F80818C9380915801B7
S11316B08F5F8093580180915801803411F4109207
S11316C05801CF91DF91FF91EF91BF91AF919F911D
S11316D08F910F9000925B000F900FBE0F901F90A0
S11316E018951F920F920FB60F9200905B000F9205
S11316F011242F938F939F93EF93FF93DF93CF93B3
S11317000F92CDB7DEB7E0ECF0E080818983898168
S1131710882F90E08C7190700097D9F480915901D2
S1131720882F90E0E6ECF0E02081FC01E156FE4FCA
S11317302083809159018F5F8093590180915901D1
S1131740803411F41092590180915A018F5F809373
S11317505A010F90CF91DF91FF91EF919F918F915B
S11317602F910F9000925B000F900FBE0F901F906F
S113177018951F920F920FB60F9200905B000F9274
S113178011248F939F93AF93BF93EF93FF93DF93B2
S1131790CF93CDB7DEB780915B018823D9F08091D8
S11317A05B01815080935B01AEECB0E080915C0101
S11317B0882F90E0FC01E152FE4F80818C93809150
S11317C05C018F5F80935C0180915C01803411F433
S11317D010925C01CF91DF91FF91EF91BF91AF9196
S11317E09F918F910F9000925B000F900FBE0F900E
S11317F01F9018951F920F920FB60F9200905B00E6
S11318000F9211242F938F939F93EF93FF93DF9362
S1131810CF930F92CDB7DEB7E8ECF0E080818983F7
S11318208981882F90E08C7190700097D9F4809111
S11318305D01882F90E0EEECF0E02081FC01E15E98
S1131840FD4F208380915D018F5F80935D018091C6
S11318505D01803411F410925D0180915E018F5F0F
S113186080935E010F90CF91DF91FF91EF919F9153
S11318708F912F910F9000925B000F900FBE0F90ED
S11318801F9018955058BB27AA270ED070C161D15C
S113189030F066D120F031F49F3F11F41EF456C1AC
S11318A00EF4E095E7FB4CC1E92F72D180F3BA172F
S11318B0620773078407950718F071F49EF58AC1CF
S11318C00EF4E0950B2EBA2FA02D0B01B901900157
S11318D00C01CA01A0011124FF27591B99F0593F9B
S11318E050F4503E68F11A16F040A22F232F342FE3
S11318F04427585FF3CF469537952795A795F04031
S11319005395C9F77EF41F16BA0B620B730B840B45
S1131910BAF09150A1F0FF0FBB1F661F771F881FFD
S1131920C2F70EC0BA0F621F731F841F48F4879555
S113193077956795B795F7959E3F08F0B3CF939544
S1131940880F08F09927EE0F979587950895D4D0BE
S113195008F481E008950CD00AC102D140F0F9D016
S113196030F021F45F3F19F0EBC0511134C1EEC0E7
S11319700FD198F39923C9F35523B1F3951B550B54
S1131980BB27AA2762177307840738F09F5F5F4F4E
S1131990220F331F441FAA1FA9F333D00E2E3AF08F
S11319A0E0E830D091505040E695001CCAF729D0A9
S11319B0FE2F27D0660F771F881FBB1F26173707F8
S11319C04807AB07B0E809F0BB0B802DBF01FF2728
S11319D093585F4F2AF09E3F510568F0B1C0FBC099
S11319E05F3FECF3983EDCF3869577956795B79562
S11319F0F7959F5FC9F7880F911D9695879597F97D
S1131A000895E1E0660F771F881FBB1F62177307F5
S1131A108407BA0720F0621B730B840BBA0BEE1F0A
S1131A2088F7E0950895BCD088F09F5790F0B92FBF
S1131A309927B751A0F0D1F0660F771F881F991F1F
S1131A401AF0BA95C9F712C0B13081F0C3D0B1E031
S1131A500895C0C0672F782F8827B85F39F0B93F41
S1131A60CCF3869577956795B395D9F73EF4909521
S1131A708095709561957F4F8F4F9F4F0895E8949F
S1131A8009C097FB3EF490958095709561957F4FC2
S1131A908F4F9F4F9923A9F0F92F96E9BB27939570
S1131AA0F695879577956795B795F111F8CFFAF480
S1131AB0BB0F11F460FF1BC06F5F7F4F8F4F9F4FB1
S1131AC016C0882311F096E911C0772321F09EE80F
S1131AD0872F762F05C0662371F096E8862F70E075
S1131AE060E02AF09A95660F771F881FDAF7880F4F
S1131AF09695879597F90895990F0008550FAA0BA5
S1131B00E0E8FEEF16161706E807F907C0F012160C
S1131B101306E407F50798F0621B730B840B950B0F
S1131B2039F40A2661F0232B242B252B21F4089564
S1131B300A2609F4A140A6958FEF811D811D089501
S1131B4097F99F6780E870E060E008959FEF80EC6C
S1131B50089500240A94161617061806090608950F
S1131B6000240A9412161306140605060895092E75
S1131B700394000C11F4882352F0BB0F40F4BF2BE4
S1131B8011F460FF04C06F5F7F4F8F4F9F4F089524
S1131B9057FD9058440F551F59F05F3F71F047951A
S1131BA0880F97FB991F61F09F3F79F087950895FF
S1131BB0121613061406551FF2CF4695F1DF08C01E
S1131BC0161617061806991FF1CF8695710561053B
S1131BD008940895E894BB2766277727CB0197F9E3
S1131BE008958ADF08F48FEF08950BD0C0CFB1DFDA
S1131BF028F0B6DF18F0952309F0A2CFA7CF11245F
S1131C00EACFC6DFA0F3959FD1F3950F50E0551F9F
S1131C10629FF001729FBB27F00DB11D639FAA273D
S1131C20F00DB11DAA1F649F6627B00DA11D661F8C
S1131C30829F2227B00DA11D621F739FB00DA11DAD
S1131C40621F839FA00D611D221F749F3327A00D67
S1131C50611D231F849F600D211D822F762F6A2F03
S1131C6011249F5750408AF0E1F088234AF0EE0F88
S1131C70FF1FBB1F661F771F881F91505040A9F795
S1131C809E3F510570F05CCFA6CF5F3FECF3983ECA
S1131C90DCF3869577956795B795F795E7959F5FFC
S1131CA0C1F7FE2B880F911D9695879597F9089596
S1131CB00F931F93CF93DF93689F8001699F100D4B
S1131CC0789F100D1124C8010DD0EC01009721F06C
S1131CD060E070E0A8010BD1CE01DF91CF911F919C
S1131CE00F910895CF93DF93BC018230910510F4D6
S1131CF062E070E0A0916102B0916202ED01E0E067
S1131D00F0E040E050E021C0888199818617970770
S1131D1069F48A819B81309719F09383828304C08C
S1131D209093620280936102FE0134C068177907C0
S1131D3038F44115510519F08417950708F4AC01DE
S1131D40FE018A819B819C01E9012097E9F64115F6
S1131D505105A9F1CA01861B970B049708F4BA012F
S1131D60E0E0F0E02AC08D919C91119784179507CB
S1131D70F9F46417750781F412968D919C91139769
S1131D80309719F09383828304C090936202809306
S1131D906102FD0132964FC0CA01861B970BFD01FB
S1131DA0E80FF91F6193719302978D939C9343C03D
S1131DB0FD01828193819C01D9011097A1F6809144
S1131DC05F0290916002892B41F48091020190910D
S1131DD003019093600280935F024091040150914B
S1131DE005014115510541F44DB75EB780910001DD
S1131DF090910101481B590B20915F0230916002C0
S1131E0024173507B0F4CA01821B930B8617970772
S1131E1080F0AB014E5F5F4F8417950750F0420F7F
S1131E20531F5093600240935F02F90161937193D1
S1131E3002C0E0E0F0E0CF01DF91CF910895CF93AD
S1131E40DF93009709F450C0EC0122971B821A8299
S1131E50A0916102B0916202109709F140E050E054
S1131E60AC17BD0708F1BB83AA83FE012191319110
S1131E70E20FF31FAE17BF0779F48D919C91119770
S1131E80280F391F2E5F3F4F3983288312968D9177
S1131E909C9113979B838A834115510571F4D093C8
S1131EA06202C093610220C012968D919C91139797
S1131EB0AD01009711F0DC01D3CFFA01D383C283C3
S1131EC021913191E20FF31FCE17DF0769F4888166
S1131ED09981280F391F2E5F3F4FFA0131832083E8
S1131EE08A819B8193838283DF91CF910895DC0162
S1131EF001C06D9341505040E0F70895F894FFCF2E
S1131F00200063020000060106010000000000003A
S10F1F1049C800F4010000004101000079
S9030000FC
